{
  "_format": "hh-sol-artifact-1",
  "contractName": "ForgeToken",
  "sourceName": "contracts/ForgeToken.sol",
  "abi": [
    {
      "inputs": [],
      "stateMutability": "nonpayable",
      "type": "constructor"
    },
    {
      "inputs": [
        {
          "internalType": "address",
          "name": "spender",
          "type": "address"
        },
        {
          "internalType": "uint256",
          "name": "allowance",
          "type": "uint256"
        },
        {
          "internalType": "uint256",
          "name": "needed",
          "type": "uint256"
        }
      ],
      "name": "ERC20InsufficientAllowance",
      "type": "error"
    },
    {
      "inputs": [
        {
          "internalType": "address",
          "name": "sender",
          "type": "address"
        },
        {
          "internalType": "uint256",
          "name": "balance",
          "type": "uint256"
        },
        {
          "internalType": "uint256",
          "name": "needed",
          "type": "uint256"
        }
      ],
      "name": "ERC20InsufficientBalance",
      "type": "error"
    },
    {
      "inputs": [
        {
          "internalType": "address",
          "name": "approver",
          "type": "address"
        }
      ],
      "name": "ERC20InvalidApprover",
      "type": "error"
    },
    {
      "inputs": [
        {
          "internalType": "address",
          "name": "receiver",
          "type": "address"
        }
      ],
      "name": "ERC20InvalidReceiver",
      "type": "error"
    },
    {
      "inputs": [
        {
          "internalType": "address",
          "name": "sender",
          "type": "address"
        }
      ],
      "name": "ERC20InvalidSender",
      "type": "error"
    },
    {
      "inputs": [
        {
          "internalType": "address",
          "name": "spender",
          "type": "address"
        }
      ],
      "name": "ERC20InvalidSpender",
      "type": "error"
    },
    {
      "inputs": [
        {
          "internalType": "address",
          "name": "owner",
          "type": "address"
        }
      ],
      "name": "OwnableInvalidOwner",
      "type": "error"
    },
    {
      "inputs": [
        {
          "internalType": "address",
          "name": "account",
          "type": "address"
        }
      ],
      "name": "OwnableUnauthorizedAccount",
      "type": "error"
    },
    {
      "anonymous": false,
      "inputs": [
        {
          "indexed": true,
          "internalType": "address",
          "name": "owner",
          "type": "address"
        },
        {
          "indexed": true,
          "internalType": "address",
          "name": "spender",
          "type": "address"
        },
        {
          "indexed": false,
          "internalType": "uint256",
          "name": "value",
          "type": "uint256"
        }
      ],
      "name": "Approval",
      "type": "event"
    },
    {
      "anonymous": false,
      "inputs": [
        {
          "indexed": true,
          "internalType": "address",
          "name": "minter",
          "type": "address"
        }
      ],
      "name": "MinterAdded",
      "type": "event"
    },
    {
      "anonymous": false,
      "inputs": [
        {
          "indexed": true,
          "internalType": "address",
          "name": "minter",
          "type": "address"
        }
      ],
      "name": "MinterRemoved",
      "type": "event"
    },
    {
      "anonymous": false,
      "inputs": [
        {
          "indexed": true,
          "internalType": "address",
          "name": "previousOwner",
          "type": "address"
        },
        {
          "indexed": true,
          "internalType": "address",
          "name": "newOwner",
          "type": "address"
        }
      ],
      "name": "OwnershipTransferred",
      "type": "event"
    },
    {
      "anonymous": false,
      "inputs": [
        {
          "indexed": true,
          "internalType": "address",
          "name": "from",
          "type": "address"
        },
        {
          "indexed": true,
          "internalType": "address",
          "name": "to",
          "type": "address"
        },
        {
          "indexed": false,
          "internalType": "uint256",
          "name": "value",
          "type": "uint256"
        }
      ],
      "name": "Transfer",
      "type": "event"
    },
    {
      "inputs": [],
      "name": "MAX_SUPPLY",
      "outputs": [
        {
          "internalType": "uint256",
          "name": "",
          "type": "uint256"
        }
      ],
      "stateMutability": "view",
      "type": "function"
    },
    {
      "inputs": [
        {
          "internalType": "address",
          "name": "minter",
          "type": "address"
        }
      ],
      "name": "addMinter",
      "outputs": [],
      "stateMutability": "nonpayable",
      "type": "function"
    },
    {
      "inputs": [
        {
          "internalType": "address",
          "name": "owner",
          "type": "address"
        },
        {
          "internalType": "address",
          "name": "spender",
          "type": "address"
        }
      ],
      "name": "allowance",
      "outputs": [
        {
          "internalType": "uint256",
          "name": "",
          "type": "uint256"
        }
      ],
      "stateMutability": "view",
      "type": "function"
    },
    {
      "inputs": [
        {
          "internalType": "address",
          "name": "spender",
          "type": "address"
        },
        {
          "internalType": "uint256",
          "name": "value",
          "type": "uint256"
        }
      ],
      "name": "approve",
      "outputs": [
        {
          "internalType": "bool",
          "name": "",
          "type": "bool"
        }
      ],
      "stateMutability": "nonpayable",
      "type": "function"
    },
    {
      "inputs": [
        {
          "internalType": "address",
          "name": "account",
          "type": "address"
        }
      ],
      "name": "balanceOf",
      "outputs": [
        {
          "internalType": "uint256",
          "name": "",
          "type": "uint256"
        }
      ],
      "stateMutability": "view",
      "type": "function"
    },
    {
      "inputs": [
        {
          "internalType": "uint256",
          "name": "amount",
          "type": "uint256"
        }
      ],
      "name": "burn",
      "outputs": [],
      "stateMutability": "nonpayable",
      "type": "function"
    },
    {
      "inputs": [],
      "name": "decimals",
      "outputs": [
        {
          "internalType": "uint8",
          "name": "",
          "type": "uint8"
        }
      ],
      "stateMutability": "view",
      "type": "function"
    },
    {
      "inputs": [
        {
          "internalType": "address",
          "name": "to",
          "type": "address"
        },
        {
          "internalType": "uint256",
          "name": "amount",
          "type": "uint256"
        }
      ],
      "name": "mint",
      "outputs": [],
      "stateMutability": "nonpayable",
      "type": "function"
    },
    {
      "inputs": [
        {
          "internalType": "address",
          "name": "",
          "type": "address"
        }
      ],
      "name": "minters",
      "outputs": [
        {
          "internalType": "bool",
          "name": "",
          "type": "bool"
        }
      ],
      "stateMutability": "view",
      "type": "function"
    },
    {
      "inputs": [],
      "name": "name",
      "outputs": [
        {
          "internalType": "string",
          "name": "",
          "type": "string"
        }
      ],
      "stateMutability": "view",
      "type": "function"
    },
    {
      "inputs": [],
      "name": "owner",
      "outputs": [
        {
          "internalType": "address",
          "name": "",
          "type": "address"
        }
      ],
      "stateMutability": "view",
      "type": "function"
    },
    {
      "inputs": [
        {
          "internalType": "address",
          "name": "minter",
          "type": "address"
        }
      ],
      "name": "removeMinter",
      "outputs": [],
      "stateMutability": "nonpayable",
      "type": "function"
    },
    {
      "inputs": [],
      "name": "renounceOwnership",
      "outputs": [],
      "stateMutability": "nonpayable",
      "type": "function"
    },
    {
      "inputs": [],
      "name": "symbol",
      "outputs": [
        {
          "internalType": "string",
          "name": "",
          "type": "string"
        }
      ],
      "stateMutability": "view",
      "type": "function"
    },
    {
      "inputs": [],
      "name": "totalSupply",
      "outputs": [
        {
          "internalType": "uint256",
          "name": "",
          "type": "uint256"
        }
      ],
      "stateMutability": "view",
      "type": "function"
    },
    {
      "inputs": [
        {
          "internalType": "address",
          "name": "to",
          "type": "address"
        },
        {
          "internalType": "uint256",
          "name": "value",
          "type": "uint256"
        }
      ],
      "name": "transfer",
      "outputs": [
        {
          "internalType": "bool",
          "name": "",
          "type": "bool"
        }
      ],
      "stateMutability": "nonpayable",
      "type": "function"
    },
    {
      "inputs": [
        {
          "internalType": "address",
          "name": "from",
          "type": "address"
        },
        {
          "internalType": "address",
          "name": "to",
          "type": "address"
        },
        {
          "internalType": "uint256",
          "name": "value",
          "type": "uint256"
        }
      ],
      "name": "transferFrom",
      "outputs": [
        {
          "internalType": "bool",
          "name": "",
          "type": "bool"
        }
      ],
      "stateMutability": "nonpayable",
      "type": "function"
    },
    {
      "inputs": [
        {
          "internalType": "address",
          "name": "newOwner",
          "type": "address"
        }
      ],
      "name": "transferOwnership",
      "outputs": [],
      "stateMutability": "nonpayable",
      "type": "function"
    }
  ],
  "bytecode": "0x608034620003db576040906001600160401b0381830181811183821017620002dd578352600b82526020906a2337b933b2902a37b5b2b760a91b8284015283519284840184811083821117620002dd57855260059182855264464f52474560d81b848601528151818111620002dd576003908154906001948583811c93168015620003d0575b88841014620003ba578190601f9384811162000366575b508890848311600114620002ff57600092620002f3575b505060001982851b1c191690851b1782555b8651928311620002dd5760049687548581811c91168015620002d2575b88821014620002bd5782811162000274575b50869184116001146200020957938394918492600095620001fd575b50501b92600019911b1c19161783555b3315620001e6578054336001600160a01b0319821681179092556001600160a01b03167f8be0079c531659141344cd1fd0a4f28419497f9722a3daafe3b4186f6b6457e0600080a36002546a084595161401484a00000092838201809211620001d157506000917fddf252ad1be2c89b69c2b068fc378daa952ba7f163c4a11628f55a4df523b3ef9160025533835282815284832084815401905584519384523393a351610b999081620003e18239f35b601190634e487b7160e01b6000525260246000fd5b8351631e4fbdf760e01b8152600081850152602490fd5b01519350388062000110565b9190601f198416928860005284886000209460005b8a898383106200025c575050501062000241575b50505050811b01835562000120565b01519060f884600019921b161c191690553880808062000232565b8686015189559097019694850194889350016200021e565b886000528760002083808701891c8201928a8810620002b3575b01881c019086905b828110620002a6575050620000f4565b6000815501869062000296565b925081926200028e565b602289634e487b7160e01b6000525260246000fd5b90607f1690620000e2565b634e487b7160e01b600052604160045260246000fd5b015190503880620000b3565b90879350601f19831691866000528a6000209260005b8c8282106200034f575050841162000336575b505050811b018255620000c5565b015160001983871b60f8161c1916905538808062000328565b8385015186558b9790950194938401930162000315565b9091508460005288600020848085018a1c8201928b8610620003b0575b91899186959493018b1c01915b828110620003a05750506200009c565b6000815585945089910162000390565b9250819262000383565b634e487b7160e01b600052602260045260246000fd5b92607f169262000085565b600080fdfe608060408181526004918236101561001657600080fd5b600092833560e01c91826306fdde03146108e457508163095ea7b31461083a57816318160ddd1461081b57816323b872dd146107275781633092afd5146106c1578163313ce567146106a557816332cb6b0c1461067f57816340c10f191461053657816342966c681461048157816370a082311461044a578163715018a6146103ea5781638da5cb5b146103c157816395d89b41146102a2578163983b2d5614610239578163a9059cbb14610208578163dd62ed3e146101bf578163f2fde38b1461012b575063f46eccc4146100eb57600080fd5b346101275760203660031901126101275760209160ff9082906001600160a01b03610114610a05565b1681526006855220541690519015158152f35b5080fd5b9050346101bb5760203660031901126101bb57610146610a05565b9061014f610a36565b6001600160a01b039182169283156101a5575050600554826bffffffffffffffffffffffff60a01b821617600555167f8be0079c531659141344cd1fd0a4f28419497f9722a3daafe3b4186f6b6457e08380a380f35b51631e4fbdf760e01b8152908101849052602490fd5b8280fd5b505034610127578060031936011261012757806020926101dd610a05565b6101e5610a20565b6001600160a01b0391821683526001865283832091168252845220549051908152f35b505034610127578060031936011261012757602090610232610228610a05565b6024359033610a62565b5160018152f35b50503461012757602036600319011261012757610254610a05565b61025c610a36565b6001600160a01b03168083526006602052908220805460ff191660011790557f6ae172837ea30b801fbfcdd4108aa1d5bf8ff775444fd70256b44e6bf3dfc3f68280a280f35b838334610127578160031936011261012757805190828454600181811c908083169283156103b7575b60209384841081146103a4578388529081156103885750600114610333575b505050829003601f01601f191682019267ffffffffffffffff841183851017610320575082918261031c9252826109bc565b0390f35b634e487b7160e01b815260418552602490fd5b8787529192508591837f8a35acfbc15ff81a39ae7d344fd709f28e8600b4aa8c65c6b64bfe7fe36bd19b5b83851061037457505050508301018580806102ea565b80548886018301529301928490820161035e565b60ff1916878501525050151560051b84010190508580806102ea565b634e487b7160e01b895260228a52602489fd5b91607f16916102cb565b50503461012757816003193601126101275760055490516001600160a01b039091168152602090f35b8334610447578060031936011261044757610403610a36565b600580546001600160a01b0319811690915581906001600160a01b03167f8be0079c531659141344cd1fd0a4f28419497f9722a3daafe3b4186f6b6457e08280a380f35b80fd5b5050346101275760203660031901126101275760209181906001600160a01b03610472610a05565b16815280845220549051908152f35b838334610127576020366003190112610127578235903315610520573383528260205280832054938285106104f557508183943385528460205203818420558160025403600255519081527fddf252ad1be2c89b69c2b068fc378daa952ba7f163c4a11628f55a4df523b3ef60203392a380f35b905163391434e360e21b81523391810191825260208201859052604082018390529081906060010390fd5b51634b637e8f60e11b8152808401839052602490fd5b919050346101bb57806003193601126101bb57610551610a05565b9060243591338552600660205260ff8286205416801561066b575b1561063b57600254906a52b7d2dcc80cd2e400000061058b8584610b40565b11610602576001600160a01b03169384156105eb5750827fddf252ad1be2c89b69c2b068fc378daa952ba7f163c4a11628f55a4df523b3ef926105d18795602094610b40565b60025585855284835280852082815401905551908152a380f35b825163ec442f0560e01b8152908101869052602490fd5b825162461bcd60e51b8152602081870152601360248201527213585e081cdd5c1c1b1e48195e18d959591959606a1b6044820152606490fd5b815162461bcd60e51b8152602081860152600a6024820152692737ba1036b4b73a32b960b11b6044820152606490fd5b506005546001600160a01b0316331461056c565b505034610127578160031936011261012757602090516a52b7d2dcc80cd2e40000008152f35b5050346101275781600319360112610127576020905160128152f35b505034610127576020366003190112610127576106dc610a05565b6106e4610a36565b6001600160a01b03168083526006602052908220805460ff191690557fe94479a9f7e1952cc78f2d6baab678adc1b772d936c6583def489e524cb666928280a280f35b9050823461044757606036600319011261044757610743610a05565b61074b610a20565b916044359360018060a01b038316808352600160205286832033845260205286832054916000198303610787575b602088610232898989610a62565b8683106107ef5781156107d85733156107c15750825260016020908152868320338452815291869020908590039055829061023287610779565b8751634a1406b160e11b8152908101849052602490fd5b875163e602df0560e01b8152908101849052602490fd5b8751637dc7a0d960e11b8152339181019182526020820193909352604081018790528291506060010390fd5b5050346101275781600319360112610127576020906002549051908152f35b9050346101bb57816003193601126101bb57610854610a05565b6024359033156108cd576001600160a01b03169182156108b657508083602095338152600187528181208582528752205582519081527f8c5be1e5ebec7d5bd14f71427d1e84f3dd0314c0f7b2291e5b200ac8c7c3b925843392a35160018152f35b8351634a1406b160e11b8152908101859052602490fd5b835163e602df0560e01b8152808401869052602490fd5b849084346101bb57826003193601126101bb5782600354600181811c908083169283156109b2575b60209384841081146103a457838852908115610388575060011461095c57505050829003601f01601f191682019267ffffffffffffffff841183851017610320575082918261031c9252826109bc565b600387529192508591837fc2575a0e9e593c00f959f8c92f12db2869c3395a3b0502d05e2516446f71f85b5b83851061099e57505050508301018580806102ea565b805488860183015293019284908201610988565b91607f169161090c565b6020808252825181830181905290939260005b8281106109f157505060409293506000838284010152601f8019910116010190565b8181018601518482016040015285016109cf565b600435906001600160a01b0382168203610a1b57565b600080fd5b602435906001600160a01b0382168203610a1b57565b6005546001600160a01b03163303610a4a57565b60405163118cdaa760e01b8152336004820152602490fd5b916001600160a01b03808416928315610b275716928315610b0e5760009083825281602052604082205490838210610adc575091604082827fddf252ad1be2c89b69c2b068fc378daa952ba7f163c4a11628f55a4df523b3ef958760209652828652038282205586815220818154019055604051908152a3565b60405163391434e360e21b81526001600160a01b03919091166004820152602481019190915260448101839052606490fd5b60405163ec442f0560e01b815260006004820152602490fd5b604051634b637e8f60e11b815260006004820152602490fd5b91908201809211610b4d57565b634e487b7160e01b600052601160045260246000fdfea26469706673582212206758ea37ab32a650addce0b7111a3080e16183520fb63d813f1460cd40b38af964736f6c63430008140033",
  "linkReferences": {},
  "deployedLinkReferences": {}
}