{
  "_format": "hh-sol-artifact-1",
  "contractName": "BattleArena",
  "sourceName": "contracts/BattleArena.sol",
  "abi": [
    {
      "inputs": [
        {
          "internalType": "address",
          "name": "_mechNFT",
          "type": "address"
        }
      ],
      "stateMutability": "nonpayable",
      "type": "constructor"
    },
    {
      "inputs": [],
      "name": "EnforcedPause",
      "type": "error"
    },
    {
      "inputs": [],
      "name": "ExpectedPause",
      "type": "error"
    },
    {
      "inputs": [
        {
          "internalType": "address",
          "name": "owner",
          "type": "address"
        }
      ],
      "name": "OwnableInvalidOwner",
      "type": "error"
    },
    {
      "inputs": [
        {
          "internalType": "address",
          "name": "account",
          "type": "address"
        }
      ],
      "name": "OwnableUnauthorizedAccount",
      "type": "error"
    },
    {
      "inputs": [],
      "name": "ReentrancyGuardReentrantCall",
      "type": "error"
    },
    {
      "anonymous": false,
      "inputs": [
        {
          "indexed": true,
          "internalType": "uint256",
          "name": "battleId",
          "type": "uint256"
        }
      ],
      "name": "BattleCancelled",
      "type": "event"
    },
    {
      "anonymous": false,
      "inputs": [
        {
          "indexed": true,
          "internalType": "uint256",
          "name": "battleId",
          "type": "uint256"
        },
        {
          "indexed": true,
          "internalType": "address",
          "name": "winner",
          "type": "address"
        },
        {
          "indexed": true,
          "internalType": "address",
          "name": "loser",
          "type": "address"
        },
        {
          "indexed": false,
          "internalType": "uint256",
          "name": "prizeAmount",
          "type": "uint256"
        }
      ],
      "name": "BattleCompleted",
      "type": "event"
    },
    {
      "anonymous": false,
      "inputs": [
        {
          "indexed": true,
          "internalType": "uint256",
          "name": "battleId",
          "type": "uint256"
        },
        {
          "indexed": true,
          "internalType": "address",
          "name": "challenger",
          "type": "address"
        },
        {
          "indexed": false,
          "internalType": "uint256",
          "name": "challengerMechId",
          "type": "uint256"
        },
        {
          "indexed": false,
          "internalType": "uint256",
          "name": "stakeAmount",
          "type": "uint256"
        }
      ],
      "name": "BattleCreated",
      "type": "event"
    },
    {
      "anonymous": false,
      "inputs": [
        {
          "indexed": true,
          "internalType": "uint256",
          "name": "battleId",
          "type": "uint256"
        },
        {
          "indexed": true,
          "internalType": "address",
          "name": "defender",
          "type": "address"
        },
        {
          "indexed": false,
          "internalType": "uint256",
          "name": "defenderMechId",
          "type": "uint256"
        }
      ],
      "name": "BattleJoined",
      "type": "event"
    },
    {
      "anonymous": false,
      "inputs": [
        {
          "indexed": true,
          "internalType": "address",
          "name": "previousOwner",
          "type": "address"
        },
        {
          "indexed": true,
          "internalType": "address",
          "name": "newOwner",
          "type": "address"
        }
      ],
      "name": "OwnershipTransferred",
      "type": "event"
    },
    {
      "anonymous": false,
      "inputs": [
        {
          "indexed": false,
          "internalType": "address",
          "name": "account",
          "type": "address"
        }
      ],
      "name": "Paused",
      "type": "event"
    },
    {
      "anonymous": false,
      "inputs": [
        {
          "indexed": false,
          "internalType": "address",
          "name": "account",
          "type": "address"
        }
      ],
      "name": "Unpaused",
      "type": "event"
    },
    {
      "inputs": [],
      "name": "MAX_ROUNDS",
      "outputs": [
        {
          "internalType": "uint256",
          "name": "",
          "type": "uint256"
        }
      ],
      "stateMutability": "view",
      "type": "function"
    },
    {
      "inputs": [
        {
          "internalType": "uint256",
          "name": "",
          "type": "uint256"
        }
      ],
      "name": "battles",
      "outputs": [
        {
          "internalType": "uint256",
          "name": "battleId",
          "type": "uint256"
        },
        {
          "internalType": "address",
          "name": "challenger",
          "type": "address"
        },
        {
          "internalType": "uint256",
          "name": "challengerMechId",
          "type": "uint256"
        },
        {
          "internalType": "address",
          "name": "defender",
          "type": "address"
        },
        {
          "internalType": "uint256",
          "name": "defenderMechId",
          "type": "uint256"
        },
        {
          "internalType": "uint256",
          "name": "stakeAmount",
          "type": "uint256"
        },
        {
          "internalType": "uint256",
          "name": "startTime",
          "type": "uint256"
        },
        {
          "internalType": "enum BattleArena.BattleStatus",
          "name": "status",
          "type": "uint8"
        },
        {
          "internalType": "address",
          "name": "winner",
          "type": "address"
        }
      ],
      "stateMutability": "view",
      "type": "function"
    },
    {
      "inputs": [
        {
          "internalType": "uint256",
          "name": "battleId",
          "type": "uint256"
        }
      ],
      "name": "cancelBattle",
      "outputs": [],
      "stateMutability": "nonpayable",
      "type": "function"
    },
    {
      "inputs": [
        {
          "internalType": "uint256",
          "name": "mechId",
          "type": "uint256"
        }
      ],
      "name": "createBattle",
      "outputs": [],
      "stateMutability": "payable",
      "type": "function"
    },
    {
      "inputs": [],
      "name": "getActiveBattlesCount",
      "outputs": [
        {
          "internalType": "uint256",
          "name": "",
          "type": "uint256"
        }
      ],
      "stateMutability": "view",
      "type": "function"
    },
    {
      "inputs": [
        {
          "internalType": "uint256",
          "name": "battleId",
          "type": "uint256"
        }
      ],
      "name": "getBattle",
      "outputs": [
        {
          "components": [
            {
              "internalType": "uint256",
              "name": "battleId",
              "type": "uint256"
            },
            {
              "internalType": "address",
              "name": "challenger",
              "type": "address"
            },
            {
              "internalType": "uint256",
              "name": "challengerMechId",
              "type": "uint256"
            },
            {
              "internalType": "address",
              "name": "defender",
              "type": "address"
            },
            {
              "internalType": "uint256",
              "name": "defenderMechId",
              "type": "uint256"
            },
            {
              "internalType": "uint256",
              "name": "stakeAmount",
              "type": "uint256"
            },
            {
              "internalType": "uint256",
              "name": "startTime",
              "type": "uint256"
            },
            {
              "internalType": "enum BattleArena.BattleStatus",
              "name": "status",
              "type": "uint8"
            },
            {
              "internalType": "address",
              "name": "winner",
              "type": "address"
            },
            {
              "internalType": "uint256[]",
              "name": "roundResults",
              "type": "uint256[]"
            }
          ],
          "internalType": "struct BattleArena.Battle",
          "name": "",
          "type": "tuple"
        }
      ],
      "stateMutability": "view",
      "type": "function"
    },
    {
      "inputs": [
        {
          "internalType": "uint256",
          "name": "mechId",
          "type": "uint256"
        }
      ],
      "name": "getBattleForMech",
      "outputs": [
        {
          "internalType": "uint256",
          "name": "",
          "type": "uint256"
        }
      ],
      "stateMutability": "view",
      "type": "function"
    },
    {
      "inputs": [
        {
          "internalType": "uint256",
          "name": "start",
          "type": "uint256"
        },
        {
          "internalType": "uint256",
          "name": "count",
          "type": "uint256"
        }
      ],
      "name": "getPendingBattles",
      "outputs": [
        {
          "components": [
            {
              "internalType": "uint256",
              "name": "battleId",
              "type": "uint256"
            },
            {
              "internalType": "address",
              "name": "challenger",
              "type": "address"
            },
            {
              "internalType": "uint256",
              "name": "challengerMechId",
              "type": "uint256"
            },
            {
              "internalType": "address",
              "name": "defender",
              "type": "address"
            },
            {
              "internalType": "uint256",
              "name": "defenderMechId",
              "type": "uint256"
            },
            {
              "internalType": "uint256",
              "name": "stakeAmount",
              "type": "uint256"
            },
            {
              "internalType": "uint256",
              "name": "startTime",
              "type": "uint256"
            },
            {
              "internalType": "enum BattleArena.BattleStatus",
              "name": "status",
              "type": "uint8"
            },
            {
              "internalType": "address",
              "name": "winner",
              "type": "address"
            },
            {
              "internalType": "uint256[]",
              "name": "roundResults",
              "type": "uint256[]"
            }
          ],
          "internalType": "struct BattleArena.Battle[]",
          "name": "",
          "type": "tuple[]"
        }
      ],
      "stateMutability": "view",
      "type": "function"
    },
    {
      "inputs": [
        {
          "internalType": "address",
          "name": "player",
          "type": "address"
        }
      ],
      "name": "getPlayerStats",
      "outputs": [
        {
          "internalType": "uint256",
          "name": "wins",
          "type": "uint256"
        },
        {
          "internalType": "uint256",
          "name": "losses",
          "type": "uint256"
        },
        {
          "internalType": "uint256",
          "name": "earnings",
          "type": "uint256"
        },
        {
          "internalType": "uint256",
          "name": "winRate",
          "type": "uint256"
        }
      ],
      "stateMutability": "view",
      "type": "function"
    },
    {
      "inputs": [
        {
          "internalType": "uint256",
          "name": "count",
          "type": "uint256"
        }
      ],
      "name": "getRecentBattles",
      "outputs": [
        {
          "components": [
            {
              "internalType": "uint256",
              "name": "battleId",
              "type": "uint256"
            },
            {
              "internalType": "address",
              "name": "challenger",
              "type": "address"
            },
            {
              "internalType": "uint256",
              "name": "challengerMechId",
              "type": "uint256"
            },
            {
              "internalType": "address",
              "name": "defender",
              "type": "address"
            },
            {
              "internalType": "uint256",
              "name": "defenderMechId",
              "type": "uint256"
            },
            {
              "internalType": "uint256",
              "name": "stakeAmount",
              "type": "uint256"
            },
            {
              "internalType": "uint256",
              "name": "startTime",
              "type": "uint256"
            },
            {
              "internalType": "enum BattleArena.BattleStatus",
              "name": "status",
              "type": "uint8"
            },
            {
              "internalType": "address",
              "name": "winner",
              "type": "address"
            },
            {
              "internalType": "uint256[]",
              "name": "roundResults",
              "type": "uint256[]"
            }
          ],
          "internalType": "struct BattleArena.Battle[]",
          "name": "",
          "type": "tuple[]"
        }
      ],
      "stateMutability": "view",
      "type": "function"
    },
    {
      "inputs": [
        {
          "internalType": "uint256",
          "name": "mechId",
          "type": "uint256"
        }
      ],
      "name": "isMechInBattle",
      "outputs": [
        {
          "internalType": "bool",
          "name": "",
          "type": "bool"
        }
      ],
      "stateMutability": "view",
      "type": "function"
    },
    {
      "inputs": [
        {
          "internalType": "uint256",
          "name": "battleId",
          "type": "uint256"
        },
        {
          "internalType": "uint256",
          "name": "mechId",
          "type": "uint256"
        }
      ],
      "name": "joinBattle",
      "outputs": [],
      "stateMutability": "payable",
      "type": "function"
    },
    {
      "inputs": [],
      "name": "maxStake",
      "outputs": [
        {
          "internalType": "uint256",
          "name": "",
          "type": "uint256"
        }
      ],
      "stateMutability": "view",
      "type": "function"
    },
    {
      "inputs": [],
      "name": "mechNFT",
      "outputs": [
        {
          "internalType": "contract IMechNFT",
          "name": "",
          "type": "address"
        }
      ],
      "stateMutability": "view",
      "type": "function"
    },
    {
      "inputs": [
        {
          "internalType": "uint256",
          "name": "",
          "type": "uint256"
        }
      ],
      "name": "mechToBattle",
      "outputs": [
        {
          "internalType": "uint256",
          "name": "",
          "type": "uint256"
        }
      ],
      "stateMutability": "view",
      "type": "function"
    },
    {
      "inputs": [],
      "name": "minStake",
      "outputs": [
        {
          "internalType": "uint256",
          "name": "",
          "type": "uint256"
        }
      ],
      "stateMutability": "view",
      "type": "function"
    },
    {
      "inputs": [],
      "name": "owner",
      "outputs": [
        {
          "internalType": "address",
          "name": "",
          "type": "address"
        }
      ],
      "stateMutability": "view",
      "type": "function"
    },
    {
      "inputs": [],
      "name": "pause",
      "outputs": [],
      "stateMutability": "nonpayable",
      "type": "function"
    },
    {
      "inputs": [],
      "name": "paused",
      "outputs": [
        {
          "internalType": "bool",
          "name": "",
          "type": "bool"
        }
      ],
      "stateMutability": "view",
      "type": "function"
    },
    {
      "inputs": [],
      "name": "platformFeePercent",
      "outputs": [
        {
          "internalType": "uint256",
          "name": "",
          "type": "uint256"
        }
      ],
      "stateMutability": "view",
      "type": "function"
    },
    {
      "inputs": [
        {
          "internalType": "address",
          "name": "",
          "type": "address"
        }
      ],
      "name": "playerLosses",
      "outputs": [
        {
          "internalType": "uint256",
          "name": "",
          "type": "uint256"
        }
      ],
      "stateMutability": "view",
      "type": "function"
    },
    {
      "inputs": [
        {
          "internalType": "address",
          "name": "",
          "type": "address"
        }
      ],
      "name": "playerTotalEarnings",
      "outputs": [
        {
          "internalType": "uint256",
          "name": "",
          "type": "uint256"
        }
      ],
      "stateMutability": "view",
      "type": "function"
    },
    {
      "inputs": [
        {
          "internalType": "address",
          "name": "",
          "type": "address"
        }
      ],
      "name": "playerWins",
      "outputs": [
        {
          "internalType": "uint256",
          "name": "",
          "type": "uint256"
        }
      ],
      "stateMutability": "view",
      "type": "function"
    },
    {
      "inputs": [],
      "name": "renounceOwnership",
      "outputs": [],
      "stateMutability": "nonpayable",
      "type": "function"
    },
    {
      "inputs": [
        {
          "internalType": "address",
          "name": "_mechNFT",
          "type": "address"
        }
      ],
      "name": "setMechNFT",
      "outputs": [],
      "stateMutability": "nonpayable",
      "type": "function"
    },
    {
      "inputs": [
        {
          "internalType": "uint256",
          "name": "newFee",
          "type": "uint256"
        }
      ],
      "name": "setPlatformFee",
      "outputs": [],
      "stateMutability": "nonpayable",
      "type": "function"
    },
    {
      "inputs": [
        {
          "internalType": "uint256",
          "name": "min",
          "type": "uint256"
        },
        {
          "internalType": "uint256",
          "name": "max",
          "type": "uint256"
        }
      ],
      "name": "setStakeLimits",
      "outputs": [],
      "stateMutability": "nonpayable",
      "type": "function"
    },
    {
      "inputs": [
        {
          "internalType": "address",
          "name": "newOwner",
          "type": "address"
        }
      ],
      "name": "transferOwnership",
      "outputs": [],
      "stateMutability": "nonpayable",
      "type": "function"
    },
    {
      "inputs": [],
      "name": "unpause",
      "outputs": [],
      "stateMutability": "nonpayable",
      "type": "function"
    },
    {
      "inputs": [],
      "name": "withdraw",
      "outputs": [],
      "stateMutability": "nonpayable",
      "type": "function"
    },
    {
      "stateMutability": "payable",
      "type": "receive"
    }
  ],
  "bytecode": "0x60803461010257601f61222c38819003918201601f19168301916001600160401b038311848410176101075780849260209460405283398101031261010257516001600160a01b039081811681036101025733156100e9576000543360018060a01b0319821617600055604051923391167f8be0079c531659141344cd1fd0a4f28419497f9722a3daafe3b4186f6b6457e0600080a3600180805560028054655af3107a4000600955670de0b6b3a7640000600a556005600b556001600160a81b03191660089390931b610100600160a81b03169290921790915560035561210e908161011e8239f35b604051631e4fbdf760e01b815260006004820152602490fd5b600080fd5b634e487b7160e01b600052604160045260246000fdfe6080604052600436101561001b575b361561001957600080fd5b005b600060e08135811c908163068a1e4914611a565781630ae6605d14610e3e57816312e8e2c3146119f757816316010ae1146119ca578163375b3c0a146119ac5781633b6806eb146118595781633ccfd60b146117e65781633f4ba83a1461177b57816341d355821461175f5781634c4c447e1461161b5781634fd66eae1461155b5781635c975abb14611538578163606d2e961461149f5781636dd0ce7a14611399578163715018a61461133f57816383d62069146113025781638456cb59146112a75781638b31fb891461126a5781638c639a851461124c5781638c9bd1b5146111ed5781638da5cb5b146111c657816394d44f1214610e68578163b647b17b14610e3e578163cc4bbb2714610c4257508063e44dba4f146102ec578063ea1b28e0146102ce578063efd3993814610279578063f2fde38b146101e3578063fb6b7cad146101b75763fedb848a14610174575061000e565b346101b45760203660031901126101b4576004356001600160a01b038116908190036101b0578160409160209352600783522054604051908152f35b5080fd5b80fd5b50346101b45760203660031901126101b457604060209160043581526005835220541515604051908152f35b50346101b45760203660031901126101b4576004356001600160a01b038181169182900361027557610213611c60565b811561025c57600054826bffffffffffffffffffffffff60a01b821617600055167f8be0079c531659141344cd1fd0a4f28419497f9722a3daafe3b4186f6b6457e0600080a380f35b604051631e4fbdf760e01b815260048101849052602490fd5b8280fd5b50346101b45760203660031901126101b4576004356001600160a01b03811681036101b0576102a6611c60565b60028054610100600160a81b03191660089290921b610100600160a81b031691909117905580f35b50346101b457806003193601126101b4576020600a54604051908152f35b506102f636611c45565b6102fe611f15565b610306611ef7565b81151580610c36575b61031890611f38565b6002546040516331a9108f60e11b81526004810183905260089190911c6001600160a01b031690602081602481855afa8015610c2b5761036a918691610bfc575b506001600160a01b03163314611d30565b8184526005602052610380604085205415611d6d565b82845260046020526040842090600782015460ff81166004811015610be8576103a99015611f78565b60018301546001600160a01b03163314610baa5760058301543403610b72576101806024926040519384809263a86c6d3360e01b82528860048301525afa8015610b4657610160610407916001948991610b51575b50015115611e5e565b60038301336bffffffffffffffffffffffff60a01b82541617905583600484015560ff19161760078201556006429101558083526005602052816040842055604051908152817fa47b02d2d7d744d434c03db59a4362b0fc7a74d04df715cc6200d66fd65df98960203393a3808252600460208190526040808420600280549082018054935163a86c6d3360e01b81529485019390935260081c6001600160a01b031693909161018084602481885afa938415610b46578694610b23575b506004830193610180855460246040518099819363a86c6d3360e01b835260048301525afa958615610b18578796610ae5575b5060a061051c61050e8351602085015190611fb9565b604084015160011c90611fb9565b91015180600a810204600a1481151715610ad15761057d91600a610541920290611fb9565b6064610576600a60405160208101904282528860408201528c60608201526060815261056c81611cd3565b5190200683611ee4565b0490611fb9565b9460a061059361050e8351602085015190611fb9565b91015180600a810204600a1481151715610ad1576105ba889792600a6105e6930290611fb9565b6064610576600a6040516020810190428252896040820152600160608201526060815261056c81611cd3565b8690879288905b6005821061097e575b505050106109555760018060a01b036001840154169360018060a01b036003850154169180549460058354915b600781018054610100600160a81b03191660088b901b610100600160a81b0316178155600260ff198254161790550154808060011b046002148115171561094157610683906064610679600b548360011b611ee4565b049060011b611fc6565b6001600160a01b038816895260066020526040892080549197916106a690611e9b565b90556001600160a01b038516895260076020526040892080546106c890611e9b565b90556001600160a01b038816895260086020526040892080546106ec908990611fb9565b9055600254899060081c6001600160a01b0316803b156101b057819060446040518094819363a92ae9e760e01b8352876004840152600160248401525af1801561093657610921575b506002548992919060081c6001600160a01b0316803b156108ea5783809160446040518094819363a92ae9e760e01b83528860048401528160248401525af190811561090257849161090d575b505060025460081c6001600160a01b0316803b156108ea5783809160446040518094819363953b6a9160e01b978884526004840152603260248401525af19081156109025784916108ee575b505060025460081c6001600160a01b031691823b156108ea576044849283604051958694859384526004840152601460248401525af180156108df576108c7575b50505486526005602052604080872087905590548652852085905584808080866001600160a01b0389165af1610843611fd3565b501561088a576040519283526001600160a01b039081169316917f421ba982635e0ddaf6b2f3153e1338640889b5dac9c483c7a07456fdb161b30390602090a46001805580f35b60405162461bcd60e51b8152602060048201526015602482015274141c9a5e99481d1c985b9cd9995c8819985a5b1959605a1b6044820152606490fd5b6108d090611cbf565b6108db57868861080f565b8680fd5b6040513d84823e3d90fd5b8380fd5b6108f790611cbf565b61027557828b6107ce565b6040513d86823e3d90fd5b61091690611cbf565b61027557828b610782565b61092e9099919299611cbf565b979089610735565b6040513d8c823e3d90fd5b634e487b7160e01b89526011600452602489fd5b60018060a01b036003840154169360018060a01b03600185015416918154946005825491610623565b90919796959493926040514260208201528660408201528360608201526080448183015281528060a081011067ffffffffffffffff60a083011117610a7b5760a08101604052602081519101206109e760326109dc81840686611fb9565b9260401c068b611fb9565b11610a8f576109f590611e9b565b916008870154600160401b811015610a7b57600181018060088a0155811015610a6757600190600889018c5260208c2001555b60038310801590610a5c575b610a4f57610a4190611e9b565b9097919293949596976105ed565b82939495969798506105f6565b506003841015610a34565b634e487b7160e01b8b52603260045260248bfd5b634e487b7160e01b8b52604160045260248bfd5b9192610a9a90611e9b565b926008870154600160401b811015610a7b57600181018060088a0155811015610a6757600290600889018c5260208c200155610a28565b634e487b7160e01b88526011600452602488fd5b610b0a9196506101803d61018011610b11575b610b028183611cef565b810190611db2565b94386104f8565b503d610af8565b6040513d89823e3d90fd5b610b3f9194506101803d61018011610b1157610b028183611cef565b92386104c5565b6040513d88823e3d90fd5b610b6c91506101803d61018011610b1157610b028183611cef565b386103fe565b60405162461bcd60e51b815260206004820152601060248201526f4d757374206d61746368207374616b6560801b6044820152606490fd5b60405162461bcd60e51b815260206004820152601660248201527521b0b73737ba103130ba3a3632903cb7bab939b2b63360511b6044820152606490fd5b634e487b7160e01b87526021600452602487fd5b610c1e915060203d602011610c24575b610c168183611cef565b810190611d11565b38610359565b503d610c0c565b6040513d87823e3d90fd5b5060035482111561030f565b9050346101b057610c5236611c45565b839193926001936003928354955b868110610df9575081811115610df15750925b610c7c8461205e565b938196801515600014610de9575b86811080610de0575b15610dce5780835260206004815260ff906007918083604088200154166004811015610be85715610cd0575b505050610ccb90611e9b565b610c8a565b83869b949b52600482526040862060405193610ceb85611c8c565b8154855260018201546001600160a01b0390811685870152600283015460408701528a8301548116606087015260048301546080870152600583015460a0870152600683015460c08701529082015492610d499084168a8701611ed8565b600892831c1661010085015201604051809280835492838152019288528088209188915b818310610db757505050509181610d8d610ccb9593610dae950382611cef565b610120820152610d9d828a6120ae565b52610da881896120ae565b50611e9b565b97903880610cbf565b835485529384019360019384019390920191610d6d565b60405180610ddc8882611be3565b0390f35b50818810610c93565b506001610c8a565b905092610c73565b808652600460205260ff6007604088200154166004811015610be85715610e29575b610e2490611e9b565b610c60565b91610e36610e2491611e9b565b929050610e1b565b82346101b45760203660031901126101b45760406020916004358152600583522054604051908152f35b905060203660031901126101b057610e7e611f15565b610e86611ef7565b6002546040516331a9108f60e11b8152600480359082015260089190911c6001600160a01b031690602081602481855afa801561090257610ed8918591610bfc57506001600160a01b03163314611d30565b60043583526005602052610ef0604084205415611d6d565b600954341015806111ba575b1561117e57604051809163a86c6d3360e01b825260043560048301528160246101809384935afa801561090257610f4292610160928692611161575b5050015115611e5e565b60035490610f4f82611e9b565b600355604051906020820182811067ffffffffffffffff8211176111395760405283825260405191610f8083611c8c565b838352336020808501918252600480356040808801918252606088018a8152608089018b81523460a08b019081524260c08c01908152998b018d81526101008c018e90526101208c01999099528b8d5295859052918b208951815595516001870180546001600160a01b03199081166001600160a01b0393841617909155935160028801559051600387018054909416911617909155518382015590516005830155925160068201559051909160078301919081101561114d5781546101008501516001600160a81b031990911660ff90921691909117600891821b610100600160a81b03161790915561012091019101519081519167ffffffffffffffff831161113957600160401b8311611139578154838355808410611113575b5060200190845260208420845b8381106110ff578585600435825260056020528060408320556040519060043582523460208301527faaaf7877a566d2da8915c533d92ec10980e1cf937137ea20a9873bef06651c8c60403393a36001805580f35b6001906020845194019381840155016110aa565b828652836020872091820191015b81811061112e575061109d565b868155600101611121565b634e487b7160e01b85526041600452602485fd5b634e487b7160e01b86526021600452602486fd5b6111779250803d10610b1157610b028183611cef565b3880610f38565b60405162461bcd60e51b8152602060048201526014602482015273125b9d985b1a59081cdd185ad948185b5bdd5b9d60621b6044820152606490fd5b50600a54341115610efc565b82346101b457806003193601126101b457546040516001600160a01b039091168152602090f35b82346101b4576111fc36611c45565b90611205611c60565b8181101561121657600955600a5580f35b60405162461bcd60e51b815260206004820152600e60248201526d496e76616c6964206c696d69747360901b6044820152606490fd5b82346101b457806003193601126101b4576020600b54604051908152f35b82346101b45760203660031901126101b4576004356001600160a01b038116908190036101b0578160409160209352600683522054604051908152f35b82346101b457806003193601126101b4576112c0611c60565b6112c8611ef7565b600160ff1960025416176002557f62e78cea01bee320cd4e420270b5ea74000d11b0c9f74754ebdbfc544b05a2586020604051338152a180f35b82346101b45760203660031901126101b4576004356001600160a01b038116908190036101b0578160409160209352600883522054604051908152f35b82346101b457806003193601126101b457611358611c60565b80546001600160a01b03198116825581906001600160a01b03167f8be0079c531659141344cd1fd0a4f28419497f9722a3daafe3b4186f6b6457e08280a380f35b82346101b457602090816003193601126101b4576113b5612013565b5060043581526004825260408120926008604051946113d386611c8c565b8054865260018060a01b03600193818584015416878901526002830154604089015281600384015416606089015260048301546080890152600583015460a0890152600683015460c089015261143460078401549160ff8316908a01611ed8565b831c16610100870152019060405191829384928683549586815201928252868220915b87868210611489575050505061146f92500382611cef565b610120830152610ddc604051928284938452830190611b30565b8354855287955090930192918101918101611457565b9050346101b05760203660031901126101b05760406101209260043581526004602052209081549161152c60018060a01b0392836001840154169260028101548560038301541660048301549060058401549260076006860154950154976040519a8b5260208b015260408a01526060890152608088015260a087015260c0860152840160ff8316611b0d565b60081c16610100820152f35b82346101b457806003193601126101b457602060ff600254166040519015158152f35b82346101b45760203660031901126101b4576004356001600160a01b038116908190036101b05781526006602052604081205460076020526040822054600860205260408320546115ac8284611fb9565b801580611610576064850290858204606414861517156115fc576115e8576080955004915b604051938452602084015260408301526060820152f35b634e487b7160e01b86526012600452602486fd5b634e487b7160e01b87526011600452602487fd5b5050608093916115d1565b82346101b45760203660031901126101b457600435611638611f15565b80151580611753575b61164a90611f38565b80825260046020526040822060018101546001600160a01b0316330361171d5760078101805460ff8116600481101561114d5760058694859460038695611692879615611f78565b60ff191617905560028101548352816020528260408120550154335af16116b7611fd3565b50156116e8577fe10fd8c156678d18df7daf6dd3e15b95c6d350ee99272630fcad6dde9bef0d0c8280a26001805580f35b60405162461bcd60e51b815260206004820152600d60248201526c1499599d5b990819985a5b1959609a1b6044820152606490fd5b60405162461bcd60e51b815260206004820152600e60248201526d2737ba1031b430b63632b733b2b960911b6044820152606490fd5b50600354811115611641565b82346101b457806003193601126101b457602060405160058152f35b82346101b457806003193601126101b457611794611c60565b60025460ff8116156117d45760ff19166002557f5db9ee0a495bf2e6ff9c91a7834c1ba4fdd244a5e8aa4e537bd38aeae4b073aa6020604051338152a180f35b604051638dfc202b60e01b8152600490fd5b82346101b457806003193601126101b4576117ff611c60565b8080808060018060a01b0381541647905af1611819611fd3565b50156118225780f35b60405162461bcd60e51b815260206004820152600f60248201526e15da5d1a191c985dc819985a5b1959608a1b6044820152606490fd5b9050346101b057602080600319360112610275576004359160039182549360001985019485116119985784811115611992575083925b6118988461205e565b94865b8581106118b05760405180610ddc8982611be3565b806118bc859284611fc6565b89526004825260408920604051906118d382611c8c565b805482526001808201546001600160a01b039081168685015260028301546040850152878301548116606085015260048301546080850152600583015460a0850152600683015460c0850152600783015491929061193660ff84168c8701611ed8565b600892831c16610100850152018b6040518093878454928381520193835287832092915b80831061197b5750505050611976945081610d8d910382611cef565b61189b565b835485528b9890940193928101929181019161195a565b9261188f565b634e487b7160e01b86526011600452602486fd5b82346101b457806003193601126101b4576020600954604051908152f35b82346101b457806003193601126101b45760025460405160089190911c6001600160a01b03168152602090f35b82346101b45760203660031901126101b457600435611a14611c60565b60148111611a2257600b5580f35b60405162461bcd60e51b815260206004820152600c60248201526b08ccaca40e8dede40d0d2ced60a31b6044820152606490fd5b82346101b457806003193601126101b45780600180600354915b828110611a8257602084604051908152f35b80855260206004815260ff6007818160408a200154166004811015611af95715928315611ad5575b505050611ac0575b611abb90611e9b565b611a70565b92611acd611abb91611e9b565b939050611ab2565b6004919293508489525260408720015416600481101561114d578214868080611aaa565b634e487b7160e01b89526021600452602489fd5b906004821015611b1a5752565b634e487b7160e01b600052602160045260246000fd5b9061014090818101908351815261016060018060a01b0391602094838694858901511685840152604088015160408401528060608901511660608401526080880151608084015260a088015160a084015260c088015160c0840152611b9d60e089015160e0850190611b0d565b61010090818901511690830152610120809701519682015285518094520193019160005b828110611bcf575050505090565b835185529381019392810192600101611bc1565b602080820190808352835180925260408301928160408460051b8301019501936000915b848310611c175750505050505090565b9091929394958480611c35600193603f198682030187528a51611b30565b9801930193019194939290611c07565b6040906003190112611c5b576004359060243590565b600080fd5b6000546001600160a01b03163303611c7457565b60405163118cdaa760e01b8152336004820152602490fd5b610140810190811067ffffffffffffffff821117611ca957604052565b634e487b7160e01b600052604160045260246000fd5b67ffffffffffffffff8111611ca957604052565b6080810190811067ffffffffffffffff821117611ca957604052565b90601f8019910116810190811067ffffffffffffffff821117611ca957604052565b90816020910312611c5b57516001600160a01b0381168103611c5b5790565b15611d3757565b60405162461bcd60e51b815260206004820152600e60248201526d2737ba1036b2b1b41037bbb732b960911b6044820152606490fd5b15611d7457565b60405162461bcd60e51b81526020600482015260166024820152754d65636820616c726561647920696e20626174746c6560501b6044820152606490fd5b80916101809283910312611c5b5760405191820182811067ffffffffffffffff821117611ca957604052805182526020810151602083015260408101516040830152606081015160608301526080810151608083015260a081015160a083015260c081015160c083015260e081015160e083015261010080820151908301526101208082015190830152610140808201519083015261016080910151908115158203611c5b5782015290565b15611e6557565b60405162461bcd60e51b815260206004820152600e60248201526d135958da081a5cc81cdd185ad95960921b6044820152606490fd5b6000198114611eaa5760010190565b634e487b7160e01b600052601160045260246000fd5b67ffffffffffffffff8111611ca95760051b60200190565b6004821015611b1a5752565b81810292918115918404141715611eaa57565b60ff60025416611f0357565b60405163d93c066560e01b8152600490fd5b600260015414611f26576002600155565b604051633ee5aeb560e01b8152600490fd5b15611f3f57565b60405162461bcd60e51b8152602060048201526011602482015270125b9d985b1a590818985d1d1b19481251607a1b6044820152606490fd5b15611f7f57565b60405162461bcd60e51b8152602060048201526012602482015271426174746c65206e6f742070656e64696e6760701b6044820152606490fd5b91908201809211611eaa57565b91908203918211611eaa57565b3d1561200e573d9067ffffffffffffffff8211611ca95760405191612002601f8201601f191660200184611cef565b82523d6000602084013e565b606090565b6040519061202082611c8c565b606061012083600080825280602083015280604083015280848301528060808301528060a08301528060c08301528060e08301526101008201520152565b9061206882611ec0565b6120756040519182611cef565b8281528092612086601f1991611ec0565b019060005b82811061209757505050565b6020906120a2612013565b8282850101520161208b565b80518210156120c25760209160051b010190565b634e487b7160e01b600052603260045260246000fdfea26469706673582212200399e47ad8b668cbcb63edc27bf66c1f7a0c13f1db6a376b8f9724b751ff4df364736f6c63430008140033",
  "linkReferences": {},
  "deployedLinkReferences": {}
}