{"contracts/StakingRewards.sol":{"StakingRewards":{"abi":[{"inputs":[{"internalType":"address","name":"_mechNFT","type":"address"},{"internalType":"address","name":"_rewardToken","type":"address"}],"stateMutability":"nonpayable","type":"constructor"},{"inputs":[],"name":"EnforcedPause","type":"error"},{"inputs":[],"name":"ExpectedPause","type":"error"},{"inputs":[{"internalType":"address","name":"owner","type":"address"}],"name":"OwnableInvalidOwner","type":"error"},{"inputs":[{"internalType":"address","name":"account","type":"address"}],"name":"OwnableUnauthorizedAccount","type":"error"},{"inputs":[],"name":"ReentrancyGuardReentrantCall","type":"error"},{"anonymous":false,"inputs":[{"indexed":true,"internalType":"address","name":"previousOwner","type":"address"},{"indexed":true,"internalType":"address","name":"newOwner","type":"address"}],"name":"OwnershipTransferred","type":"event"},{"anonymous":false,"inputs":[{"indexed":false,"internalType":"address","name":"account","type":"address"}],"name":"Paused","type":"event"},{"anonymous":false,"inputs":[{"indexed":false,"internalType":"uint256","name":"newRate","type":"uint256"}],"name":"RewardRateUpdated","type":"event"},{"anonymous":false,"inputs":[{"indexed":true,"internalType":"address","name":"user","type":"address"},{"indexed":true,"internalType":"uint256","name":"mechId","type":"uint256"},{"indexed":false,"internalType":"uint256","name":"amount","type":"uint256"}],"name":"RewardsClaimed","type":"event"},{"anonymous":false,"inputs":[{"indexed":true,"internalType":"address","name":"user","type":"address"},{"indexed":true,"internalType":"uint256","name":"mechId","type":"uint256"},{"indexed":false,"internalType":"uint256","name":"timestamp","type":"uint256"}],"name":"Staked","type":"event"},{"anonymous":false,"inputs":[{"indexed":false,"internalType":"address","name":"account","type":"address"}],"name":"Unpaused","type":"event"},{"anonymous":false,"inputs":[{"indexed":true,"internalType":"address","name":"user","type":"address"},{"indexed":true,"internalType":"uint256","name":"mechId","type":"uint256"},{"indexed":false,"internalType":"uint256","name":"timestamp","type":"uint256"},{"indexed":false,"internalType":"uint256","name":"rewards","type":"uint256"}],"name":"Unstaked","type":"event"},{"inputs":[],"name":"REWARD_PRECISION","outputs":[{"internalType":"uint256","name":"","type":"uint256"}],"stateMutability":"view","type":"function"},{"inputs":[],"name":"SECONDS_PER_DAY","outputs":[{"internalType":"uint256","name":"","type":"uint256"}],"stateMutability":"view","type":"function"},{"inputs":[],"name":"baseRewardRate","outputs":[{"internalType":"uint256","name":"","type":"uint256"}],"stateMutability":"view","type":"function"},{"inputs":[{"internalType":"uint256","name":"mechId","type":"uint256"}],"name":"calculateMechAPR","outputs":[{"internalType":"uint256","name":"","type":"uint256"}],"stateMutability":"view","type":"function"},{"inputs":[{"internalType":"uint256","name":"mechId","type":"uint256"}],"name":"calculatePendingRewards","outputs":[{"internalType":"uint256","name":"","type":"uint256"}],"stateMutability":"view","type":"function"},{"inputs":[{"internalType":"address","name":"user","type":"address"}],"name":"calculateTotalPendingRewards","outputs":[{"internalType":"uint256","name":"","type":"uint256"}],"stateMutability":"view","type":"function"},{"inputs":[{"internalType":"uint256","name":"mechId","type":"uint256"}],"name":"claimRewards","outputs":[],"stateMutability":"nonpayable","type":"function"},{"inputs":[{"internalType":"uint256[]","name":"mechIds","type":"uint256[]"}],"name":"claimRewardsBatch","outputs":[],"stateMutability":"nonpayable","type":"function"},{"inputs":[{"internalType":"uint256","name":"amount","type":"uint256"}],"name":"depositRewards","outputs":[],"stateMutability":"nonpayable","type":"function"},{"inputs":[],"name":"emergencyUnlock","outputs":[{"internalType":"bool","name":"","type":"bool"}],"stateMutability":"view","type":"function"},{"inputs":[{"internalType":"uint256","name":"mechId","type":"uint256"}],"name":"emergencyUnstake","outputs":[],"stateMutability":"nonpayable","type":"function"},{"inputs":[{"internalType":"uint256","name":"mechId","type":"uint256"}],"name":"getStakeInfo","outputs":[{"components":[{"internalType":"uint256","name":"mechId","type":"uint256"},{"internalType":"address","name":"owner","type":"address"},{"internalType":"uint256","name":"stakedAt","type":"uint256"},{"internalType":"uint256","name":"lastClaimTime","type":"uint256"},{"internalType":"uint256","name":"accumulatedRewards","type":"uint256"},{"internalType":"bool","name":"active","type":"bool"}],"internalType":"struct StakingRewards.StakeInfo","name":"","type":"tuple"}],"stateMutability":"view","type":"function"},{"inputs":[{"internalType":"address","name":"user","type":"address"}],"name":"getUserStakes","outputs":[{"internalType":"uint256[]","name":"","type":"uint256[]"}],"stateMutability":"view","type":"function"},{"inputs":[{"internalType":"address","name":"user","type":"address"}],"name":"getUserStakingDetails","outputs":[{"internalType":"uint256[]","name":"mechIds","type":"uint256[]"},{"internalType":"uint256[]","name":"pendingRewards","type":"uint256[]"},{"internalType":"uint256[]","name":"stakedTimes","type":"uint256[]"}],"stateMutability":"view","type":"function"},{"inputs":[{"internalType":"uint256","name":"mechId","type":"uint256"}],"name":"isStaked","outputs":[{"internalType":"bool","name":"","type":"bool"}],"stateMutability":"view","type":"function"},{"inputs":[],"name":"mechNFT","outputs":[{"internalType":"contract IMechNFT","name":"","type":"address"}],"stateMutability":"view","type":"function"},{"inputs":[{"internalType":"uint256","name":"","type":"uint256"}],"name":"mechStakeIndex","outputs":[{"internalType":"uint256","name":"","type":"uint256"}],"stateMutability":"view","type":"function"},{"inputs":[],"name":"owner","outputs":[{"internalType":"address","name":"","type":"address"}],"stateMutability":"view","type":"function"},{"inputs":[],"name":"pause","outputs":[],"stateMutability":"nonpayable","type":"function"},{"inputs":[],"name":"paused","outputs":[{"internalType":"bool","name":"","type":"bool"}],"stateMutability":"view","type":"function"},{"inputs":[{"internalType":"uint256","name":"","type":"uint256"}],"name":"rarityMultiplier","outputs":[{"internalType":"uint256","name":"","type":"uint256"}],"stateMutability":"view","type":"function"},{"inputs":[],"name":"renounceOwnership","outputs":[],"stateMutability":"nonpayable","type":"function"},{"inputs":[],"name":"rewardToken","outputs":[{"internalType":"contract IERC20","name":"","type":"address"}],"stateMutability":"view","type":"function"},{"inputs":[{"internalType":"uint256","name":"newRate","type":"uint256"}],"name":"setBaseRewardRate","outputs":[],"stateMutability":"nonpayable","type":"function"},{"inputs":[{"internalType":"bool","name":"enabled","type":"bool"}],"name":"setEmergencyUnlock","outputs":[],"stateMutability":"nonpayable","type":"function"},{"inputs":[{"internalType":"address","name":"_mechNFT","type":"address"}],"name":"setMechNFT","outputs":[],"stateMutability":"nonpayable","type":"function"},{"inputs":[{"internalType":"uint256","name":"rarity","type":"uint256"},{"internalType":"uint256","name":"multiplier","type":"uint256"}],"name":"setRarityMultiplier","outputs":[],"stateMutability":"nonpayable","type":"function"},{"inputs":[{"internalType":"address","name":"_rewardToken","type":"address"}],"name":"setRewardToken","outputs":[],"stateMutability":"nonpayable","type":"function"},{"inputs":[{"internalType":"uint256","name":"mechId","type":"uint256"}],"name":"stake","outputs":[],"stateMutability":"nonpayable","type":"function"},{"inputs":[{"internalType":"uint256","name":"","type":"uint256"}],"name":"stakes","outputs":[{"internalType":"uint256","name":"mechId","type":"uint256"},{"internalType":"address","name":"owner","type":"address"},{"internalType":"uint256","name":"stakedAt","type":"uint256"},{"internalType":"uint256","name":"lastClaimTime","type":"uint256"},{"internalType":"uint256","name":"accumulatedRewards","type":"uint256"},{"internalType":"bool","name":"active","type":"bool"}],"stateMutability":"view","type":"function"},{"inputs":[],"name":"totalRewardsDistributed","outputs":[{"internalType":"uint256","name":"","type":"uint256"}],"stateMutability":"view","type":"function"},{"inputs":[],"name":"totalStaked","outputs":[{"internalType":"uint256","name":"","type":"uint256"}],"stateMutability":"view","type":"function"},{"inputs":[{"internalType":"address","name":"newOwner","type":"address"}],"name":"transferOwnership","outputs":[],"stateMutability":"nonpayable","type":"function"},{"inputs":[],"name":"unpause","outputs":[],"stateMutability":"nonpayable","type":"function"},{"inputs":[{"internalType":"uint256","name":"mechId","type":"uint256"}],"name":"unstake","outputs":[],"stateMutability":"nonpayable","type":"function"},{"inputs":[{"internalType":"uint256[]","name":"mechIds","type":"uint256[]"}],"name":"unstakeBatch","outputs":[],"stateMutability":"nonpayable","type":"function"},{"inputs":[{"internalType":"address","name":"","type":"address"},{"internalType":"uint256","name":"","type":"uint256"}],"name":"userStakes","outputs":[{"internalType":"uint256","name":"","type":"uint256"}],"stateMutability":"view","type":"function"},{"inputs":[{"internalType":"uint256","name":"amount","type":"uint256"}],"name":"withdrawRewards","outputs":[],"stateMutability":"nonpayable","type":"function"},{"stateMutability":"payable","type":"receive"}],"evm":{"bytecode":{"linkReferences":{},"object":"60803462000144576200205f601f38829003908101601f19168301906001600160401b0382118483101762000149578084916040948594855283398101031262000144576200005c602062000054846200015f565b93016200015f565b33156200012c5760008054336001600160a01b03198083168217845585519661012c969591936001600160a01b03939084167f8be0079c531659141344cd1fd0a4f28419497f9722a3daafe3b4186f6b6457e08780a36001805560025490678ac7230489e80000600755610100600160a81b039060081b169060018060a81b031916176002551690600354161760035560018152600860205260648282205560028152607d82822055600381526096828220556004815260c882822055600581522055611eea9081620001758239f35b8151631e4fbdf760e01b815260006004820152602490fd5b600080fd5b634e487b7160e01b600052604160045260246000fd5b51906001600160a01b0382168203620001445756fe6080604090808252600480361015610022575b505050361561002057600080fd5b005b600091823560e01c908163012ce501146114045750806303237a04146113515780630962ef79146111b957806309813482146110eb57806316010ae1146110be5780632e17de78146110575780632f38e042146110215780633d6aa5e114610ffe5780633f4ba83a14610f935780633fc846de14610f6a5780634303223c14610f495780635c975abb14610f25578063646e6f8b14610d90578063715018a614610d3657806374f0314f14610d18578063817b1cd214610cf9578063842e298114610c735780638456cb5914610c185780638aee812714610bd85780638bdf67f214610b035780638da5cb5b14610adb5780639342c8f4146109f6578063a694fc3a14610718578063afbf3440146106f9578063b5d5b5fa146106a3578063b6ed7d621461067b578063baa51f861461064b578063c42f5760146105cc578063cc85df7e146105a3578063d5a44f861461053a578063e64a21f314610492578063ee17254614610473578063efd3993814610426578063f0a9abe7146103d7578063f2c39992146103b3578063f2fde38b14610326578063f7c618c1146102fd5763f93f3b630361001257346102f9576020806003193601126102f5576001600160a01b036101ef6115ba565b16835260058152838320918451808484829654938481520190875284872092875b868282106102df57505050610227925003846116f6565b825161023281611d34565b9461023c82611d34565b9261024683611d34565b95825b84811061028f576102718961028b8c8b61027e8c8c8451978897606089526060890190611622565b9187830390880152611622565b9184830390850152611622565b0390f35b8061029d6102da9284611d08565b51806102a9838d611d08565b526102b381611b92565b6102bd838a611d08565b52855283885260028b862001546102d4828b611d08565b52611718565b610249565b8554845260019586019589955093019201610210565b8280fd5b5080fd5b8284346102f957816003193601126102f95760035490516001600160a01b039091168152602090f35b508290346102f55760203660031901126102f5576103426115ba565b9061034b611684565b6001600160a01b0391821692831561039d575050600054826001600160601b0360a01b821617600055167f8be0079c531659141344cd1fd0a4f28419497f9722a3daafe3b4186f6b6457e0600080a380f35b51631e4fbdf760e01b8152908101849052602490fd5b8284346102f957816003193601126102f95760209060ff600b541690519015158152f35b508290346102f55760203660031901126102f5577f41d466ebd06fb97e7786086ac8b69b7eb7da798592036251291d34e9791cde0191602091359061041a611684565b8160075551908152a180f35b8234610470576020366003190112610470576104406115ba565b610448611684565b60028054610100600160a81b03191660089290921b610100600160a81b031691909117905580f35b80fd5b8284346102f957816003193601126102f957602090600a549051908152f35b508290346102f5576104a3366115d5565b916104ac61175b565b845b8381106104bd57856001805580f35b806104cc6104f19286866117f5565b35875260208381528360ff6005898b20015416918261050f575b50506104f657611718565b6104ae565b61050a6105048287876117f5565b356118b1565b611718565b90915061051d8388886117f5565b35895252858720600101546001600160a01b0316331483896104e6565b5082346102f55760203660031901126102f5578060c09383358152836020522080549260018060a01b036001830154169260028301549060ff600560038601549486015495015416948151968752602087015285015260608401526080830152151560a0820152f35b508290346102f55760203660031901126102f55760209282913581526006845220549051908152f35b508290346102f557816003193601126102f5578035906105ea611684565b600182101580610640575b1561060c5750825260086020526024359082205580f35b606490602084519162461bcd60e51b8352820152600e60248201526d496e76616c69642072617269747960901b6044820152fd5b5060058211156105f5565b508290346102f55760203660031901126102f5576005826020948360ff9435825286522001541690519015158152f35b50919034610470576020366003190112610470575061069c60209235611b92565b9051908152f35b8284346102f957806003193601126102f9576106bd6115ba565b6001600160a01b0316825260056020528082208054602435939084101561047057506020926106eb91611656565b91905490519160031b1c8152f35b8284346102f957816003193601126102f9576020906007549051908152f35b5082346102f5576020806003193601126109f25782359161073761175b565b61073f61173d565b60025481516331a9108f60e11b81528581018590526001600160a01b0360089290921c82169591602491858184818b5afa9081156109e85789916109ae575b50813391160361097c5785885282855260ff6005858a2001541661094a57863b1561093c57878451635390271560e01b8152878582015281816044818360019d8e8a8401525af18015610940579089939291610923575b509087876005938851936107e8856116da565b838552828501903382528a808701934285528b606089019642885260808a0198838a5260a08b019c8d5283525220955186558d86019151166001600160601b0360a01b8254161790555160028401555160038301555185820155019051151560ff801983541691161790553387526005845282872080549068010000000000000000821015610911576108848288928a61089d95018155611656565b90919082549060031b91821b91600019901b1916179055565b3387526005845282872054600019810192908311610900575050907f1449c6dd7851abc30abf37f57715f492010519147cc2652fbc38202c18a6ee909184875260068452818720556108f0600954611718565b60095551914283523392a3805580f35b634e487b7160e01b88526011905286fd5b634e487b7160e01b8952604184528289fd5b61092f919293506116b0565b61093c578690888a6107d5565b8780fd5b86513d84823e3d90fd5b50606493600e9293519362461bcd60e51b85528401528201526d105b1c9958591e481cdd185ad95960921b6044820152fd5b50606493600e9293519362461bcd60e51b85528401528201526d2737ba1036b2b1b41037bbb732b960911b6044820152fd5b90508581813d83116109e1575b6109c581836116f6565b810103126109dd575181811681036109dd578961077e565b8880fd5b503d6109bb565b85513d8b823e3d90fd5b8380fd5b5082346102f557602090816003193601126109f257610a13611684565b600354815163a9059cbb60e01b815233858201908152853560208201529091849183916001600160a01b03169082908990829060400103925af1908115610ad1578591610a98575b5015610a65578380f35b5162461bcd60e51b815291820152600f60248201526e15da5d1a191c985dc819985a5b1959608a1b604482015260649150fd5b90508281813d8311610aca575b610aaf81836116f6565b81010312610ac657610ac09061185f565b85610a5b565b8480fd5b503d610aa5565b82513d87823e3d90fd5b8284346102f957816003193601126102f957905490516001600160a01b039091168152602090f35b5082346102f557602090816003193601126109f257610b20611684565b60035481516323b872dd60e01b81523385820152306024820152843560448201529083908290606490829089906001600160a01b03165af1908115610ad1578591610ba3575b5015610b70578380f35b5162461bcd60e51b815291820152600f60248201526e151c985b9cd9995c8819985a5b1959608a1b604482015260649150fd5b90508281813d8311610bd1575b610bba81836116f6565b81010312610ac657610bcb9061185f565b85610b66565b503d610bb0565b823461047057602036600319011261047057610bf26115ba565b610bfa611684565b60018060a01b03166001600160601b0360a01b600354161760035580f35b8284346102f957816003193601126102f95760207f62e78cea01bee320cd4e420270b5ea74000d11b0c9f74754ebdbfc544b05a25891610c56611684565b610c5e61173d565b600160ff19600254161760025551338152a180f35b8284346102f957602090816003193601126102f5576001600160a01b03610c986115ba565b16835260058252808320815190819485928583549182815201928252858220915b86828210610ce257859061028b88610cd3848903856116f6565b51928284938452830190611622565b835485528895509093019260019283019201610cb9565b8284346102f957816003193601126102f9576020906009549051908152f35b8284346102f957816003193601126102f95760209051620151808152f35b8234610470578060031936011261047057610d4f611684565b600080546001600160a01b0319811682556001600160a01b03167f8be0079c531659141344cd1fd0a4f28419497f9722a3daafe3b4186f6b6457e08280a380f35b5082346102f557610da0366115d5565b9290610daa61175b565b8493855b818110610e7e5750505082610dc6575b836001805580f35b82602091610dd9610e1695600a54611805565b600a55600354845163a9059cbb60e01b8152339281019283526020830193909352919485926001600160a01b031691839188918391604090910190565b03925af1908115610e7557508290610e3b575b610e33915061186c565b818080610dbe565b506020813d8211610e6d575b81610e54602093836116f6565b810103126102f957610e68610e339161185f565b610e29565b3d9150610e47565b513d84823e3d90fd5b610e898183856117f5565b3580885260209085825286892060ff60058201541680610f0f575b610eba575b505050610eb590611718565b610dae565b610ec382611b92565b908a82610ed2575b5050610ea9565b82610eb596959b83610efc938c600080516020611e75833981519152960155600342910155611805565b9989519283523392a3908880808a610ecb565b5060018101546001600160a01b03163314610ea4565b8284346102f957816003193601126102f95760209060ff6002541690519015158152f35b50919034610470576020366003190112610470575061069c60209235611d66565b508290346102f55760203660031901126102f55760209282913581526008845220549051908152f35b508290346102f557826003193601126102f557610fae611684565b6002549060ff821615610ff0575060ff1916600255513381527f5db9ee0a495bf2e6ff9c91a7834c1ba4fdd244a5e8aa4e537bd38aeae4b073aa90602090a180f35b8251638dfc202b60e01b8152fd5b8284346102f957816003193601126102f95760209051670de0b6b3a76400008152f35b50346102f95760203660031901126102f957358015158091036102f957611046611684565b60ff8019600b5416911617600b5580f35b508290346102f55760203660031901126102f5576110b26110b79282359261107d61175b565b8386528060205261109660ff600584892001541661177e565b8386526020528420600101546001600160a01b031633146117b7565b6118b1565b6001805580f35b8284346102f957816003193601126102f957600254905160089190911c6001600160a01b03168152602090f35b508290346102f55760203660031901126102f557818360c09460a08351611111816116da565b82815282602082015282858201528260608201528260808201520152823581528260205220825191611142836116da565b81549384845260018060a01b0380600185015416906020860191825260028501549183870192835260a060ff600560038901549760608b019889528901549860808b01998a5201541697019615158752835197885251166020870152519085015251606084015251608083015251151560a0820152f35b508290346102f5576020806003193601126109f2578135926111d961175b565b8385528282526111f160ff600583882001541661177e565b838552828252808520600101546001600160a01b03939061121590851633146117b7565b8486528083528186209361122886611b92565b948515611318578285949392828a61128998958a95015560034291015561125183600a54611805565b600a55600354855163a9059cbb60e01b815233938101938452602084019490945292968793919091169183918b918391604090910190565b03925af192831561130e5786936112c2575b506112b4600080516020611e758339815191529361186c565b519283523392a36001805580f35b92508183813d8311611307575b6112d981836116f6565b81010312611303576112b46112fc600080516020611e758339815191529461185f565b935061129b565b8580fd5b503d6112cf565b81513d88823e3d90fd5b835162461bcd60e51b815280840186905260136024820152724e6f207265776172647320746f20636c61696d60681b6044820152606490fd5b50503461047057602090816003193601126104705761136e6115ba565b91819260018060a01b0316825260058152838220918451808484829654938481520190845284842092845b868282106113ee575050506113b0925003846116f6565b925b82518410156113e7576113db6113e1916113d56113cf8787611d08565b51611b92565b90611805565b93611718565b926113b2565b8451908152f35b8554845260019586019589955093019201611399565b91939050346102f557602090816003193601126109f25784359260ff600b541680156115a7575b1561156f575082845284825261144960ff600583872001541661177e565b8284528482528084209160018060a01b0392836001820154169360025460081c16803b1561156b57868660448a8388519586948593635390271560e01b85528401528160248401525af180156115615761154d575b506005908101805460ff19169055838652815281852084865260068252828620548154600019810190811161153a5791611511916114ed600080516020611e9583398151915296959483611656565b90549060031b1c611502816108848486611656565b89526006845284892055611812565b84865260068152600082872055611529600954611852565b60095585825191428352820152a380f35b634e487b7160e01b885260118952602488fd5b9561155a600592976116b0565b959061149e565b84513d89823e3d90fd5b8680fd5b62461bcd60e51b81528581018390526014602482015273456d657267656e6379206e6f742061637469766560601b6044820152606490fd5b5084546001600160a01b0316331461142b565b600435906001600160a01b03821682036115d057565b600080fd5b9060206003198301126115d05760043567ffffffffffffffff928382116115d057806023830112156115d05781600401359384116115d05760248460051b830101116115d0576024019190565b90815180825260208080930193019160005b828110611642575050505090565b835185529381019392810192600101611634565b805482101561166e5760005260206000200190600090565b634e487b7160e01b600052603260045260246000fd5b6000546001600160a01b0316330361169857565b60405163118cdaa760e01b8152336004820152602490fd5b67ffffffffffffffff81116116c457604052565b634e487b7160e01b600052604160045260246000fd5b60c0810190811067ffffffffffffffff8211176116c457604052565b90601f8019910116810190811067ffffffffffffffff8211176116c457604052565b60001981146117275760010190565b634e487b7160e01b600052601160045260246000fd5b60ff6002541661174957565b60405163d93c066560e01b8152600490fd5b60026001541461176c576002600155565b604051633ee5aeb560e01b8152600490fd5b1561178557565b60405162461bcd60e51b815260206004820152600a602482015269139bdd081cdd185ad95960b21b6044820152606490fd5b156117be57565b60405162461bcd60e51b815260206004820152600f60248201526e2737ba1039ba30b5b29037bbb732b960891b6044820152606490fd5b919081101561166e5760051b0190565b9190820180921161172757565b805490811561183c576000199182019161182c8383611656565b909182549160031b1b1916905555565b634e487b7160e01b600052603160045260246000fd5b8015611727576000190190565b519081151582036115d057565b1561187357565b60405162461bcd60e51b815260206004820152601660248201527514995dd85c99081d1c985b9cd9995c8819985a5b195960521b6044820152606490fd5b600081815260209060048252604090818120906118da6118d086611b92565b6004840154611805565b60025490926001600160a01b039160081c8216803b156109f2578380916044885180948193635390271560e01b83528d60048401528160248401525af18015611acb57611ab8575b5033835260058652848320878452600687528584205481546000198101908111611aa4579161197c916119586005959483611656565b90549060031b1c61196d816108848486611656565b875260068a5288872055611812565b878452600687526000868520550160ff19815416905561199d600954611852565b600955826119c7575b505090600080516020611e95833981519152918151934285528401523392a3565b6119d383600a54611805565b600a55600354845163a9059cbb60e01b815233600482015260248101859052918691839160449183918791165af1918215611a99578092611a4c575b505090611a2b600080516020611e95833981519152939261186c565b848251828152600080516020611e75833981519152863392a39091386119a6565b9091508482813d8311611a92575b611a6481836116f6565b81010312610470575090611a2b611a8a600080516020611e95833981519152949361185f565b919293611a0f565b503d611a5a565b8451903d90823e3d90fd5b634e487b7160e01b86526011600452602486fd5b611ac4909391936116b0565b9138611922565b86513d86823e3d90fd5b809161018092839103126115d05760405191820182811067ffffffffffffffff8211176116c457604052805182526020810151602083015260408101516040830152606081015160608301526080810151608083015260a081015160a083015260c081015160c083015260e081015160e0830152610100808201519083015261012080820151908301526101408082015190830152611b7861016080920161185f565b9082015290565b8181029291811591840414171561172757565b906000918083526004602052604090818420918051611bb0816116da565b8354815260018060a01b03928360018601541660208301526002850154838301526003850154916060810192835260ff600560048801549760808401988952015416159060a08215910152611d015760025483519163a86c6d3360e01b835260048301528160248161018097889460081c165afa938415611cf7578794611cc8575b505051804203428111611cb457670de0b6b3a76400009182820291820483149042141715611cb45760a06064611c98611cb19899611ca997968396611c8162015180611ca29804600754611b7f565b049161014089015181526008602052205490611b7f565b0493015183611b7f565b0490611805565b905190611805565b90565b634e487b7160e01b87526011600452602487fd5b611ce8929450803d10611cf0575b611ce081836116f6565b810190611ad5565b913880611c32565b503d611cd6565b83513d89823e3d90fd5b5050505050565b805182101561166e5760209160051b010190565b67ffffffffffffffff81116116c45760051b60200190565b90611d3e82611d1c565b611d4b60405191826116f6565b8281528092611d5c601f1991611d1c565b0190602036910137565b60025460405163a86c6d3360e01b81526004810192909252610180919082908290602490829060081c6001600160a01b03165afa918215611e6857600092611e4b575b5050611dd9600754916064611ca260a082611c986101408601978851600052600860205260406000205490611b7f565b90519066038d7ea4c680009180830292830403611727578115611e445761016d9081810291818304148115171561172757618e9481029180830460641490151715611727576907baab4146b63dd000000290808204670de0b6b3a76400001490151715611727570490565b5050600090565b611e619250803d10611cf057611ce081836116f6565b3880611da9565b6040513d6000823e3d90fdfedacbdde355ba930696a362ea6738feb9f8bd52dfb3d81947558fd3217e23e325204fccf0d92ed8d48f204adb39b2e81e92bad0dedb93f5716ca9478cfb57de00a26469706673582212203958f4aed0add16d60bec826c2379a58f33c72fe5f48a487e6676e728d1a51f964736f6c63430008140033","opcodes":"PUSH1 0x80 CALLVALUE PUSH3 0x144 JUMPI PUSH3 0x205F PUSH1 0x1F CODESIZE DUP3 SWAP1 SUB SWAP1 DUP2 ADD PUSH1 0x1F NOT AND DUP4 ADD SWAP1 PUSH1 0x1 PUSH1 0x1 PUSH1 0x40 SHL SUB DUP3 GT DUP5 DUP4 LT OR PUSH3 0x149 JUMPI DUP1 DUP5 SWAP2 PUSH1 0x40 SWAP5 DUP6 SWAP5 DUP6 MSTORE DUP4 CODECOPY DUP2 ADD SUB SLT PUSH3 0x144 JUMPI PUSH3 0x5C PUSH1 0x20 PUSH3 0x54 DUP5 PUSH3 0x15F JUMP JUMPDEST SWAP4 ADD PUSH3 0x15F JUMP JUMPDEST CALLER ISZERO PUSH3 0x12C JUMPI PUSH1 0x0 DUP1 SLOAD CALLER PUSH1 0x1 PUSH1 0x1 PUSH1 0xA0 SHL SUB NOT DUP1 DUP4 AND DUP3 OR DUP5 SSTORE DUP6 MLOAD SWAP7 PUSH2 0x12C SWAP7 SWAP6 SWAP2 SWAP4 PUSH1 0x1 PUSH1 0x1 PUSH1 0xA0 SHL SUB SWAP4 SWAP1 DUP5 AND PUSH32 0x8BE0079C531659141344CD1FD0A4F28419497F9722A3DAAFE3B4186F6B6457E0 DUP8 DUP1 LOG3 PUSH1 0x1 DUP1 SSTORE PUSH1 0x2 SLOAD SWAP1 PUSH8 0x8AC7230489E80000 PUSH1 0x7 SSTORE PUSH2 0x100 PUSH1 0x1 PUSH1 0xA8 SHL SUB SWAP1 PUSH1 0x8 SHL AND SWAP1 PUSH1 0x1 DUP1 PUSH1 0xA8 SHL SUB NOT AND OR PUSH1 0x2 SSTORE AND SWAP1 PUSH1 0x3 SLOAD AND OR PUSH1 0x3 SSTORE PUSH1 0x1 DUP2 MSTORE PUSH1 0x8 PUSH1 0x20 MSTORE PUSH1 0x64 DUP3 DUP3 KECCAK256 SSTORE PUSH1 0x2 DUP2 MSTORE PUSH1 0x7D DUP3 DUP3 KECCAK256 SSTORE PUSH1 0x3 DUP2 MSTORE PUSH1 0x96 DUP3 DUP3 KECCAK256 SSTORE PUSH1 0x4 DUP2 MSTORE PUSH1 0xC8 DUP3 DUP3 KECCAK256 SSTORE PUSH1 0x5 DUP2 MSTORE KECCAK256 SSTORE PUSH2 0x1EEA SWAP1 DUP2 PUSH3 0x175 DUP3 CODECOPY RETURN JUMPDEST DUP2 MLOAD PUSH4 0x1E4FBDF7 PUSH1 0xE0 SHL DUP2 MSTORE PUSH1 0x0 PUSH1 0x4 DUP3 ADD MSTORE PUSH1 0x24 SWAP1 REVERT JUMPDEST PUSH1 0x0 DUP1 REVERT JUMPDEST PUSH4 0x4E487B71 PUSH1 0xE0 SHL PUSH1 0x0 MSTORE PUSH1 0x41 PUSH1 0x4 MSTORE PUSH1 0x24 PUSH1 0x0 REVERT JUMPDEST MLOAD SWAP1 PUSH1 0x1 PUSH1 0x1 PUSH1 0xA0 SHL SUB DUP3 AND DUP3 SUB PUSH3 0x144 JUMPI JUMP INVALID PUSH1 0x80 PUSH1 0x40 SWAP1 DUP1 DUP3 MSTORE PUSH1 0x4 DUP1 CALLDATASIZE LT ISZERO PUSH2 0x22 JUMPI JUMPDEST POP POP POP CALLDATASIZE ISZERO PUSH2 0x20 JUMPI PUSH1 0x0 DUP1 REVERT JUMPDEST STOP JUMPDEST PUSH1 0x0 SWAP2 DUP3 CALLDATALOAD PUSH1 0xE0 SHR SWAP1 DUP2 PUSH4 0x12CE501 EQ PUSH2 0x1404 JUMPI POP DUP1 PUSH4 0x3237A04 EQ PUSH2 0x1351 JUMPI DUP1 PUSH4 0x962EF79 EQ PUSH2 0x11B9 JUMPI DUP1 PUSH4 0x9813482 EQ PUSH2 0x10EB JUMPI DUP1 PUSH4 0x16010AE1 EQ PUSH2 0x10BE JUMPI DUP1 PUSH4 0x2E17DE78 EQ PUSH2 0x1057 JUMPI DUP1 PUSH4 0x2F38E042 EQ PUSH2 0x1021 JUMPI DUP1 PUSH4 0x3D6AA5E1 EQ PUSH2 0xFFE JUMPI DUP1 PUSH4 0x3F4BA83A EQ PUSH2 0xF93 JUMPI DUP1 PUSH4 0x3FC846DE EQ PUSH2 0xF6A JUMPI DUP1 PUSH4 0x4303223C EQ PUSH2 0xF49 JUMPI DUP1 PUSH4 0x5C975ABB EQ PUSH2 0xF25 JUMPI DUP1 PUSH4 0x646E6F8B EQ PUSH2 0xD90 JUMPI DUP1 PUSH4 0x715018A6 EQ PUSH2 0xD36 JUMPI DUP1 PUSH4 0x74F0314F EQ PUSH2 0xD18 JUMPI DUP1 PUSH4 0x817B1CD2 EQ PUSH2 0xCF9 JUMPI DUP1 PUSH4 0x842E2981 EQ PUSH2 0xC73 JUMPI DUP1 PUSH4 0x8456CB59 EQ PUSH2 0xC18 JUMPI DUP1 PUSH4 0x8AEE8127 EQ PUSH2 0xBD8 JUMPI DUP1 PUSH4 0x8BDF67F2 EQ PUSH2 0xB03 JUMPI DUP1 PUSH4 0x8DA5CB5B EQ PUSH2 0xADB JUMPI DUP1 PUSH4 0x9342C8F4 EQ PUSH2 0x9F6 JUMPI DUP1 PUSH4 0xA694FC3A EQ PUSH2 0x718 JUMPI DUP1 PUSH4 0xAFBF3440 EQ PUSH2 0x6F9 JUMPI DUP1 PUSH4 0xB5D5B5FA EQ PUSH2 0x6A3 JUMPI DUP1 PUSH4 0xB6ED7D62 EQ PUSH2 0x67B JUMPI DUP1 PUSH4 0xBAA51F86 EQ PUSH2 0x64B JUMPI DUP1 PUSH4 0xC42F5760 EQ PUSH2 0x5CC JUMPI DUP1 PUSH4 0xCC85DF7E EQ PUSH2 0x5A3 JUMPI DUP1 PUSH4 0xD5A44F86 EQ PUSH2 0x53A JUMPI DUP1 PUSH4 0xE64A21F3 EQ PUSH2 0x492 JUMPI DUP1 PUSH4 0xEE172546 EQ PUSH2 0x473 JUMPI DUP1 PUSH4 0xEFD39938 EQ PUSH2 0x426 JUMPI DUP1 PUSH4 0xF0A9ABE7 EQ PUSH2 0x3D7 JUMPI DUP1 PUSH4 0xF2C39992 EQ PUSH2 0x3B3 JUMPI DUP1 PUSH4 0xF2FDE38B EQ PUSH2 0x326 JUMPI DUP1 PUSH4 0xF7C618C1 EQ PUSH2 0x2FD JUMPI PUSH4 0xF93F3B63 SUB PUSH2 0x12 JUMPI CALLVALUE PUSH2 0x2F9 JUMPI PUSH1 0x20 DUP1 PUSH1 0x3 NOT CALLDATASIZE ADD SLT PUSH2 0x2F5 JUMPI PUSH1 0x1 PUSH1 0x1 PUSH1 0xA0 SHL SUB PUSH2 0x1EF PUSH2 0x15BA JUMP JUMPDEST AND DUP4 MSTORE PUSH1 0x5 DUP2 MSTORE DUP4 DUP4 KECCAK256 SWAP2 DUP5 MLOAD DUP1 DUP5 DUP5 DUP3 SWAP7 SLOAD SWAP4 DUP5 DUP2 MSTORE ADD SWAP1 DUP8 MSTORE DUP5 DUP8 KECCAK256 SWAP3 DUP8 JUMPDEST DUP7 DUP3 DUP3 LT PUSH2 0x2DF JUMPI POP POP POP PUSH2 0x227 SWAP3 POP SUB DUP5 PUSH2 0x16F6 JUMP JUMPDEST DUP3 MLOAD PUSH2 0x232 DUP2 PUSH2 0x1D34 JUMP JUMPDEST SWAP5 PUSH2 0x23C DUP3 PUSH2 0x1D34 JUMP JUMPDEST SWAP3 PUSH2 0x246 DUP4 PUSH2 0x1D34 JUMP JUMPDEST SWAP6 DUP3 JUMPDEST DUP5 DUP2 LT PUSH2 0x28F JUMPI PUSH2 0x271 DUP10 PUSH2 0x28B DUP13 DUP12 PUSH2 0x27E DUP13 DUP13 DUP5 MLOAD SWAP8 DUP9 SWAP8 PUSH1 0x60 DUP10 MSTORE PUSH1 0x60 DUP10 ADD SWAP1 PUSH2 0x1622 JUMP JUMPDEST SWAP2 DUP8 DUP4 SUB SWAP1 DUP9 ADD MSTORE PUSH2 0x1622 JUMP JUMPDEST SWAP2 DUP5 DUP4 SUB SWAP1 DUP6 ADD MSTORE PUSH2 0x1622 JUMP JUMPDEST SUB SWAP1 RETURN JUMPDEST DUP1 PUSH2 0x29D PUSH2 0x2DA SWAP3 DUP5 PUSH2 0x1D08 JUMP JUMPDEST MLOAD DUP1 PUSH2 0x2A9 DUP4 DUP14 PUSH2 0x1D08 JUMP JUMPDEST MSTORE PUSH2 0x2B3 DUP2 PUSH2 0x1B92 JUMP JUMPDEST PUSH2 0x2BD DUP4 DUP11 PUSH2 0x1D08 JUMP JUMPDEST MSTORE DUP6 MSTORE DUP4 DUP9 MSTORE PUSH1 0x2 DUP12 DUP7 KECCAK256 ADD SLOAD PUSH2 0x2D4 DUP3 DUP12 PUSH2 0x1D08 JUMP JUMPDEST MSTORE PUSH2 0x1718 JUMP JUMPDEST PUSH2 0x249 JUMP JUMPDEST DUP6 SLOAD DUP5 MSTORE PUSH1 0x1 SWAP6 DUP7 ADD SWAP6 DUP10 SWAP6 POP SWAP4 ADD SWAP3 ADD PUSH2 0x210 JUMP JUMPDEST DUP3 DUP1 REVERT JUMPDEST POP DUP1 REVERT JUMPDEST DUP3 DUP5 CALLVALUE PUSH2 0x2F9 JUMPI DUP2 PUSH1 0x3 NOT CALLDATASIZE ADD SLT PUSH2 0x2F9 JUMPI PUSH1 0x3 SLOAD SWAP1 MLOAD PUSH1 0x1 PUSH1 0x1 PUSH1 0xA0 SHL SUB SWAP1 SWAP2 AND DUP2 MSTORE PUSH1 0x20 SWAP1 RETURN JUMPDEST POP DUP3 SWAP1 CALLVALUE PUSH2 0x2F5 JUMPI PUSH1 0x20 CALLDATASIZE PUSH1 0x3 NOT ADD SLT PUSH2 0x2F5 JUMPI PUSH2 0x342 PUSH2 0x15BA JUMP JUMPDEST SWAP1 PUSH2 0x34B PUSH2 0x1684 JUMP JUMPDEST PUSH1 0x1 PUSH1 0x1 PUSH1 0xA0 SHL SUB SWAP2 DUP3 AND SWAP3 DUP4 ISZERO PUSH2 0x39D JUMPI POP POP PUSH1 0x0 SLOAD DUP3 PUSH1 0x1 PUSH1 0x1 PUSH1 0x60 SHL SUB PUSH1 0xA0 SHL DUP3 AND OR PUSH1 0x0 SSTORE AND PUSH32 0x8BE0079C531659141344CD1FD0A4F28419497F9722A3DAAFE3B4186F6B6457E0 PUSH1 0x0 DUP1 LOG3 DUP1 RETURN JUMPDEST MLOAD PUSH4 0x1E4FBDF7 PUSH1 0xE0 SHL DUP2 MSTORE SWAP1 DUP2 ADD DUP5 SWAP1 MSTORE PUSH1 0x24 SWAP1 REVERT JUMPDEST DUP3 DUP5 CALLVALUE PUSH2 0x2F9 JUMPI DUP2 PUSH1 0x3 NOT CALLDATASIZE ADD SLT PUSH2 0x2F9 JUMPI PUSH1 0x20 SWAP1 PUSH1 0xFF PUSH1 0xB SLOAD AND SWAP1 MLOAD SWAP1 ISZERO ISZERO DUP2 MSTORE RETURN JUMPDEST POP DUP3 SWAP1 CALLVALUE PUSH2 0x2F5 JUMPI PUSH1 0x20 CALLDATASIZE PUSH1 0x3 NOT ADD SLT PUSH2 0x2F5 JUMPI PUSH32 0x41D466EBD06FB97E7786086AC8B69B7EB7DA798592036251291D34E9791CDE01 SWAP2 PUSH1 0x20 SWAP2 CALLDATALOAD SWAP1 PUSH2 0x41A PUSH2 0x1684 JUMP JUMPDEST DUP2 PUSH1 0x7 SSTORE MLOAD SWAP1 DUP2 MSTORE LOG1 DUP1 RETURN JUMPDEST DUP3 CALLVALUE PUSH2 0x470 JUMPI PUSH1 0x20 CALLDATASIZE PUSH1 0x3 NOT ADD SLT PUSH2 0x470 JUMPI PUSH2 0x440 PUSH2 0x15BA JUMP JUMPDEST PUSH2 0x448 PUSH2 0x1684 JUMP JUMPDEST PUSH1 0x2 DUP1 SLOAD PUSH2 0x100 PUSH1 0x1 PUSH1 0xA8 SHL SUB NOT AND PUSH1 0x8 SWAP3 SWAP1 SWAP3 SHL PUSH2 0x100 PUSH1 0x1 PUSH1 0xA8 SHL SUB AND SWAP2 SWAP1 SWAP2 OR SWAP1 SSTORE DUP1 RETURN JUMPDEST DUP1 REVERT JUMPDEST DUP3 DUP5 CALLVALUE PUSH2 0x2F9 JUMPI DUP2 PUSH1 0x3 NOT CALLDATASIZE ADD SLT PUSH2 0x2F9 JUMPI PUSH1 0x20 SWAP1 PUSH1 0xA SLOAD SWAP1 MLOAD SWAP1 DUP2 MSTORE RETURN JUMPDEST POP DUP3 SWAP1 CALLVALUE PUSH2 0x2F5 JUMPI PUSH2 0x4A3 CALLDATASIZE PUSH2 0x15D5 JUMP JUMPDEST SWAP2 PUSH2 0x4AC PUSH2 0x175B JUMP JUMPDEST DUP5 JUMPDEST DUP4 DUP2 LT PUSH2 0x4BD JUMPI DUP6 PUSH1 0x1 DUP1 SSTORE DUP1 RETURN JUMPDEST DUP1 PUSH2 0x4CC PUSH2 0x4F1 SWAP3 DUP7 DUP7 PUSH2 0x17F5 JUMP JUMPDEST CALLDATALOAD DUP8 MSTORE PUSH1 0x20 DUP4 DUP2 MSTORE DUP4 PUSH1 0xFF PUSH1 0x5 DUP10 DUP12 KECCAK256 ADD SLOAD AND SWAP2 DUP3 PUSH2 0x50F JUMPI JUMPDEST POP POP PUSH2 0x4F6 JUMPI PUSH2 0x1718 JUMP JUMPDEST PUSH2 0x4AE JUMP JUMPDEST PUSH2 0x50A PUSH2 0x504 DUP3 DUP8 DUP8 PUSH2 0x17F5 JUMP JUMPDEST CALLDATALOAD PUSH2 0x18B1 JUMP JUMPDEST PUSH2 0x1718 JUMP JUMPDEST SWAP1 SWAP2 POP PUSH2 0x51D DUP4 DUP9 DUP9 PUSH2 0x17F5 JUMP JUMPDEST CALLDATALOAD DUP10 MSTORE MSTORE DUP6 DUP8 KECCAK256 PUSH1 0x1 ADD SLOAD PUSH1 0x1 PUSH1 0x1 PUSH1 0xA0 SHL SUB AND CALLER EQ DUP4 DUP10 PUSH2 0x4E6 JUMP JUMPDEST POP DUP3 CALLVALUE PUSH2 0x2F5 JUMPI PUSH1 0x20 CALLDATASIZE PUSH1 0x3 NOT ADD SLT PUSH2 0x2F5 JUMPI DUP1 PUSH1 0xC0 SWAP4 DUP4 CALLDATALOAD DUP2 MSTORE DUP4 PUSH1 0x20 MSTORE KECCAK256 DUP1 SLOAD SWAP3 PUSH1 0x1 DUP1 PUSH1 0xA0 SHL SUB PUSH1 0x1 DUP4 ADD SLOAD AND SWAP3 PUSH1 0x2 DUP4 ADD SLOAD SWAP1 PUSH1 0xFF PUSH1 0x5 PUSH1 0x3 DUP7 ADD SLOAD SWAP5 DUP7 ADD SLOAD SWAP6 ADD SLOAD AND SWAP5 DUP2 MLOAD SWAP7 DUP8 MSTORE PUSH1 0x20 DUP8 ADD MSTORE DUP6 ADD MSTORE PUSH1 0x60 DUP5 ADD MSTORE PUSH1 0x80 DUP4 ADD MSTORE ISZERO ISZERO PUSH1 0xA0 DUP3 ADD MSTORE RETURN JUMPDEST POP DUP3 SWAP1 CALLVALUE PUSH2 0x2F5 JUMPI PUSH1 0x20 CALLDATASIZE PUSH1 0x3 NOT ADD SLT PUSH2 0x2F5 JUMPI PUSH1 0x20 SWAP3 DUP3 SWAP2 CALLDATALOAD DUP2 MSTORE PUSH1 0x6 DUP5 MSTORE KECCAK256 SLOAD SWAP1 MLOAD SWAP1 DUP2 MSTORE RETURN JUMPDEST POP DUP3 SWAP1 CALLVALUE PUSH2 0x2F5 JUMPI DUP2 PUSH1 0x3 NOT CALLDATASIZE ADD SLT PUSH2 0x2F5 JUMPI DUP1 CALLDATALOAD SWAP1 PUSH2 0x5EA PUSH2 0x1684 JUMP JUMPDEST PUSH1 0x1 DUP3 LT ISZERO DUP1 PUSH2 0x640 JUMPI JUMPDEST ISZERO PUSH2 0x60C JUMPI POP DUP3 MSTORE PUSH1 0x8 PUSH1 0x20 MSTORE PUSH1 0x24 CALLDATALOAD SWAP1 DUP3 KECCAK256 SSTORE DUP1 RETURN JUMPDEST PUSH1 0x64 SWAP1 PUSH1 0x20 DUP5 MLOAD SWAP2 PUSH3 0x461BCD PUSH1 0xE5 SHL DUP4 MSTORE DUP3 ADD MSTORE PUSH1 0xE PUSH1 0x24 DUP3 ADD MSTORE PUSH14 0x496E76616C696420726172697479 PUSH1 0x90 SHL PUSH1 0x44 DUP3 ADD MSTORE REVERT JUMPDEST POP PUSH1 0x5 DUP3 GT ISZERO PUSH2 0x5F5 JUMP JUMPDEST POP DUP3 SWAP1 CALLVALUE PUSH2 0x2F5 JUMPI PUSH1 0x20 CALLDATASIZE PUSH1 0x3 NOT ADD SLT PUSH2 0x2F5 JUMPI PUSH1 0x5 DUP3 PUSH1 0x20 SWAP5 DUP4 PUSH1 0xFF SWAP5 CALLDATALOAD DUP3 MSTORE DUP7 MSTORE KECCAK256 ADD SLOAD AND SWAP1 MLOAD SWAP1 ISZERO ISZERO DUP2 MSTORE RETURN JUMPDEST POP SWAP2 SWAP1 CALLVALUE PUSH2 0x470 JUMPI PUSH1 0x20 CALLDATASIZE PUSH1 0x3 NOT ADD SLT PUSH2 0x470 JUMPI POP PUSH2 0x69C PUSH1 0x20 SWAP3 CALLDATALOAD PUSH2 0x1B92 JUMP JUMPDEST SWAP1 MLOAD SWAP1 DUP2 MSTORE RETURN JUMPDEST DUP3 DUP5 CALLVALUE PUSH2 0x2F9 JUMPI DUP1 PUSH1 0x3 NOT CALLDATASIZE ADD SLT PUSH2 0x2F9 JUMPI PUSH2 0x6BD PUSH2 0x15BA JUMP JUMPDEST PUSH1 0x1 PUSH1 0x1 PUSH1 0xA0 SHL SUB AND DUP3 MSTORE PUSH1 0x5 PUSH1 0x20 MSTORE DUP1 DUP3 KECCAK256 DUP1 SLOAD PUSH1 0x24 CALLDATALOAD SWAP4 SWAP1 DUP5 LT ISZERO PUSH2 0x470 JUMPI POP PUSH1 0x20 SWAP3 PUSH2 0x6EB SWAP2 PUSH2 0x1656 JUMP JUMPDEST SWAP2 SWAP1 SLOAD SWAP1 MLOAD SWAP2 PUSH1 0x3 SHL SHR DUP2 MSTORE RETURN JUMPDEST DUP3 DUP5 CALLVALUE PUSH2 0x2F9 JUMPI DUP2 PUSH1 0x3 NOT CALLDATASIZE ADD SLT PUSH2 0x2F9 JUMPI PUSH1 0x20 SWAP1 PUSH1 0x7 SLOAD SWAP1 MLOAD SWAP1 DUP2 MSTORE RETURN JUMPDEST POP DUP3 CALLVALUE PUSH2 0x2F5 JUMPI PUSH1 0x20 DUP1 PUSH1 0x3 NOT CALLDATASIZE ADD SLT PUSH2 0x9F2 JUMPI DUP3 CALLDATALOAD SWAP2 PUSH2 0x737 PUSH2 0x175B JUMP JUMPDEST PUSH2 0x73F PUSH2 0x173D JUMP JUMPDEST PUSH1 0x2 SLOAD DUP2 MLOAD PUSH4 0x31A9108F PUSH1 0xE1 SHL DUP2 MSTORE DUP6 DUP2 ADD DUP6 SWAP1 MSTORE PUSH1 0x1 PUSH1 0x1 PUSH1 0xA0 SHL SUB PUSH1 0x8 SWAP3 SWAP1 SWAP3 SHR DUP3 AND SWAP6 SWAP2 PUSH1 0x24 SWAP2 DUP6 DUP2 DUP5 DUP2 DUP12 GAS STATICCALL SWAP1 DUP2 ISZERO PUSH2 0x9E8 JUMPI DUP10 SWAP2 PUSH2 0x9AE JUMPI JUMPDEST POP DUP2 CALLER SWAP2 AND SUB PUSH2 0x97C JUMPI DUP6 DUP9 MSTORE DUP3 DUP6 MSTORE PUSH1 0xFF PUSH1 0x5 DUP6 DUP11 KECCAK256 ADD SLOAD AND PUSH2 0x94A JUMPI DUP7 EXTCODESIZE ISZERO PUSH2 0x93C JUMPI DUP8 DUP5 MLOAD PUSH4 0x53902715 PUSH1 0xE0 SHL DUP2 MSTORE DUP8 DUP6 DUP3 ADD MSTORE DUP2 DUP2 PUSH1 0x44 DUP2 DUP4 PUSH1 0x1 SWAP14 DUP15 DUP11 DUP5 ADD MSTORE GAS CALL DUP1 ISZERO PUSH2 0x940 JUMPI SWAP1 DUP10 SWAP4 SWAP3 SWAP2 PUSH2 0x923 JUMPI JUMPDEST POP SWAP1 DUP8 DUP8 PUSH1 0x5 SWAP4 DUP9 MLOAD SWAP4 PUSH2 0x7E8 DUP6 PUSH2 0x16DA JUMP JUMPDEST DUP4 DUP6 MSTORE DUP3 DUP6 ADD SWAP1 CALLER DUP3 MSTORE DUP11 DUP1 DUP8 ADD SWAP4 TIMESTAMP DUP6 MSTORE DUP12 PUSH1 0x60 DUP10 ADD SWAP7 TIMESTAMP DUP9 MSTORE PUSH1 0x80 DUP11 ADD SWAP9 DUP4 DUP11 MSTORE PUSH1 0xA0 DUP12 ADD SWAP13 DUP14 MSTORE DUP4 MSTORE MSTORE KECCAK256 SWAP6 MLOAD DUP7 SSTORE DUP14 DUP7 ADD SWAP2 MLOAD AND PUSH1 0x1 PUSH1 0x1 PUSH1 0x60 SHL SUB PUSH1 0xA0 SHL DUP3 SLOAD AND OR SWAP1 SSTORE MLOAD PUSH1 0x2 DUP5 ADD SSTORE MLOAD PUSH1 0x3 DUP4 ADD SSTORE MLOAD DUP6 DUP3 ADD SSTORE ADD SWAP1 MLOAD ISZERO ISZERO PUSH1 0xFF DUP1 NOT DUP4 SLOAD AND SWAP2 AND OR SWAP1 SSTORE CALLER DUP8 MSTORE PUSH1 0x5 DUP5 MSTORE DUP3 DUP8 KECCAK256 DUP1 SLOAD SWAP1 PUSH9 0x10000000000000000 DUP3 LT ISZERO PUSH2 0x911 JUMPI PUSH2 0x884 DUP3 DUP9 SWAP3 DUP11 PUSH2 0x89D SWAP6 ADD DUP2 SSTORE PUSH2 0x1656 JUMP JUMPDEST SWAP1 SWAP2 SWAP1 DUP3 SLOAD SWAP1 PUSH1 0x3 SHL SWAP2 DUP3 SHL SWAP2 PUSH1 0x0 NOT SWAP1 SHL NOT AND OR SWAP1 SSTORE JUMP JUMPDEST CALLER DUP8 MSTORE PUSH1 0x5 DUP5 MSTORE DUP3 DUP8 KECCAK256 SLOAD PUSH1 0x0 NOT DUP2 ADD SWAP3 SWAP1 DUP4 GT PUSH2 0x900 JUMPI POP POP SWAP1 PUSH32 0x1449C6DD7851ABC30ABF37F57715F492010519147CC2652FBC38202C18A6EE90 SWAP2 DUP5 DUP8 MSTORE PUSH1 0x6 DUP5 MSTORE DUP2 DUP8 KECCAK256 SSTORE PUSH2 0x8F0 PUSH1 0x9 SLOAD PUSH2 0x1718 JUMP JUMPDEST PUSH1 0x9 SSTORE MLOAD SWAP2 TIMESTAMP DUP4 MSTORE CALLER SWAP3 LOG3 DUP1 SSTORE DUP1 RETURN JUMPDEST PUSH4 0x4E487B71 PUSH1 0xE0 SHL DUP9 MSTORE PUSH1 0x11 SWAP1 MSTORE DUP7 REVERT JUMPDEST PUSH4 0x4E487B71 PUSH1 0xE0 SHL DUP10 MSTORE PUSH1 0x41 DUP5 MSTORE DUP3 DUP10 REVERT JUMPDEST PUSH2 0x92F SWAP2 SWAP3 SWAP4 POP PUSH2 0x16B0 JUMP JUMPDEST PUSH2 0x93C JUMPI DUP7 SWAP1 DUP9 DUP11 PUSH2 0x7D5 JUMP JUMPDEST DUP8 DUP1 REVERT JUMPDEST DUP7 MLOAD RETURNDATASIZE DUP5 DUP3 RETURNDATACOPY RETURNDATASIZE SWAP1 REVERT JUMPDEST POP PUSH1 0x64 SWAP4 PUSH1 0xE SWAP3 SWAP4 MLOAD SWAP4 PUSH3 0x461BCD PUSH1 0xE5 SHL DUP6 MSTORE DUP5 ADD MSTORE DUP3 ADD MSTORE PUSH14 0x105B1C9958591E481CDD185AD959 PUSH1 0x92 SHL PUSH1 0x44 DUP3 ADD MSTORE REVERT JUMPDEST POP PUSH1 0x64 SWAP4 PUSH1 0xE SWAP3 SWAP4 MLOAD SWAP4 PUSH3 0x461BCD PUSH1 0xE5 SHL DUP6 MSTORE DUP5 ADD MSTORE DUP3 ADD MSTORE PUSH14 0x2737BA1036B2B1B41037BBB732B9 PUSH1 0x91 SHL PUSH1 0x44 DUP3 ADD MSTORE REVERT JUMPDEST SWAP1 POP DUP6 DUP2 DUP2 RETURNDATASIZE DUP4 GT PUSH2 0x9E1 JUMPI JUMPDEST PUSH2 0x9C5 DUP2 DUP4 PUSH2 0x16F6 JUMP JUMPDEST DUP2 ADD SUB SLT PUSH2 0x9DD JUMPI MLOAD DUP2 DUP2 AND DUP2 SUB PUSH2 0x9DD JUMPI DUP10 PUSH2 0x77E JUMP JUMPDEST DUP9 DUP1 REVERT JUMPDEST POP RETURNDATASIZE PUSH2 0x9BB JUMP JUMPDEST DUP6 MLOAD RETURNDATASIZE DUP12 DUP3 RETURNDATACOPY RETURNDATASIZE SWAP1 REVERT JUMPDEST DUP4 DUP1 REVERT JUMPDEST POP DUP3 CALLVALUE PUSH2 0x2F5 JUMPI PUSH1 0x20 SWAP1 DUP2 PUSH1 0x3 NOT CALLDATASIZE ADD SLT PUSH2 0x9F2 JUMPI PUSH2 0xA13 PUSH2 0x1684 JUMP JUMPDEST PUSH1 0x3 SLOAD DUP2 MLOAD PUSH4 0xA9059CBB PUSH1 0xE0 SHL DUP2 MSTORE CALLER DUP6 DUP3 ADD SWAP1 DUP2 MSTORE DUP6 CALLDATALOAD PUSH1 0x20 DUP3 ADD MSTORE SWAP1 SWAP2 DUP5 SWAP2 DUP4 SWAP2 PUSH1 0x1 PUSH1 0x1 PUSH1 0xA0 SHL SUB AND SWAP1 DUP3 SWAP1 DUP10 SWAP1 DUP3 SWAP1 PUSH1 0x40 ADD SUB SWAP3 GAS CALL SWAP1 DUP2 ISZERO PUSH2 0xAD1 JUMPI DUP6 SWAP2 PUSH2 0xA98 JUMPI JUMPDEST POP ISZERO PUSH2 0xA65 JUMPI DUP4 DUP1 RETURN JUMPDEST MLOAD PUSH3 0x461BCD PUSH1 0xE5 SHL DUP2 MSTORE SWAP2 DUP3 ADD MSTORE PUSH1 0xF PUSH1 0x24 DUP3 ADD MSTORE PUSH15 0x15DA5D1A191C985DC819985A5B1959 PUSH1 0x8A SHL PUSH1 0x44 DUP3 ADD MSTORE PUSH1 0x64 SWAP2 POP REVERT JUMPDEST SWAP1 POP DUP3 DUP2 DUP2 RETURNDATASIZE DUP4 GT PUSH2 0xACA JUMPI JUMPDEST PUSH2 0xAAF DUP2 DUP4 PUSH2 0x16F6 JUMP JUMPDEST DUP2 ADD SUB SLT PUSH2 0xAC6 JUMPI PUSH2 0xAC0 SWAP1 PUSH2 0x185F JUMP JUMPDEST DUP6 PUSH2 0xA5B JUMP JUMPDEST DUP5 DUP1 REVERT JUMPDEST POP RETURNDATASIZE PUSH2 0xAA5 JUMP JUMPDEST DUP3 MLOAD RETURNDATASIZE DUP8 DUP3 RETURNDATACOPY RETURNDATASIZE SWAP1 REVERT JUMPDEST DUP3 DUP5 CALLVALUE PUSH2 0x2F9 JUMPI DUP2 PUSH1 0x3 NOT CALLDATASIZE ADD SLT PUSH2 0x2F9 JUMPI SWAP1 SLOAD SWAP1 MLOAD PUSH1 0x1 PUSH1 0x1 PUSH1 0xA0 SHL SUB SWAP1 SWAP2 AND DUP2 MSTORE PUSH1 0x20 SWAP1 RETURN JUMPDEST POP DUP3 CALLVALUE PUSH2 0x2F5 JUMPI PUSH1 0x20 SWAP1 DUP2 PUSH1 0x3 NOT CALLDATASIZE ADD SLT PUSH2 0x9F2 JUMPI PUSH2 0xB20 PUSH2 0x1684 JUMP JUMPDEST PUSH1 0x3 SLOAD DUP2 MLOAD PUSH4 0x23B872DD PUSH1 0xE0 SHL DUP2 MSTORE CALLER DUP6 DUP3 ADD MSTORE ADDRESS PUSH1 0x24 DUP3 ADD MSTORE DUP5 CALLDATALOAD PUSH1 0x44 DUP3 ADD MSTORE SWAP1 DUP4 SWAP1 DUP3 SWAP1 PUSH1 0x64 SWAP1 DUP3 SWAP1 DUP10 SWAP1 PUSH1 0x1 PUSH1 0x1 PUSH1 0xA0 SHL SUB AND GAS CALL SWAP1 DUP2 ISZERO PUSH2 0xAD1 JUMPI DUP6 SWAP2 PUSH2 0xBA3 JUMPI JUMPDEST POP ISZERO PUSH2 0xB70 JUMPI DUP4 DUP1 RETURN JUMPDEST MLOAD PUSH3 0x461BCD PUSH1 0xE5 SHL DUP2 MSTORE SWAP2 DUP3 ADD MSTORE PUSH1 0xF PUSH1 0x24 DUP3 ADD MSTORE PUSH15 0x151C985B9CD9995C8819985A5B1959 PUSH1 0x8A SHL PUSH1 0x44 DUP3 ADD MSTORE PUSH1 0x64 SWAP2 POP REVERT JUMPDEST SWAP1 POP DUP3 DUP2 DUP2 RETURNDATASIZE DUP4 GT PUSH2 0xBD1 JUMPI JUMPDEST PUSH2 0xBBA DUP2 DUP4 PUSH2 0x16F6 JUMP JUMPDEST DUP2 ADD SUB SLT PUSH2 0xAC6 JUMPI PUSH2 0xBCB SWAP1 PUSH2 0x185F JUMP JUMPDEST DUP6 PUSH2 0xB66 JUMP JUMPDEST POP RETURNDATASIZE PUSH2 0xBB0 JUMP JUMPDEST DUP3 CALLVALUE PUSH2 0x470 JUMPI PUSH1 0x20 CALLDATASIZE PUSH1 0x3 NOT ADD SLT PUSH2 0x470 JUMPI PUSH2 0xBF2 PUSH2 0x15BA JUMP JUMPDEST PUSH2 0xBFA PUSH2 0x1684 JUMP JUMPDEST PUSH1 0x1 DUP1 PUSH1 0xA0 SHL SUB AND PUSH1 0x1 PUSH1 0x1 PUSH1 0x60 SHL SUB PUSH1 0xA0 SHL PUSH1 0x3 SLOAD AND OR PUSH1 0x3 SSTORE DUP1 RETURN JUMPDEST DUP3 DUP5 CALLVALUE PUSH2 0x2F9 JUMPI DUP2 PUSH1 0x3 NOT CALLDATASIZE ADD SLT PUSH2 0x2F9 JUMPI PUSH1 0x20 PUSH32 0x62E78CEA01BEE320CD4E420270B5EA74000D11B0C9F74754EBDBFC544B05A258 SWAP2 PUSH2 0xC56 PUSH2 0x1684 JUMP JUMPDEST PUSH2 0xC5E PUSH2 0x173D JUMP JUMPDEST PUSH1 0x1 PUSH1 0xFF NOT PUSH1 0x2 SLOAD AND OR PUSH1 0x2 SSTORE MLOAD CALLER DUP2 MSTORE LOG1 DUP1 RETURN JUMPDEST DUP3 DUP5 CALLVALUE PUSH2 0x2F9 JUMPI PUSH1 0x20 SWAP1 DUP2 PUSH1 0x3 NOT CALLDATASIZE ADD SLT PUSH2 0x2F5 JUMPI PUSH1 0x1 PUSH1 0x1 PUSH1 0xA0 SHL SUB PUSH2 0xC98 PUSH2 0x15BA JUMP JUMPDEST AND DUP4 MSTORE PUSH1 0x5 DUP3 MSTORE DUP1 DUP4 KECCAK256 DUP2 MLOAD SWAP1 DUP2 SWAP5 DUP6 SWAP3 DUP6 DUP4 SLOAD SWAP2 DUP3 DUP2 MSTORE ADD SWAP3 DUP3 MSTORE DUP6 DUP3 KECCAK256 SWAP2 JUMPDEST DUP7 DUP3 DUP3 LT PUSH2 0xCE2 JUMPI DUP6 SWAP1 PUSH2 0x28B DUP9 PUSH2 0xCD3 DUP5 DUP10 SUB DUP6 PUSH2 0x16F6 JUMP JUMPDEST MLOAD SWAP3 DUP3 DUP5 SWAP4 DUP5 MSTORE DUP4 ADD SWAP1 PUSH2 0x1622 JUMP JUMPDEST DUP4 SLOAD DUP6 MSTORE DUP9 SWAP6 POP SWAP1 SWAP4 ADD SWAP3 PUSH1 0x1 SWAP3 DUP4 ADD SWAP3 ADD PUSH2 0xCB9 JUMP JUMPDEST DUP3 DUP5 CALLVALUE PUSH2 0x2F9 JUMPI DUP2 PUSH1 0x3 NOT CALLDATASIZE ADD SLT PUSH2 0x2F9 JUMPI PUSH1 0x20 SWAP1 PUSH1 0x9 SLOAD SWAP1 MLOAD SWAP1 DUP2 MSTORE RETURN JUMPDEST DUP3 DUP5 CALLVALUE PUSH2 0x2F9 JUMPI DUP2 PUSH1 0x3 NOT CALLDATASIZE ADD SLT PUSH2 0x2F9 JUMPI PUSH1 0x20 SWAP1 MLOAD PUSH3 0x15180 DUP2 MSTORE RETURN JUMPDEST DUP3 CALLVALUE PUSH2 0x470 JUMPI DUP1 PUSH1 0x3 NOT CALLDATASIZE ADD SLT PUSH2 0x470 JUMPI PUSH2 0xD4F PUSH2 0x1684 JUMP JUMPDEST PUSH1 0x0 DUP1 SLOAD PUSH1 0x1 PUSH1 0x1 PUSH1 0xA0 SHL SUB NOT DUP2 AND DUP3 SSTORE PUSH1 0x1 PUSH1 0x1 PUSH1 0xA0 SHL SUB AND PUSH32 0x8BE0079C531659141344CD1FD0A4F28419497F9722A3DAAFE3B4186F6B6457E0 DUP3 DUP1 LOG3 DUP1 RETURN JUMPDEST POP DUP3 CALLVALUE PUSH2 0x2F5 JUMPI PUSH2 0xDA0 CALLDATASIZE PUSH2 0x15D5 JUMP JUMPDEST SWAP3 SWAP1 PUSH2 0xDAA PUSH2 0x175B JUMP JUMPDEST DUP5 SWAP4 DUP6 JUMPDEST DUP2 DUP2 LT PUSH2 0xE7E JUMPI POP POP POP DUP3 PUSH2 0xDC6 JUMPI JUMPDEST DUP4 PUSH1 0x1 DUP1 SSTORE DUP1 RETURN JUMPDEST DUP3 PUSH1 0x20 SWAP2 PUSH2 0xDD9 PUSH2 0xE16 SWAP6 PUSH1 0xA SLOAD PUSH2 0x1805 JUMP JUMPDEST PUSH1 0xA SSTORE PUSH1 0x3 SLOAD DUP5 MLOAD PUSH4 0xA9059CBB PUSH1 0xE0 SHL DUP2 MSTORE CALLER SWAP3 DUP2 ADD SWAP3 DUP4 MSTORE PUSH1 0x20 DUP4 ADD SWAP4 SWAP1 SWAP4 MSTORE SWAP2 SWAP5 DUP6 SWAP3 PUSH1 0x1 PUSH1 0x1 PUSH1 0xA0 SHL SUB AND SWAP2 DUP4 SWAP2 DUP9 SWAP2 DUP4 SWAP2 PUSH1 0x40 SWAP1 SWAP2 ADD SWAP1 JUMP JUMPDEST SUB SWAP3 GAS CALL SWAP1 DUP2 ISZERO PUSH2 0xE75 JUMPI POP DUP3 SWAP1 PUSH2 0xE3B JUMPI JUMPDEST PUSH2 0xE33 SWAP2 POP PUSH2 0x186C JUMP JUMPDEST DUP2 DUP1 DUP1 PUSH2 0xDBE JUMP JUMPDEST POP PUSH1 0x20 DUP2 RETURNDATASIZE DUP3 GT PUSH2 0xE6D JUMPI JUMPDEST DUP2 PUSH2 0xE54 PUSH1 0x20 SWAP4 DUP4 PUSH2 0x16F6 JUMP JUMPDEST DUP2 ADD SUB SLT PUSH2 0x2F9 JUMPI PUSH2 0xE68 PUSH2 0xE33 SWAP2 PUSH2 0x185F JUMP JUMPDEST PUSH2 0xE29 JUMP JUMPDEST RETURNDATASIZE SWAP2 POP PUSH2 0xE47 JUMP JUMPDEST MLOAD RETURNDATASIZE DUP5 DUP3 RETURNDATACOPY RETURNDATASIZE SWAP1 REVERT JUMPDEST PUSH2 0xE89 DUP2 DUP4 DUP6 PUSH2 0x17F5 JUMP JUMPDEST CALLDATALOAD DUP1 DUP9 MSTORE PUSH1 0x20 SWAP1 DUP6 DUP3 MSTORE DUP7 DUP10 KECCAK256 PUSH1 0xFF PUSH1 0x5 DUP3 ADD SLOAD AND DUP1 PUSH2 0xF0F JUMPI JUMPDEST PUSH2 0xEBA JUMPI JUMPDEST POP POP POP PUSH2 0xEB5 SWAP1 PUSH2 0x1718 JUMP JUMPDEST PUSH2 0xDAE JUMP JUMPDEST PUSH2 0xEC3 DUP3 PUSH2 0x1B92 JUMP JUMPDEST SWAP1 DUP11 DUP3 PUSH2 0xED2 JUMPI JUMPDEST POP POP PUSH2 0xEA9 JUMP JUMPDEST DUP3 PUSH2 0xEB5 SWAP7 SWAP6 SWAP12 DUP4 PUSH2 0xEFC SWAP4 DUP13 PUSH1 0x0 DUP1 MLOAD PUSH1 0x20 PUSH2 0x1E75 DUP4 CODECOPY DUP2 MLOAD SWAP2 MSTORE SWAP7 ADD SSTORE PUSH1 0x3 TIMESTAMP SWAP2 ADD SSTORE PUSH2 0x1805 JUMP JUMPDEST SWAP10 DUP10 MLOAD SWAP3 DUP4 MSTORE CALLER SWAP3 LOG3 SWAP1 DUP9 DUP1 DUP1 DUP11 PUSH2 0xECB JUMP JUMPDEST POP PUSH1 0x1 DUP2 ADD SLOAD PUSH1 0x1 PUSH1 0x1 PUSH1 0xA0 SHL SUB AND CALLER EQ PUSH2 0xEA4 JUMP JUMPDEST DUP3 DUP5 CALLVALUE PUSH2 0x2F9 JUMPI DUP2 PUSH1 0x3 NOT CALLDATASIZE ADD SLT PUSH2 0x2F9 JUMPI PUSH1 0x20 SWAP1 PUSH1 0xFF PUSH1 0x2 SLOAD AND SWAP1 MLOAD SWAP1 ISZERO ISZERO DUP2 MSTORE RETURN JUMPDEST POP SWAP2 SWAP1 CALLVALUE PUSH2 0x470 JUMPI PUSH1 0x20 CALLDATASIZE PUSH1 0x3 NOT ADD SLT PUSH2 0x470 JUMPI POP PUSH2 0x69C PUSH1 0x20 SWAP3 CALLDATALOAD PUSH2 0x1D66 JUMP JUMPDEST POP DUP3 SWAP1 CALLVALUE PUSH2 0x2F5 JUMPI PUSH1 0x20 CALLDATASIZE PUSH1 0x3 NOT ADD SLT PUSH2 0x2F5 JUMPI PUSH1 0x20 SWAP3 DUP3 SWAP2 CALLDATALOAD DUP2 MSTORE PUSH1 0x8 DUP5 MSTORE KECCAK256 SLOAD SWAP1 MLOAD SWAP1 DUP2 MSTORE RETURN JUMPDEST POP DUP3 SWAP1 CALLVALUE PUSH2 0x2F5 JUMPI DUP3 PUSH1 0x3 NOT CALLDATASIZE ADD SLT PUSH2 0x2F5 JUMPI PUSH2 0xFAE PUSH2 0x1684 JUMP JUMPDEST PUSH1 0x2 SLOAD SWAP1 PUSH1 0xFF DUP3 AND ISZERO PUSH2 0xFF0 JUMPI POP PUSH1 0xFF NOT AND PUSH1 0x2 SSTORE MLOAD CALLER DUP2 MSTORE PUSH32 0x5DB9EE0A495BF2E6FF9C91A7834C1BA4FDD244A5E8AA4E537BD38AEAE4B073AA SWAP1 PUSH1 0x20 SWAP1 LOG1 DUP1 RETURN JUMPDEST DUP3 MLOAD PUSH4 0x8DFC202B PUSH1 0xE0 SHL DUP2 MSTORE REVERT JUMPDEST DUP3 DUP5 CALLVALUE PUSH2 0x2F9 JUMPI DUP2 PUSH1 0x3 NOT CALLDATASIZE ADD SLT PUSH2 0x2F9 JUMPI PUSH1 0x20 SWAP1 MLOAD PUSH8 0xDE0B6B3A7640000 DUP2 MSTORE RETURN JUMPDEST POP CALLVALUE PUSH2 0x2F9 JUMPI PUSH1 0x20 CALLDATASIZE PUSH1 0x3 NOT ADD SLT PUSH2 0x2F9 JUMPI CALLDATALOAD DUP1 ISZERO ISZERO DUP1 SWAP2 SUB PUSH2 0x2F9 JUMPI PUSH2 0x1046 PUSH2 0x1684 JUMP JUMPDEST PUSH1 0xFF DUP1 NOT PUSH1 0xB SLOAD AND SWAP2 AND OR PUSH1 0xB SSTORE DUP1 RETURN JUMPDEST POP DUP3 SWAP1 CALLVALUE PUSH2 0x2F5 JUMPI PUSH1 0x20 CALLDATASIZE PUSH1 0x3 NOT ADD SLT PUSH2 0x2F5 JUMPI PUSH2 0x10B2 PUSH2 0x10B7 SWAP3 DUP3 CALLDATALOAD SWAP3 PUSH2 0x107D PUSH2 0x175B JUMP JUMPDEST DUP4 DUP7 MSTORE DUP1 PUSH1 0x20 MSTORE PUSH2 0x1096 PUSH1 0xFF PUSH1 0x5 DUP5 DUP10 KECCAK256 ADD SLOAD AND PUSH2 0x177E JUMP JUMPDEST DUP4 DUP7 MSTORE PUSH1 0x20 MSTORE DUP5 KECCAK256 PUSH1 0x1 ADD SLOAD PUSH1 0x1 PUSH1 0x1 PUSH1 0xA0 SHL SUB AND CALLER EQ PUSH2 0x17B7 JUMP JUMPDEST PUSH2 0x18B1 JUMP JUMPDEST PUSH1 0x1 DUP1 SSTORE DUP1 RETURN JUMPDEST DUP3 DUP5 CALLVALUE PUSH2 0x2F9 JUMPI DUP2 PUSH1 0x3 NOT CALLDATASIZE ADD SLT PUSH2 0x2F9 JUMPI PUSH1 0x2 SLOAD SWAP1 MLOAD PUSH1 0x8 SWAP2 SWAP1 SWAP2 SHR PUSH1 0x1 PUSH1 0x1 PUSH1 0xA0 SHL SUB AND DUP2 MSTORE PUSH1 0x20 SWAP1 RETURN JUMPDEST POP DUP3 SWAP1 CALLVALUE PUSH2 0x2F5 JUMPI PUSH1 0x20 CALLDATASIZE PUSH1 0x3 NOT ADD SLT PUSH2 0x2F5 JUMPI DUP2 DUP4 PUSH1 0xC0 SWAP5 PUSH1 0xA0 DUP4 MLOAD PUSH2 0x1111 DUP2 PUSH2 0x16DA JUMP JUMPDEST DUP3 DUP2 MSTORE DUP3 PUSH1 0x20 DUP3 ADD MSTORE DUP3 DUP6 DUP3 ADD MSTORE DUP3 PUSH1 0x60 DUP3 ADD MSTORE DUP3 PUSH1 0x80 DUP3 ADD MSTORE ADD MSTORE DUP3 CALLDATALOAD DUP2 MSTORE DUP3 PUSH1 0x20 MSTORE KECCAK256 DUP3 MLOAD SWAP2 PUSH2 0x1142 DUP4 PUSH2 0x16DA JUMP JUMPDEST DUP2 SLOAD SWAP4 DUP5 DUP5 MSTORE PUSH1 0x1 DUP1 PUSH1 0xA0 SHL SUB DUP1 PUSH1 0x1 DUP6 ADD SLOAD AND SWAP1 PUSH1 0x20 DUP7 ADD SWAP2 DUP3 MSTORE PUSH1 0x2 DUP6 ADD SLOAD SWAP2 DUP4 DUP8 ADD SWAP3 DUP4 MSTORE PUSH1 0xA0 PUSH1 0xFF PUSH1 0x5 PUSH1 0x3 DUP10 ADD SLOAD SWAP8 PUSH1 0x60 DUP12 ADD SWAP9 DUP10 MSTORE DUP10 ADD SLOAD SWAP9 PUSH1 0x80 DUP12 ADD SWAP10 DUP11 MSTORE ADD SLOAD AND SWAP8 ADD SWAP7 ISZERO ISZERO DUP8 MSTORE DUP4 MLOAD SWAP8 DUP9 MSTORE MLOAD AND PUSH1 0x20 DUP8 ADD MSTORE MLOAD SWAP1 DUP6 ADD MSTORE MLOAD PUSH1 0x60 DUP5 ADD MSTORE MLOAD PUSH1 0x80 DUP4 ADD MSTORE MLOAD ISZERO ISZERO PUSH1 0xA0 DUP3 ADD MSTORE RETURN JUMPDEST POP DUP3 SWAP1 CALLVALUE PUSH2 0x2F5 JUMPI PUSH1 0x20 DUP1 PUSH1 0x3 NOT CALLDATASIZE ADD SLT PUSH2 0x9F2 JUMPI DUP2 CALLDATALOAD SWAP3 PUSH2 0x11D9 PUSH2 0x175B JUMP JUMPDEST DUP4 DUP6 MSTORE DUP3 DUP3 MSTORE PUSH2 0x11F1 PUSH1 0xFF PUSH1 0x5 DUP4 DUP9 KECCAK256 ADD SLOAD AND PUSH2 0x177E JUMP JUMPDEST DUP4 DUP6 MSTORE DUP3 DUP3 MSTORE DUP1 DUP6 KECCAK256 PUSH1 0x1 ADD SLOAD PUSH1 0x1 PUSH1 0x1 PUSH1 0xA0 SHL SUB SWAP4 SWAP1 PUSH2 0x1215 SWAP1 DUP6 AND CALLER EQ PUSH2 0x17B7 JUMP JUMPDEST DUP5 DUP7 MSTORE DUP1 DUP4 MSTORE DUP2 DUP7 KECCAK256 SWAP4 PUSH2 0x1228 DUP7 PUSH2 0x1B92 JUMP JUMPDEST SWAP5 DUP6 ISZERO PUSH2 0x1318 JUMPI DUP3 DUP6 SWAP5 SWAP4 SWAP3 DUP3 DUP11 PUSH2 0x1289 SWAP9 SWAP6 DUP11 SWAP6 ADD SSTORE PUSH1 0x3 TIMESTAMP SWAP2 ADD SSTORE PUSH2 0x1251 DUP4 PUSH1 0xA SLOAD PUSH2 0x1805 JUMP JUMPDEST PUSH1 0xA SSTORE PUSH1 0x3 SLOAD DUP6 MLOAD PUSH4 0xA9059CBB PUSH1 0xE0 SHL DUP2 MSTORE CALLER SWAP4 DUP2 ADD SWAP4 DUP5 MSTORE PUSH1 0x20 DUP5 ADD SWAP5 SWAP1 SWAP5 MSTORE SWAP3 SWAP7 DUP8 SWAP4 SWAP2 SWAP1 SWAP2 AND SWAP2 DUP4 SWAP2 DUP12 SWAP2 DUP4 SWAP2 PUSH1 0x40 SWAP1 SWAP2 ADD SWAP1 JUMP JUMPDEST SUB SWAP3 GAS CALL SWAP3 DUP4 ISZERO PUSH2 0x130E JUMPI DUP7 SWAP4 PUSH2 0x12C2 JUMPI JUMPDEST POP PUSH2 0x12B4 PUSH1 0x0 DUP1 MLOAD PUSH1 0x20 PUSH2 0x1E75 DUP4 CODECOPY DUP2 MLOAD SWAP2 MSTORE SWAP4 PUSH2 0x186C JUMP JUMPDEST MLOAD SWAP3 DUP4 MSTORE CALLER SWAP3 LOG3 PUSH1 0x1 DUP1 SSTORE DUP1 RETURN JUMPDEST SWAP3 POP DUP2 DUP4 DUP2 RETURNDATASIZE DUP4 GT PUSH2 0x1307 JUMPI JUMPDEST PUSH2 0x12D9 DUP2 DUP4 PUSH2 0x16F6 JUMP JUMPDEST DUP2 ADD SUB SLT PUSH2 0x1303 JUMPI PUSH2 0x12B4 PUSH2 0x12FC PUSH1 0x0 DUP1 MLOAD PUSH1 0x20 PUSH2 0x1E75 DUP4 CODECOPY DUP2 MLOAD SWAP2 MSTORE SWAP5 PUSH2 0x185F JUMP JUMPDEST SWAP4 POP PUSH2 0x129B JUMP JUMPDEST DUP6 DUP1 REVERT JUMPDEST POP RETURNDATASIZE PUSH2 0x12CF JUMP JUMPDEST DUP2 MLOAD RETURNDATASIZE DUP9 DUP3 RETURNDATACOPY RETURNDATASIZE SWAP1 REVERT JUMPDEST DUP4 MLOAD PUSH3 0x461BCD PUSH1 0xE5 SHL DUP2 MSTORE DUP1 DUP5 ADD DUP7 SWAP1 MSTORE PUSH1 0x13 PUSH1 0x24 DUP3 ADD MSTORE PUSH19 0x4E6F207265776172647320746F20636C61696D PUSH1 0x68 SHL PUSH1 0x44 DUP3 ADD MSTORE PUSH1 0x64 SWAP1 REVERT JUMPDEST POP POP CALLVALUE PUSH2 0x470 JUMPI PUSH1 0x20 SWAP1 DUP2 PUSH1 0x3 NOT CALLDATASIZE ADD SLT PUSH2 0x470 JUMPI PUSH2 0x136E PUSH2 0x15BA JUMP JUMPDEST SWAP2 DUP2 SWAP3 PUSH1 0x1 DUP1 PUSH1 0xA0 SHL SUB AND DUP3 MSTORE PUSH1 0x5 DUP2 MSTORE DUP4 DUP3 KECCAK256 SWAP2 DUP5 MLOAD DUP1 DUP5 DUP5 DUP3 SWAP7 SLOAD SWAP4 DUP5 DUP2 MSTORE ADD SWAP1 DUP5 MSTORE DUP5 DUP5 KECCAK256 SWAP3 DUP5 JUMPDEST DUP7 DUP3 DUP3 LT PUSH2 0x13EE JUMPI POP POP POP PUSH2 0x13B0 SWAP3 POP SUB DUP5 PUSH2 0x16F6 JUMP JUMPDEST SWAP3 JUMPDEST DUP3 MLOAD DUP5 LT ISZERO PUSH2 0x13E7 JUMPI PUSH2 0x13DB PUSH2 0x13E1 SWAP2 PUSH2 0x13D5 PUSH2 0x13CF DUP8 DUP8 PUSH2 0x1D08 JUMP JUMPDEST MLOAD PUSH2 0x1B92 JUMP JUMPDEST SWAP1 PUSH2 0x1805 JUMP JUMPDEST SWAP4 PUSH2 0x1718 JUMP JUMPDEST SWAP3 PUSH2 0x13B2 JUMP JUMPDEST DUP5 MLOAD SWAP1 DUP2 MSTORE RETURN JUMPDEST DUP6 SLOAD DUP5 MSTORE PUSH1 0x1 SWAP6 DUP7 ADD SWAP6 DUP10 SWAP6 POP SWAP4 ADD SWAP3 ADD PUSH2 0x1399 JUMP JUMPDEST SWAP2 SWAP4 SWAP1 POP CALLVALUE PUSH2 0x2F5 JUMPI PUSH1 0x20 SWAP1 DUP2 PUSH1 0x3 NOT CALLDATASIZE ADD SLT PUSH2 0x9F2 JUMPI DUP5 CALLDATALOAD SWAP3 PUSH1 0xFF PUSH1 0xB SLOAD AND DUP1 ISZERO PUSH2 0x15A7 JUMPI JUMPDEST ISZERO PUSH2 0x156F JUMPI POP DUP3 DUP5 MSTORE DUP5 DUP3 MSTORE PUSH2 0x1449 PUSH1 0xFF PUSH1 0x5 DUP4 DUP8 KECCAK256 ADD SLOAD AND PUSH2 0x177E JUMP JUMPDEST DUP3 DUP5 MSTORE DUP5 DUP3 MSTORE DUP1 DUP5 KECCAK256 SWAP2 PUSH1 0x1 DUP1 PUSH1 0xA0 SHL SUB SWAP3 DUP4 PUSH1 0x1 DUP3 ADD SLOAD AND SWAP4 PUSH1 0x2 SLOAD PUSH1 0x8 SHR AND DUP1 EXTCODESIZE ISZERO PUSH2 0x156B JUMPI DUP7 DUP7 PUSH1 0x44 DUP11 DUP4 DUP9 MLOAD SWAP6 DUP7 SWAP5 DUP6 SWAP4 PUSH4 0x53902715 PUSH1 0xE0 SHL DUP6 MSTORE DUP5 ADD MSTORE DUP2 PUSH1 0x24 DUP5 ADD MSTORE GAS CALL DUP1 ISZERO PUSH2 0x1561 JUMPI PUSH2 0x154D JUMPI JUMPDEST POP PUSH1 0x5 SWAP1 DUP2 ADD DUP1 SLOAD PUSH1 0xFF NOT AND SWAP1 SSTORE DUP4 DUP7 MSTORE DUP2 MSTORE DUP2 DUP6 KECCAK256 DUP5 DUP7 MSTORE PUSH1 0x6 DUP3 MSTORE DUP3 DUP7 KECCAK256 SLOAD DUP2 SLOAD PUSH1 0x0 NOT DUP2 ADD SWAP1 DUP2 GT PUSH2 0x153A JUMPI SWAP2 PUSH2 0x1511 SWAP2 PUSH2 0x14ED PUSH1 0x0 DUP1 MLOAD PUSH1 0x20 PUSH2 0x1E95 DUP4 CODECOPY DUP2 MLOAD SWAP2 MSTORE SWAP7 SWAP6 SWAP5 DUP4 PUSH2 0x1656 JUMP JUMPDEST SWAP1 SLOAD SWAP1 PUSH1 0x3 SHL SHR PUSH2 0x1502 DUP2 PUSH2 0x884 DUP5 DUP7 PUSH2 0x1656 JUMP JUMPDEST DUP10 MSTORE PUSH1 0x6 DUP5 MSTORE DUP5 DUP10 KECCAK256 SSTORE PUSH2 0x1812 JUMP JUMPDEST DUP5 DUP7 MSTORE PUSH1 0x6 DUP2 MSTORE PUSH1 0x0 DUP3 DUP8 KECCAK256 SSTORE PUSH2 0x1529 PUSH1 0x9 SLOAD PUSH2 0x1852 JUMP JUMPDEST PUSH1 0x9 SSTORE DUP6 DUP3 MLOAD SWAP2 TIMESTAMP DUP4 MSTORE DUP3 ADD MSTORE LOG3 DUP1 RETURN JUMPDEST PUSH4 0x4E487B71 PUSH1 0xE0 SHL DUP9 MSTORE PUSH1 0x11 DUP10 MSTORE PUSH1 0x24 DUP9 REVERT JUMPDEST SWAP6 PUSH2 0x155A PUSH1 0x5 SWAP3 SWAP8 PUSH2 0x16B0 JUMP JUMPDEST SWAP6 SWAP1 PUSH2 0x149E JUMP JUMPDEST DUP5 MLOAD RETURNDATASIZE DUP10 DUP3 RETURNDATACOPY RETURNDATASIZE SWAP1 REVERT JUMPDEST DUP7 DUP1 REVERT JUMPDEST PUSH3 0x461BCD PUSH1 0xE5 SHL DUP2 MSTORE DUP6 DUP2 ADD DUP4 SWAP1 MSTORE PUSH1 0x14 PUSH1 0x24 DUP3 ADD MSTORE PUSH20 0x456D657267656E6379206E6F7420616374697665 PUSH1 0x60 SHL PUSH1 0x44 DUP3 ADD MSTORE PUSH1 0x64 SWAP1 REVERT JUMPDEST POP DUP5 SLOAD PUSH1 0x1 PUSH1 0x1 PUSH1 0xA0 SHL SUB AND CALLER EQ PUSH2 0x142B JUMP JUMPDEST PUSH1 0x4 CALLDATALOAD SWAP1 PUSH1 0x1 PUSH1 0x1 PUSH1 0xA0 SHL SUB DUP3 AND DUP3 SUB PUSH2 0x15D0 JUMPI JUMP JUMPDEST PUSH1 0x0 DUP1 REVERT JUMPDEST SWAP1 PUSH1 0x20 PUSH1 0x3 NOT DUP4 ADD SLT PUSH2 0x15D0 JUMPI PUSH1 0x4 CALLDATALOAD PUSH8 0xFFFFFFFFFFFFFFFF SWAP3 DUP4 DUP3 GT PUSH2 0x15D0 JUMPI DUP1 PUSH1 0x23 DUP4 ADD SLT ISZERO PUSH2 0x15D0 JUMPI DUP2 PUSH1 0x4 ADD CALLDATALOAD SWAP4 DUP5 GT PUSH2 0x15D0 JUMPI PUSH1 0x24 DUP5 PUSH1 0x5 SHL DUP4 ADD ADD GT PUSH2 0x15D0 JUMPI PUSH1 0x24 ADD SWAP2 SWAP1 JUMP JUMPDEST SWAP1 DUP2 MLOAD DUP1 DUP3 MSTORE PUSH1 0x20 DUP1 DUP1 SWAP4 ADD SWAP4 ADD SWAP2 PUSH1 0x0 JUMPDEST DUP3 DUP2 LT PUSH2 0x1642 JUMPI POP POP POP POP SWAP1 JUMP JUMPDEST DUP4 MLOAD DUP6 MSTORE SWAP4 DUP2 ADD SWAP4 SWAP3 DUP2 ADD SWAP3 PUSH1 0x1 ADD PUSH2 0x1634 JUMP JUMPDEST DUP1 SLOAD DUP3 LT ISZERO PUSH2 0x166E JUMPI PUSH1 0x0 MSTORE PUSH1 0x20 PUSH1 0x0 KECCAK256 ADD SWAP1 PUSH1 0x0 SWAP1 JUMP JUMPDEST PUSH4 0x4E487B71 PUSH1 0xE0 SHL PUSH1 0x0 MSTORE PUSH1 0x32 PUSH1 0x4 MSTORE PUSH1 0x24 PUSH1 0x0 REVERT JUMPDEST PUSH1 0x0 SLOAD PUSH1 0x1 PUSH1 0x1 PUSH1 0xA0 SHL SUB AND CALLER SUB PUSH2 0x1698 JUMPI JUMP JUMPDEST PUSH1 0x40 MLOAD PUSH4 0x118CDAA7 PUSH1 0xE0 SHL DUP2 MSTORE CALLER PUSH1 0x4 DUP3 ADD MSTORE PUSH1 0x24 SWAP1 REVERT JUMPDEST PUSH8 0xFFFFFFFFFFFFFFFF DUP2 GT PUSH2 0x16C4 JUMPI PUSH1 0x40 MSTORE JUMP JUMPDEST PUSH4 0x4E487B71 PUSH1 0xE0 SHL PUSH1 0x0 MSTORE PUSH1 0x41 PUSH1 0x4 MSTORE PUSH1 0x24 PUSH1 0x0 REVERT JUMPDEST PUSH1 0xC0 DUP2 ADD SWAP1 DUP2 LT PUSH8 0xFFFFFFFFFFFFFFFF DUP3 GT OR PUSH2 0x16C4 JUMPI PUSH1 0x40 MSTORE JUMP JUMPDEST SWAP1 PUSH1 0x1F DUP1 NOT SWAP2 ADD AND DUP2 ADD SWAP1 DUP2 LT PUSH8 0xFFFFFFFFFFFFFFFF DUP3 GT OR PUSH2 0x16C4 JUMPI PUSH1 0x40 MSTORE JUMP JUMPDEST PUSH1 0x0 NOT DUP2 EQ PUSH2 0x1727 JUMPI PUSH1 0x1 ADD SWAP1 JUMP JUMPDEST PUSH4 0x4E487B71 PUSH1 0xE0 SHL PUSH1 0x0 MSTORE PUSH1 0x11 PUSH1 0x4 MSTORE PUSH1 0x24 PUSH1 0x0 REVERT JUMPDEST PUSH1 0xFF PUSH1 0x2 SLOAD AND PUSH2 0x1749 JUMPI JUMP JUMPDEST PUSH1 0x40 MLOAD PUSH4 0xD93C0665 PUSH1 0xE0 SHL DUP2 MSTORE PUSH1 0x4 SWAP1 REVERT JUMPDEST PUSH1 0x2 PUSH1 0x1 SLOAD EQ PUSH2 0x176C JUMPI PUSH1 0x2 PUSH1 0x1 SSTORE JUMP JUMPDEST PUSH1 0x40 MLOAD PUSH4 0x3EE5AEB5 PUSH1 0xE0 SHL DUP2 MSTORE PUSH1 0x4 SWAP1 REVERT JUMPDEST ISZERO PUSH2 0x1785 JUMPI JUMP JUMPDEST PUSH1 0x40 MLOAD PUSH3 0x461BCD PUSH1 0xE5 SHL DUP2 MSTORE PUSH1 0x20 PUSH1 0x4 DUP3 ADD MSTORE PUSH1 0xA PUSH1 0x24 DUP3 ADD MSTORE PUSH10 0x139BDD081CDD185AD959 PUSH1 0xB2 SHL PUSH1 0x44 DUP3 ADD MSTORE PUSH1 0x64 SWAP1 REVERT JUMPDEST ISZERO PUSH2 0x17BE JUMPI JUMP JUMPDEST PUSH1 0x40 MLOAD PUSH3 0x461BCD PUSH1 0xE5 SHL DUP2 MSTORE PUSH1 0x20 PUSH1 0x4 DUP3 ADD MSTORE PUSH1 0xF PUSH1 0x24 DUP3 ADD MSTORE PUSH15 0x2737BA1039BA30B5B29037BBB732B9 PUSH1 0x89 SHL PUSH1 0x44 DUP3 ADD MSTORE PUSH1 0x64 SWAP1 REVERT JUMPDEST SWAP2 SWAP1 DUP2 LT ISZERO PUSH2 0x166E JUMPI PUSH1 0x5 SHL ADD SWAP1 JUMP JUMPDEST SWAP2 SWAP1 DUP3 ADD DUP1 SWAP3 GT PUSH2 0x1727 JUMPI JUMP JUMPDEST DUP1 SLOAD SWAP1 DUP2 ISZERO PUSH2 0x183C JUMPI PUSH1 0x0 NOT SWAP2 DUP3 ADD SWAP2 PUSH2 0x182C DUP4 DUP4 PUSH2 0x1656 JUMP JUMPDEST SWAP1 SWAP2 DUP3 SLOAD SWAP2 PUSH1 0x3 SHL SHL NOT AND SWAP1 SSTORE SSTORE JUMP JUMPDEST PUSH4 0x4E487B71 PUSH1 0xE0 SHL PUSH1 0x0 MSTORE PUSH1 0x31 PUSH1 0x4 MSTORE PUSH1 0x24 PUSH1 0x0 REVERT JUMPDEST DUP1 ISZERO PUSH2 0x1727 JUMPI PUSH1 0x0 NOT ADD SWAP1 JUMP JUMPDEST MLOAD SWAP1 DUP2 ISZERO ISZERO DUP3 SUB PUSH2 0x15D0 JUMPI JUMP JUMPDEST ISZERO PUSH2 0x1873 JUMPI JUMP JUMPDEST PUSH1 0x40 MLOAD PUSH3 0x461BCD PUSH1 0xE5 SHL DUP2 MSTORE PUSH1 0x20 PUSH1 0x4 DUP3 ADD MSTORE PUSH1 0x16 PUSH1 0x24 DUP3 ADD MSTORE PUSH22 0x14995DD85C99081D1C985B9CD9995C8819985A5B1959 PUSH1 0x52 SHL PUSH1 0x44 DUP3 ADD MSTORE PUSH1 0x64 SWAP1 REVERT JUMPDEST PUSH1 0x0 DUP2 DUP2 MSTORE PUSH1 0x20 SWAP1 PUSH1 0x4 DUP3 MSTORE PUSH1 0x40 SWAP1 DUP2 DUP2 KECCAK256 SWAP1 PUSH2 0x18DA PUSH2 0x18D0 DUP7 PUSH2 0x1B92 JUMP JUMPDEST PUSH1 0x4 DUP5 ADD SLOAD PUSH2 0x1805 JUMP JUMPDEST PUSH1 0x2 SLOAD SWAP1 SWAP3 PUSH1 0x1 PUSH1 0x1 PUSH1 0xA0 SHL SUB SWAP2 PUSH1 0x8 SHR DUP3 AND DUP1 EXTCODESIZE ISZERO PUSH2 0x9F2 JUMPI DUP4 DUP1 SWAP2 PUSH1 0x44 DUP9 MLOAD DUP1 SWAP5 DUP2 SWAP4 PUSH4 0x53902715 PUSH1 0xE0 SHL DUP4 MSTORE DUP14 PUSH1 0x4 DUP5 ADD MSTORE DUP2 PUSH1 0x24 DUP5 ADD MSTORE GAS CALL DUP1 ISZERO PUSH2 0x1ACB JUMPI PUSH2 0x1AB8 JUMPI JUMPDEST POP CALLER DUP4 MSTORE PUSH1 0x5 DUP7 MSTORE DUP5 DUP4 KECCAK256 DUP8 DUP5 MSTORE PUSH1 0x6 DUP8 MSTORE DUP6 DUP5 KECCAK256 SLOAD DUP2 SLOAD PUSH1 0x0 NOT DUP2 ADD SWAP1 DUP2 GT PUSH2 0x1AA4 JUMPI SWAP2 PUSH2 0x197C SWAP2 PUSH2 0x1958 PUSH1 0x5 SWAP6 SWAP5 DUP4 PUSH2 0x1656 JUMP JUMPDEST SWAP1 SLOAD SWAP1 PUSH1 0x3 SHL SHR PUSH2 0x196D DUP2 PUSH2 0x884 DUP5 DUP7 PUSH2 0x1656 JUMP JUMPDEST DUP8 MSTORE PUSH1 0x6 DUP11 MSTORE DUP9 DUP8 KECCAK256 SSTORE PUSH2 0x1812 JUMP JUMPDEST DUP8 DUP5 MSTORE PUSH1 0x6 DUP8 MSTORE PUSH1 0x0 DUP7 DUP6 KECCAK256 SSTORE ADD PUSH1 0xFF NOT DUP2 SLOAD AND SWAP1 SSTORE PUSH2 0x199D PUSH1 0x9 SLOAD PUSH2 0x1852 JUMP JUMPDEST PUSH1 0x9 SSTORE DUP3 PUSH2 0x19C7 JUMPI JUMPDEST POP POP SWAP1 PUSH1 0x0 DUP1 MLOAD PUSH1 0x20 PUSH2 0x1E95 DUP4 CODECOPY DUP2 MLOAD SWAP2 MSTORE SWAP2 DUP2 MLOAD SWAP4 TIMESTAMP DUP6 MSTORE DUP5 ADD MSTORE CALLER SWAP3 LOG3 JUMP JUMPDEST PUSH2 0x19D3 DUP4 PUSH1 0xA SLOAD PUSH2 0x1805 JUMP JUMPDEST PUSH1 0xA SSTORE PUSH1 0x3 SLOAD DUP5 MLOAD PUSH4 0xA9059CBB PUSH1 0xE0 SHL DUP2 MSTORE CALLER PUSH1 0x4 DUP3 ADD MSTORE PUSH1 0x24 DUP2 ADD DUP6 SWAP1 MSTORE SWAP2 DUP7 SWAP2 DUP4 SWAP2 PUSH1 0x44 SWAP2 DUP4 SWAP2 DUP8 SWAP2 AND GAS CALL SWAP2 DUP3 ISZERO PUSH2 0x1A99 JUMPI DUP1 SWAP3 PUSH2 0x1A4C JUMPI JUMPDEST POP POP SWAP1 PUSH2 0x1A2B PUSH1 0x0 DUP1 MLOAD PUSH1 0x20 PUSH2 0x1E95 DUP4 CODECOPY DUP2 MLOAD SWAP2 MSTORE SWAP4 SWAP3 PUSH2 0x186C JUMP JUMPDEST DUP5 DUP3 MLOAD DUP3 DUP2 MSTORE PUSH1 0x0 DUP1 MLOAD PUSH1 0x20 PUSH2 0x1E75 DUP4 CODECOPY DUP2 MLOAD SWAP2 MSTORE DUP7 CALLER SWAP3 LOG3 SWAP1 SWAP2 CODESIZE PUSH2 0x19A6 JUMP JUMPDEST SWAP1 SWAP2 POP DUP5 DUP3 DUP2 RETURNDATASIZE DUP4 GT PUSH2 0x1A92 JUMPI JUMPDEST PUSH2 0x1A64 DUP2 DUP4 PUSH2 0x16F6 JUMP JUMPDEST DUP2 ADD SUB SLT PUSH2 0x470 JUMPI POP SWAP1 PUSH2 0x1A2B PUSH2 0x1A8A PUSH1 0x0 DUP1 MLOAD PUSH1 0x20 PUSH2 0x1E95 DUP4 CODECOPY DUP2 MLOAD SWAP2 MSTORE SWAP5 SWAP4 PUSH2 0x185F JUMP JUMPDEST SWAP2 SWAP3 SWAP4 PUSH2 0x1A0F JUMP JUMPDEST POP RETURNDATASIZE PUSH2 0x1A5A JUMP JUMPDEST DUP5 MLOAD SWAP1 RETURNDATASIZE SWAP1 DUP3 RETURNDATACOPY RETURNDATASIZE SWAP1 REVERT JUMPDEST PUSH4 0x4E487B71 PUSH1 0xE0 SHL DUP7 MSTORE PUSH1 0x11 PUSH1 0x4 MSTORE PUSH1 0x24 DUP7 REVERT JUMPDEST PUSH2 0x1AC4 SWAP1 SWAP4 SWAP2 SWAP4 PUSH2 0x16B0 JUMP JUMPDEST SWAP2 CODESIZE PUSH2 0x1922 JUMP JUMPDEST DUP7 MLOAD RETURNDATASIZE DUP7 DUP3 RETURNDATACOPY RETURNDATASIZE SWAP1 REVERT JUMPDEST DUP1 SWAP2 PUSH2 0x180 SWAP3 DUP4 SWAP2 SUB SLT PUSH2 0x15D0 JUMPI PUSH1 0x40 MLOAD SWAP2 DUP3 ADD DUP3 DUP2 LT PUSH8 0xFFFFFFFFFFFFFFFF DUP3 GT OR PUSH2 0x16C4 JUMPI PUSH1 0x40 MSTORE DUP1 MLOAD DUP3 MSTORE PUSH1 0x20 DUP2 ADD MLOAD PUSH1 0x20 DUP4 ADD MSTORE PUSH1 0x40 DUP2 ADD MLOAD PUSH1 0x40 DUP4 ADD MSTORE PUSH1 0x60 DUP2 ADD MLOAD PUSH1 0x60 DUP4 ADD MSTORE PUSH1 0x80 DUP2 ADD MLOAD PUSH1 0x80 DUP4 ADD MSTORE PUSH1 0xA0 DUP2 ADD MLOAD PUSH1 0xA0 DUP4 ADD MSTORE PUSH1 0xC0 DUP2 ADD MLOAD PUSH1 0xC0 DUP4 ADD MSTORE PUSH1 0xE0 DUP2 ADD MLOAD PUSH1 0xE0 DUP4 ADD MSTORE PUSH2 0x100 DUP1 DUP3 ADD MLOAD SWAP1 DUP4 ADD MSTORE PUSH2 0x120 DUP1 DUP3 ADD MLOAD SWAP1 DUP4 ADD MSTORE PUSH2 0x140 DUP1 DUP3 ADD MLOAD SWAP1 DUP4 ADD MSTORE PUSH2 0x1B78 PUSH2 0x160 DUP1 SWAP3 ADD PUSH2 0x185F JUMP JUMPDEST SWAP1 DUP3 ADD MSTORE SWAP1 JUMP JUMPDEST DUP2 DUP2 MUL SWAP3 SWAP2 DUP2 ISZERO SWAP2 DUP5 DIV EQ OR ISZERO PUSH2 0x1727 JUMPI JUMP JUMPDEST SWAP1 PUSH1 0x0 SWAP2 DUP1 DUP4 MSTORE PUSH1 0x4 PUSH1 0x20 MSTORE PUSH1 0x40 SWAP1 DUP2 DUP5 KECCAK256 SWAP2 DUP1 MLOAD PUSH2 0x1BB0 DUP2 PUSH2 0x16DA JUMP JUMPDEST DUP4 SLOAD DUP2 MSTORE PUSH1 0x1 DUP1 PUSH1 0xA0 SHL SUB SWAP3 DUP4 PUSH1 0x1 DUP7 ADD SLOAD AND PUSH1 0x20 DUP4 ADD MSTORE PUSH1 0x2 DUP6 ADD SLOAD DUP4 DUP4 ADD MSTORE PUSH1 0x3 DUP6 ADD SLOAD SWAP2 PUSH1 0x60 DUP2 ADD SWAP3 DUP4 MSTORE PUSH1 0xFF PUSH1 0x5 PUSH1 0x4 DUP9 ADD SLOAD SWAP8 PUSH1 0x80 DUP5 ADD SWAP9 DUP10 MSTORE ADD SLOAD AND ISZERO SWAP1 PUSH1 0xA0 DUP3 ISZERO SWAP2 ADD MSTORE PUSH2 0x1D01 JUMPI PUSH1 0x2 SLOAD DUP4 MLOAD SWAP2 PUSH4 0xA86C6D33 PUSH1 0xE0 SHL DUP4 MSTORE PUSH1 0x4 DUP4 ADD MSTORE DUP2 PUSH1 0x24 DUP2 PUSH2 0x180 SWAP8 DUP9 SWAP5 PUSH1 0x8 SHR AND GAS STATICCALL SWAP4 DUP5 ISZERO PUSH2 0x1CF7 JUMPI DUP8 SWAP5 PUSH2 0x1CC8 JUMPI JUMPDEST POP POP MLOAD DUP1 TIMESTAMP SUB TIMESTAMP DUP2 GT PUSH2 0x1CB4 JUMPI PUSH8 0xDE0B6B3A7640000 SWAP2 DUP3 DUP3 MUL SWAP2 DUP3 DIV DUP4 EQ SWAP1 TIMESTAMP EQ OR ISZERO PUSH2 0x1CB4 JUMPI PUSH1 0xA0 PUSH1 0x64 PUSH2 0x1C98 PUSH2 0x1CB1 SWAP9 SWAP10 PUSH2 0x1CA9 SWAP8 SWAP7 DUP4 SWAP7 PUSH2 0x1C81 PUSH3 0x15180 PUSH2 0x1CA2 SWAP9 DIV PUSH1 0x7 SLOAD PUSH2 0x1B7F JUMP JUMPDEST DIV SWAP2 PUSH2 0x140 DUP10 ADD MLOAD DUP2 MSTORE PUSH1 0x8 PUSH1 0x20 MSTORE KECCAK256 SLOAD SWAP1 PUSH2 0x1B7F JUMP JUMPDEST DIV SWAP4 ADD MLOAD DUP4 PUSH2 0x1B7F JUMP JUMPDEST DIV SWAP1 PUSH2 0x1805 JUMP JUMPDEST SWAP1 MLOAD SWAP1 PUSH2 0x1805 JUMP JUMPDEST SWAP1 JUMP JUMPDEST PUSH4 0x4E487B71 PUSH1 0xE0 SHL DUP8 MSTORE PUSH1 0x11 PUSH1 0x4 MSTORE PUSH1 0x24 DUP8 REVERT JUMPDEST PUSH2 0x1CE8 SWAP3 SWAP5 POP DUP1 RETURNDATASIZE LT PUSH2 0x1CF0 JUMPI JUMPDEST PUSH2 0x1CE0 DUP2 DUP4 PUSH2 0x16F6 JUMP JUMPDEST DUP2 ADD SWAP1 PUSH2 0x1AD5 JUMP JUMPDEST SWAP2 CODESIZE DUP1 PUSH2 0x1C32 JUMP JUMPDEST POP RETURNDATASIZE PUSH2 0x1CD6 JUMP JUMPDEST DUP4 MLOAD RETURNDATASIZE DUP10 DUP3 RETURNDATACOPY RETURNDATASIZE SWAP1 REVERT JUMPDEST POP POP POP POP POP JUMP JUMPDEST DUP1 MLOAD DUP3 LT ISZERO PUSH2 0x166E JUMPI PUSH1 0x20 SWAP2 PUSH1 0x5 SHL ADD ADD SWAP1 JUMP JUMPDEST PUSH8 0xFFFFFFFFFFFFFFFF DUP2 GT PUSH2 0x16C4 JUMPI PUSH1 0x5 SHL PUSH1 0x20 ADD SWAP1 JUMP JUMPDEST SWAP1 PUSH2 0x1D3E DUP3 PUSH2 0x1D1C JUMP JUMPDEST PUSH2 0x1D4B PUSH1 0x40 MLOAD SWAP2 DUP3 PUSH2 0x16F6 JUMP JUMPDEST DUP3 DUP2 MSTORE DUP1 SWAP3 PUSH2 0x1D5C PUSH1 0x1F NOT SWAP2 PUSH2 0x1D1C JUMP JUMPDEST ADD SWAP1 PUSH1 0x20 CALLDATASIZE SWAP2 ADD CALLDATACOPY JUMP JUMPDEST PUSH1 0x2 SLOAD PUSH1 0x40 MLOAD PUSH4 0xA86C6D33 PUSH1 0xE0 SHL DUP2 MSTORE PUSH1 0x4 DUP2 ADD SWAP3 SWAP1 SWAP3 MSTORE PUSH2 0x180 SWAP2 SWAP1 DUP3 SWAP1 DUP3 SWAP1 PUSH1 0x24 SWAP1 DUP3 SWAP1 PUSH1 0x8 SHR PUSH1 0x1 PUSH1 0x1 PUSH1 0xA0 SHL SUB AND GAS STATICCALL SWAP2 DUP3 ISZERO PUSH2 0x1E68 JUMPI PUSH1 0x0 SWAP3 PUSH2 0x1E4B JUMPI JUMPDEST POP POP PUSH2 0x1DD9 PUSH1 0x7 SLOAD SWAP2 PUSH1 0x64 PUSH2 0x1CA2 PUSH1 0xA0 DUP3 PUSH2 0x1C98 PUSH2 0x140 DUP7 ADD SWAP8 DUP9 MLOAD PUSH1 0x0 MSTORE PUSH1 0x8 PUSH1 0x20 MSTORE PUSH1 0x40 PUSH1 0x0 KECCAK256 SLOAD SWAP1 PUSH2 0x1B7F JUMP JUMPDEST SWAP1 MLOAD SWAP1 PUSH7 0x38D7EA4C68000 SWAP2 DUP1 DUP4 MUL SWAP3 DUP4 DIV SUB PUSH2 0x1727 JUMPI DUP2 ISZERO PUSH2 0x1E44 JUMPI PUSH2 0x16D SWAP1 DUP2 DUP2 MUL SWAP2 DUP2 DUP4 DIV EQ DUP2 ISZERO OR ISZERO PUSH2 0x1727 JUMPI PUSH2 0x8E94 DUP2 MUL SWAP2 DUP1 DUP4 DIV PUSH1 0x64 EQ SWAP1 ISZERO OR ISZERO PUSH2 0x1727 JUMPI PUSH10 0x7BAAB4146B63DD00000 MUL SWAP1 DUP1 DUP3 DIV PUSH8 0xDE0B6B3A7640000 EQ SWAP1 ISZERO OR ISZERO PUSH2 0x1727 JUMPI DIV SWAP1 JUMP JUMPDEST POP POP PUSH1 0x0 SWAP1 JUMP JUMPDEST PUSH2 0x1E61 SWAP3 POP DUP1 RETURNDATASIZE LT PUSH2 0x1CF0 JUMPI PUSH2 0x1CE0 DUP2 DUP4 PUSH2 0x16F6 JUMP JUMPDEST CODESIZE DUP1 PUSH2 0x1DA9 JUMP JUMPDEST PUSH1 0x40 MLOAD RETURNDATASIZE PUSH1 0x0 DUP3 RETURNDATACOPY RETURNDATASIZE SWAP1 REVERT INVALID 0xDA 0xCB 0xDD 0xE3 SSTORE 0xBA SWAP4 MOD SWAP7 LOG3 PUSH3 0xEA6738 INVALID 0xB9 0xF8 0xBD MSTORE 0xDF 0xB3 0xD8 NOT SELFBALANCE SSTORE DUP16 0xD3 0x21 PUSH31 0x23E325204FCCF0D92ED8D48F204ADB39B2E81E92BAD0DEDB93F5716CA9478C 0xFB JUMPI 0xDE STOP LOG2 PUSH5 0x6970667358 0x22 SLT KECCAK256 CODECOPY PC DELEGATECALL 0xAE 0xD0 0xAD 0xD1 PUSH14 0x60BEC826C2379A58F33C72FE5F48 LOG4 DUP8 0xE6 PUSH8 0x6E728D1A51F96473 PUSH16 0x6C634300081400330000000000000000 "},"methodIdentifiers":{"REWARD_PRECISION()":"3d6aa5e1","SECONDS_PER_DAY()":"74f0314f","baseRewardRate()":"afbf3440","calculateMechAPR(uint256)":"4303223c","calculatePendingRewards(uint256)":"b6ed7d62","calculateTotalPendingRewards(address)":"03237a04","claimRewards(uint256)":"0962ef79","claimRewardsBatch(uint256[])":"646e6f8b","depositRewards(uint256)":"8bdf67f2","emergencyUnlock()":"f2c39992","emergencyUnstake(uint256)":"012ce501","getStakeInfo(uint256)":"09813482","getUserStakes(address)":"842e2981","getUserStakingDetails(address)":"f93f3b63","isStaked(uint256)":"baa51f86","mechNFT()":"16010ae1","mechStakeIndex(uint256)":"cc85df7e","owner()":"8da5cb5b","pause()":"8456cb59","paused()":"5c975abb","rarityMultiplier(uint256)":"3fc846de","renounceOwnership()":"715018a6","rewardToken()":"f7c618c1","setBaseRewardRate(uint256)":"f0a9abe7","setEmergencyUnlock(bool)":"2f38e042","setMechNFT(address)":"efd39938","setRarityMultiplier(uint256,uint256)":"c42f5760","setRewardToken(address)":"8aee8127","stake(uint256)":"a694fc3a","stakes(uint256)":"d5a44f86","totalRewardsDistributed()":"ee172546","totalStaked()":"817b1cd2","transferOwnership(address)":"f2fde38b","unpause()":"3f4ba83a","unstake(uint256)":"2e17de78","unstakeBatch(uint256[])":"e64a21f3","userStakes(address,uint256)":"b5d5b5fa","withdrawRewards(uint256)":"9342c8f4"}}}}}