{"contracts/BattleArena.sol":{"BattleArena":{"abi":[{"inputs":[{"internalType":"address","name":"_mechNFT","type":"address"}],"stateMutability":"nonpayable","type":"constructor"},{"inputs":[],"name":"EnforcedPause","type":"error"},{"inputs":[],"name":"ExpectedPause","type":"error"},{"inputs":[{"internalType":"address","name":"owner","type":"address"}],"name":"OwnableInvalidOwner","type":"error"},{"inputs":[{"internalType":"address","name":"account","type":"address"}],"name":"OwnableUnauthorizedAccount","type":"error"},{"inputs":[],"name":"ReentrancyGuardReentrantCall","type":"error"},{"anonymous":false,"inputs":[{"indexed":true,"internalType":"uint256","name":"battleId","type":"uint256"}],"name":"BattleCancelled","type":"event"},{"anonymous":false,"inputs":[{"indexed":true,"internalType":"uint256","name":"battleId","type":"uint256"},{"indexed":true,"internalType":"address","name":"winner","type":"address"},{"indexed":true,"internalType":"address","name":"loser","type":"address"},{"indexed":false,"internalType":"uint256","name":"prizeAmount","type":"uint256"}],"name":"BattleCompleted","type":"event"},{"anonymous":false,"inputs":[{"indexed":true,"internalType":"uint256","name":"battleId","type":"uint256"},{"indexed":true,"internalType":"address","name":"challenger","type":"address"},{"indexed":false,"internalType":"uint256","name":"challengerMechId","type":"uint256"},{"indexed":false,"internalType":"uint256","name":"stakeAmount","type":"uint256"}],"name":"BattleCreated","type":"event"},{"anonymous":false,"inputs":[{"indexed":true,"internalType":"uint256","name":"battleId","type":"uint256"},{"indexed":true,"internalType":"address","name":"defender","type":"address"},{"indexed":false,"internalType":"uint256","name":"defenderMechId","type":"uint256"}],"name":"BattleJoined","type":"event"},{"anonymous":false,"inputs":[{"indexed":true,"internalType":"address","name":"previousOwner","type":"address"},{"indexed":true,"internalType":"address","name":"newOwner","type":"address"}],"name":"OwnershipTransferred","type":"event"},{"anonymous":false,"inputs":[{"indexed":false,"internalType":"address","name":"account","type":"address"}],"name":"Paused","type":"event"},{"anonymous":false,"inputs":[{"indexed":false,"internalType":"address","name":"account","type":"address"}],"name":"Unpaused","type":"event"},{"inputs":[],"name":"MAX_ROUNDS","outputs":[{"internalType":"uint256","name":"","type":"uint256"}],"stateMutability":"view","type":"function"},{"inputs":[{"internalType":"uint256","name":"","type":"uint256"}],"name":"battles","outputs":[{"internalType":"uint256","name":"battleId","type":"uint256"},{"internalType":"address","name":"challenger","type":"address"},{"internalType":"uint256","name":"challengerMechId","type":"uint256"},{"internalType":"address","name":"defender","type":"address"},{"internalType":"uint256","name":"defenderMechId","type":"uint256"},{"internalType":"uint256","name":"stakeAmount","type":"uint256"},{"internalType":"uint256","name":"startTime","type":"uint256"},{"internalType":"enum BattleArena.BattleStatus","name":"status","type":"uint8"},{"internalType":"address","name":"winner","type":"address"}],"stateMutability":"view","type":"function"},{"inputs":[{"internalType":"uint256","name":"battleId","type":"uint256"}],"name":"cancelBattle","outputs":[],"stateMutability":"nonpayable","type":"function"},{"inputs":[{"internalType":"uint256","name":"mechId","type":"uint256"}],"name":"createBattle","outputs":[],"stateMutability":"payable","type":"function"},{"inputs":[],"name":"getActiveBattlesCount","outputs":[{"internalType":"uint256","name":"","type":"uint256"}],"stateMutability":"view","type":"function"},{"inputs":[{"internalType":"uint256","name":"battleId","type":"uint256"}],"name":"getBattle","outputs":[{"components":[{"internalType":"uint256","name":"battleId","type":"uint256"},{"internalType":"address","name":"challenger","type":"address"},{"internalType":"uint256","name":"challengerMechId","type":"uint256"},{"internalType":"address","name":"defender","type":"address"},{"internalType":"uint256","name":"defenderMechId","type":"uint256"},{"internalType":"uint256","name":"stakeAmount","type":"uint256"},{"internalType":"uint256","name":"startTime","type":"uint256"},{"internalType":"enum BattleArena.BattleStatus","name":"status","type":"uint8"},{"internalType":"address","name":"winner","type":"address"},{"internalType":"uint256[]","name":"roundResults","type":"uint256[]"}],"internalType":"struct BattleArena.Battle","name":"","type":"tuple"}],"stateMutability":"view","type":"function"},{"inputs":[{"internalType":"uint256","name":"mechId","type":"uint256"}],"name":"getBattleForMech","outputs":[{"internalType":"uint256","name":"","type":"uint256"}],"stateMutability":"view","type":"function"},{"inputs":[{"internalType":"uint256","name":"start","type":"uint256"},{"internalType":"uint256","name":"count","type":"uint256"}],"name":"getPendingBattles","outputs":[{"components":[{"internalType":"uint256","name":"battleId","type":"uint256"},{"internalType":"address","name":"challenger","type":"address"},{"internalType":"uint256","name":"challengerMechId","type":"uint256"},{"internalType":"address","name":"defender","type":"address"},{"internalType":"uint256","name":"defenderMechId","type":"uint256"},{"internalType":"uint256","name":"stakeAmount","type":"uint256"},{"internalType":"uint256","name":"startTime","type":"uint256"},{"internalType":"enum BattleArena.BattleStatus","name":"status","type":"uint8"},{"internalType":"address","name":"winner","type":"address"},{"internalType":"uint256[]","name":"roundResults","type":"uint256[]"}],"internalType":"struct BattleArena.Battle[]","name":"","type":"tuple[]"}],"stateMutability":"view","type":"function"},{"inputs":[{"internalType":"address","name":"player","type":"address"}],"name":"getPlayerStats","outputs":[{"internalType":"uint256","name":"wins","type":"uint256"},{"internalType":"uint256","name":"losses","type":"uint256"},{"internalType":"uint256","name":"earnings","type":"uint256"},{"internalType":"uint256","name":"winRate","type":"uint256"}],"stateMutability":"view","type":"function"},{"inputs":[{"internalType":"uint256","name":"count","type":"uint256"}],"name":"getRecentBattles","outputs":[{"components":[{"internalType":"uint256","name":"battleId","type":"uint256"},{"internalType":"address","name":"challenger","type":"address"},{"internalType":"uint256","name":"challengerMechId","type":"uint256"},{"internalType":"address","name":"defender","type":"address"},{"internalType":"uint256","name":"defenderMechId","type":"uint256"},{"internalType":"uint256","name":"stakeAmount","type":"uint256"},{"internalType":"uint256","name":"startTime","type":"uint256"},{"internalType":"enum BattleArena.BattleStatus","name":"status","type":"uint8"},{"internalType":"address","name":"winner","type":"address"},{"internalType":"uint256[]","name":"roundResults","type":"uint256[]"}],"internalType":"struct BattleArena.Battle[]","name":"","type":"tuple[]"}],"stateMutability":"view","type":"function"},{"inputs":[{"internalType":"uint256","name":"mechId","type":"uint256"}],"name":"isMechInBattle","outputs":[{"internalType":"bool","name":"","type":"bool"}],"stateMutability":"view","type":"function"},{"inputs":[{"internalType":"uint256","name":"battleId","type":"uint256"},{"internalType":"uint256","name":"mechId","type":"uint256"}],"name":"joinBattle","outputs":[],"stateMutability":"payable","type":"function"},{"inputs":[],"name":"maxStake","outputs":[{"internalType":"uint256","name":"","type":"uint256"}],"stateMutability":"view","type":"function"},{"inputs":[],"name":"mechNFT","outputs":[{"internalType":"contract IMechNFT","name":"","type":"address"}],"stateMutability":"view","type":"function"},{"inputs":[{"internalType":"uint256","name":"","type":"uint256"}],"name":"mechToBattle","outputs":[{"internalType":"uint256","name":"","type":"uint256"}],"stateMutability":"view","type":"function"},{"inputs":[],"name":"minStake","outputs":[{"internalType":"uint256","name":"","type":"uint256"}],"stateMutability":"view","type":"function"},{"inputs":[],"name":"owner","outputs":[{"internalType":"address","name":"","type":"address"}],"stateMutability":"view","type":"function"},{"inputs":[],"name":"pause","outputs":[],"stateMutability":"nonpayable","type":"function"},{"inputs":[],"name":"paused","outputs":[{"internalType":"bool","name":"","type":"bool"}],"stateMutability":"view","type":"function"},{"inputs":[],"name":"platformFeePercent","outputs":[{"internalType":"uint256","name":"","type":"uint256"}],"stateMutability":"view","type":"function"},{"inputs":[{"internalType":"address","name":"","type":"address"}],"name":"playerLosses","outputs":[{"internalType":"uint256","name":"","type":"uint256"}],"stateMutability":"view","type":"function"},{"inputs":[{"internalType":"address","name":"","type":"address"}],"name":"playerTotalEarnings","outputs":[{"internalType":"uint256","name":"","type":"uint256"}],"stateMutability":"view","type":"function"},{"inputs":[{"internalType":"address","name":"","type":"address"}],"name":"playerWins","outputs":[{"internalType":"uint256","name":"","type":"uint256"}],"stateMutability":"view","type":"function"},{"inputs":[],"name":"renounceOwnership","outputs":[],"stateMutability":"nonpayable","type":"function"},{"inputs":[{"internalType":"address","name":"_mechNFT","type":"address"}],"name":"setMechNFT","outputs":[],"stateMutability":"nonpayable","type":"function"},{"inputs":[{"internalType":"uint256","name":"newFee","type":"uint256"}],"name":"setPlatformFee","outputs":[],"stateMutability":"nonpayable","type":"function"},{"inputs":[{"internalType":"uint256","name":"min","type":"uint256"},{"internalType":"uint256","name":"max","type":"uint256"}],"name":"setStakeLimits","outputs":[],"stateMutability":"nonpayable","type":"function"},{"inputs":[{"internalType":"address","name":"newOwner","type":"address"}],"name":"transferOwnership","outputs":[],"stateMutability":"nonpayable","type":"function"},{"inputs":[],"name":"unpause","outputs":[],"stateMutability":"nonpayable","type":"function"},{"inputs":[],"name":"withdraw","outputs":[],"stateMutability":"nonpayable","type":"function"},{"stateMutability":"payable","type":"receive"}],"evm":{"bytecode":{"linkReferences":{},"object":"60803461010257601f61222c38819003918201601f19168301916001600160401b038311848410176101075780849260209460405283398101031261010257516001600160a01b039081811681036101025733156100e9576000543360018060a01b0319821617600055604051923391167f8be0079c531659141344cd1fd0a4f28419497f9722a3daafe3b4186f6b6457e0600080a3600180805560028054655af3107a4000600955670de0b6b3a7640000600a556005600b556001600160a81b03191660089390931b610100600160a81b03169290921790915560035561210e908161011e8239f35b604051631e4fbdf760e01b815260006004820152602490fd5b600080fd5b634e487b7160e01b600052604160045260246000fdfe6080604052600436101561001b575b361561001957600080fd5b005b600060e08135811c908163068a1e4914611a565781630ae6605d14610e3e57816312e8e2c3146119f757816316010ae1146119ca578163375b3c0a146119ac5781633b6806eb146118595781633ccfd60b146117e65781633f4ba83a1461177b57816341d355821461175f5781634c4c447e1461161b5781634fd66eae1461155b5781635c975abb14611538578163606d2e961461149f5781636dd0ce7a14611399578163715018a61461133f57816383d62069146113025781638456cb59146112a75781638b31fb891461126a5781638c639a851461124c5781638c9bd1b5146111ed5781638da5cb5b146111c657816394d44f1214610e68578163b647b17b14610e3e578163cc4bbb2714610c4257508063e44dba4f146102ec578063ea1b28e0146102ce578063efd3993814610279578063f2fde38b146101e3578063fb6b7cad146101b75763fedb848a14610174575061000e565b346101b45760203660031901126101b4576004356001600160a01b038116908190036101b0578160409160209352600783522054604051908152f35b5080fd5b80fd5b50346101b45760203660031901126101b457604060209160043581526005835220541515604051908152f35b50346101b45760203660031901126101b4576004356001600160a01b038181169182900361027557610213611c60565b811561025c57600054826bffffffffffffffffffffffff60a01b821617600055167f8be0079c531659141344cd1fd0a4f28419497f9722a3daafe3b4186f6b6457e0600080a380f35b604051631e4fbdf760e01b815260048101849052602490fd5b8280fd5b50346101b45760203660031901126101b4576004356001600160a01b03811681036101b0576102a6611c60565b60028054610100600160a81b03191660089290921b610100600160a81b031691909117905580f35b50346101b457806003193601126101b4576020600a54604051908152f35b506102f636611c45565b6102fe611f15565b610306611ef7565b81151580610c36575b61031890611f38565b6002546040516331a9108f60e11b81526004810183905260089190911c6001600160a01b031690602081602481855afa8015610c2b5761036a918691610bfc575b506001600160a01b03163314611d30565b8184526005602052610380604085205415611d6d565b82845260046020526040842090600782015460ff81166004811015610be8576103a99015611f78565b60018301546001600160a01b03163314610baa5760058301543403610b72576101806024926040519384809263a86c6d3360e01b82528860048301525afa8015610b4657610160610407916001948991610b51575b50015115611e5e565b60038301336bffffffffffffffffffffffff60a01b82541617905583600484015560ff19161760078201556006429101558083526005602052816040842055604051908152817fa47b02d2d7d744d434c03db59a4362b0fc7a74d04df715cc6200d66fd65df98960203393a3808252600460208190526040808420600280549082018054935163a86c6d3360e01b81529485019390935260081c6001600160a01b031693909161018084602481885afa938415610b46578694610b23575b506004830193610180855460246040518099819363a86c6d3360e01b835260048301525afa958615610b18578796610ae5575b5060a061051c61050e8351602085015190611fb9565b604084015160011c90611fb9565b91015180600a810204600a1481151715610ad15761057d91600a610541920290611fb9565b6064610576600a60405160208101904282528860408201528c60608201526060815261056c81611cd3565b5190200683611ee4565b0490611fb9565b9460a061059361050e8351602085015190611fb9565b91015180600a810204600a1481151715610ad1576105ba889792600a6105e6930290611fb9565b6064610576600a6040516020810190428252896040820152600160608201526060815261056c81611cd3565b8690879288905b6005821061097e575b505050106109555760018060a01b036001840154169360018060a01b036003850154169180549460058354915b600781018054610100600160a81b03191660088b901b610100600160a81b0316178155600260ff198254161790550154808060011b046002148115171561094157610683906064610679600b548360011b611ee4565b049060011b611fc6565b6001600160a01b038816895260066020526040892080549197916106a690611e9b565b90556001600160a01b038516895260076020526040892080546106c890611e9b565b90556001600160a01b038816895260086020526040892080546106ec908990611fb9565b9055600254899060081c6001600160a01b0316803b156101b057819060446040518094819363a92ae9e760e01b8352876004840152600160248401525af1801561093657610921575b506002548992919060081c6001600160a01b0316803b156108ea5783809160446040518094819363a92ae9e760e01b83528860048401528160248401525af190811561090257849161090d575b505060025460081c6001600160a01b0316803b156108ea5783809160446040518094819363953b6a9160e01b978884526004840152603260248401525af19081156109025784916108ee575b505060025460081c6001600160a01b031691823b156108ea576044849283604051958694859384526004840152601460248401525af180156108df576108c7575b50505486526005602052604080872087905590548652852085905584808080866001600160a01b0389165af1610843611fd3565b501561088a576040519283526001600160a01b039081169316917f421ba982635e0ddaf6b2f3153e1338640889b5dac9c483c7a07456fdb161b30390602090a46001805580f35b60405162461bcd60e51b8152602060048201526015602482015274141c9a5e99481d1c985b9cd9995c8819985a5b1959605a1b6044820152606490fd5b6108d090611cbf565b6108db57868861080f565b8680fd5b6040513d84823e3d90fd5b8380fd5b6108f790611cbf565b61027557828b6107ce565b6040513d86823e3d90fd5b61091690611cbf565b61027557828b610782565b61092e9099919299611cbf565b979089610735565b6040513d8c823e3d90fd5b634e487b7160e01b89526011600452602489fd5b60018060a01b036003840154169360018060a01b03600185015416918154946005825491610623565b90919796959493926040514260208201528660408201528360608201526080448183015281528060a081011067ffffffffffffffff60a083011117610a7b5760a08101604052602081519101206109e760326109dc81840686611fb9565b9260401c068b611fb9565b11610a8f576109f590611e9b565b916008870154600160401b811015610a7b57600181018060088a0155811015610a6757600190600889018c5260208c2001555b60038310801590610a5c575b610a4f57610a4190611e9b565b9097919293949596976105ed565b82939495969798506105f6565b506003841015610a34565b634e487b7160e01b8b52603260045260248bfd5b634e487b7160e01b8b52604160045260248bfd5b9192610a9a90611e9b565b926008870154600160401b811015610a7b57600181018060088a0155811015610a6757600290600889018c5260208c200155610a28565b634e487b7160e01b88526011600452602488fd5b610b0a9196506101803d61018011610b11575b610b028183611cef565b810190611db2565b94386104f8565b503d610af8565b6040513d89823e3d90fd5b610b3f9194506101803d61018011610b1157610b028183611cef565b92386104c5565b6040513d88823e3d90fd5b610b6c91506101803d61018011610b1157610b028183611cef565b386103fe565b60405162461bcd60e51b815260206004820152601060248201526f4d757374206d61746368207374616b6560801b6044820152606490fd5b60405162461bcd60e51b815260206004820152601660248201527521b0b73737ba103130ba3a3632903cb7bab939b2b63360511b6044820152606490fd5b634e487b7160e01b87526021600452602487fd5b610c1e915060203d602011610c24575b610c168183611cef565b810190611d11565b38610359565b503d610c0c565b6040513d87823e3d90fd5b5060035482111561030f565b9050346101b057610c5236611c45565b839193926001936003928354955b868110610df9575081811115610df15750925b610c7c8461205e565b938196801515600014610de9575b86811080610de0575b15610dce5780835260206004815260ff906007918083604088200154166004811015610be85715610cd0575b505050610ccb90611e9b565b610c8a565b83869b949b52600482526040862060405193610ceb85611c8c565b8154855260018201546001600160a01b0390811685870152600283015460408701528a8301548116606087015260048301546080870152600583015460a0870152600683015460c08701529082015492610d499084168a8701611ed8565b600892831c1661010085015201604051809280835492838152019288528088209188915b818310610db757505050509181610d8d610ccb9593610dae950382611cef565b610120820152610d9d828a6120ae565b52610da881896120ae565b50611e9b565b97903880610cbf565b835485529384019360019384019390920191610d6d565b60405180610ddc8882611be3565b0390f35b50818810610c93565b506001610c8a565b905092610c73565b808652600460205260ff6007604088200154166004811015610be85715610e29575b610e2490611e9b565b610c60565b91610e36610e2491611e9b565b929050610e1b565b82346101b45760203660031901126101b45760406020916004358152600583522054604051908152f35b905060203660031901126101b057610e7e611f15565b610e86611ef7565b6002546040516331a9108f60e11b8152600480359082015260089190911c6001600160a01b031690602081602481855afa801561090257610ed8918591610bfc57506001600160a01b03163314611d30565b60043583526005602052610ef0604084205415611d6d565b600954341015806111ba575b1561117e57604051809163a86c6d3360e01b825260043560048301528160246101809384935afa801561090257610f4292610160928692611161575b5050015115611e5e565b60035490610f4f82611e9b565b600355604051906020820182811067ffffffffffffffff8211176111395760405283825260405191610f8083611c8c565b838352336020808501918252600480356040808801918252606088018a8152608089018b81523460a08b019081524260c08c01908152998b018d81526101008c018e90526101208c01999099528b8d5295859052918b208951815595516001870180546001600160a01b03199081166001600160a01b0393841617909155935160028801559051600387018054909416911617909155518382015590516005830155925160068201559051909160078301919081101561114d5781546101008501516001600160a81b031990911660ff90921691909117600891821b610100600160a81b03161790915561012091019101519081519167ffffffffffffffff831161113957600160401b8311611139578154838355808410611113575b5060200190845260208420845b8381106110ff578585600435825260056020528060408320556040519060043582523460208301527faaaf7877a566d2da8915c533d92ec10980e1cf937137ea20a9873bef06651c8c60403393a36001805580f35b6001906020845194019381840155016110aa565b828652836020872091820191015b81811061112e575061109d565b868155600101611121565b634e487b7160e01b85526041600452602485fd5b634e487b7160e01b86526021600452602486fd5b6111779250803d10610b1157610b028183611cef565b3880610f38565b60405162461bcd60e51b8152602060048201526014602482015273125b9d985b1a59081cdd185ad948185b5bdd5b9d60621b6044820152606490fd5b50600a54341115610efc565b82346101b457806003193601126101b457546040516001600160a01b039091168152602090f35b82346101b4576111fc36611c45565b90611205611c60565b8181101561121657600955600a5580f35b60405162461bcd60e51b815260206004820152600e60248201526d496e76616c6964206c696d69747360901b6044820152606490fd5b82346101b457806003193601126101b4576020600b54604051908152f35b82346101b45760203660031901126101b4576004356001600160a01b038116908190036101b0578160409160209352600683522054604051908152f35b82346101b457806003193601126101b4576112c0611c60565b6112c8611ef7565b600160ff1960025416176002557f62e78cea01bee320cd4e420270b5ea74000d11b0c9f74754ebdbfc544b05a2586020604051338152a180f35b82346101b45760203660031901126101b4576004356001600160a01b038116908190036101b0578160409160209352600883522054604051908152f35b82346101b457806003193601126101b457611358611c60565b80546001600160a01b03198116825581906001600160a01b03167f8be0079c531659141344cd1fd0a4f28419497f9722a3daafe3b4186f6b6457e08280a380f35b82346101b457602090816003193601126101b4576113b5612013565b5060043581526004825260408120926008604051946113d386611c8c565b8054865260018060a01b03600193818584015416878901526002830154604089015281600384015416606089015260048301546080890152600583015460a0890152600683015460c089015261143460078401549160ff8316908a01611ed8565b831c16610100870152019060405191829384928683549586815201928252868220915b87868210611489575050505061146f92500382611cef565b610120830152610ddc604051928284938452830190611b30565b8354855287955090930192918101918101611457565b9050346101b05760203660031901126101b05760406101209260043581526004602052209081549161152c60018060a01b0392836001840154169260028101548560038301541660048301549060058401549260076006860154950154976040519a8b5260208b015260408a01526060890152608088015260a087015260c0860152840160ff8316611b0d565b60081c16610100820152f35b82346101b457806003193601126101b457602060ff600254166040519015158152f35b82346101b45760203660031901126101b4576004356001600160a01b038116908190036101b05781526006602052604081205460076020526040822054600860205260408320546115ac8284611fb9565b801580611610576064850290858204606414861517156115fc576115e8576080955004915b604051938452602084015260408301526060820152f35b634e487b7160e01b86526012600452602486fd5b634e487b7160e01b87526011600452602487fd5b5050608093916115d1565b82346101b45760203660031901126101b457600435611638611f15565b80151580611753575b61164a90611f38565b80825260046020526040822060018101546001600160a01b0316330361171d5760078101805460ff8116600481101561114d5760058694859460038695611692879615611f78565b60ff191617905560028101548352816020528260408120550154335af16116b7611fd3565b50156116e8577fe10fd8c156678d18df7daf6dd3e15b95c6d350ee99272630fcad6dde9bef0d0c8280a26001805580f35b60405162461bcd60e51b815260206004820152600d60248201526c1499599d5b990819985a5b1959609a1b6044820152606490fd5b60405162461bcd60e51b815260206004820152600e60248201526d2737ba1031b430b63632b733b2b960911b6044820152606490fd5b50600354811115611641565b82346101b457806003193601126101b457602060405160058152f35b82346101b457806003193601126101b457611794611c60565b60025460ff8116156117d45760ff19166002557f5db9ee0a495bf2e6ff9c91a7834c1ba4fdd244a5e8aa4e537bd38aeae4b073aa6020604051338152a180f35b604051638dfc202b60e01b8152600490fd5b82346101b457806003193601126101b4576117ff611c60565b8080808060018060a01b0381541647905af1611819611fd3565b50156118225780f35b60405162461bcd60e51b815260206004820152600f60248201526e15da5d1a191c985dc819985a5b1959608a1b6044820152606490fd5b9050346101b057602080600319360112610275576004359160039182549360001985019485116119985784811115611992575083925b6118988461205e565b94865b8581106118b05760405180610ddc8982611be3565b806118bc859284611fc6565b89526004825260408920604051906118d382611c8c565b805482526001808201546001600160a01b039081168685015260028301546040850152878301548116606085015260048301546080850152600583015460a0850152600683015460c0850152600783015491929061193660ff84168c8701611ed8565b600892831c16610100850152018b6040518093878454928381520193835287832092915b80831061197b5750505050611976945081610d8d910382611cef565b61189b565b835485528b9890940193928101929181019161195a565b9261188f565b634e487b7160e01b86526011600452602486fd5b82346101b457806003193601126101b4576020600954604051908152f35b82346101b457806003193601126101b45760025460405160089190911c6001600160a01b03168152602090f35b82346101b45760203660031901126101b457600435611a14611c60565b60148111611a2257600b5580f35b60405162461bcd60e51b815260206004820152600c60248201526b08ccaca40e8dede40d0d2ced60a31b6044820152606490fd5b82346101b457806003193601126101b45780600180600354915b828110611a8257602084604051908152f35b80855260206004815260ff6007818160408a200154166004811015611af95715928315611ad5575b505050611ac0575b611abb90611e9b565b611a70565b92611acd611abb91611e9b565b939050611ab2565b6004919293508489525260408720015416600481101561114d578214868080611aaa565b634e487b7160e01b89526021600452602489fd5b906004821015611b1a5752565b634e487b7160e01b600052602160045260246000fd5b9061014090818101908351815261016060018060a01b0391602094838694858901511685840152604088015160408401528060608901511660608401526080880151608084015260a088015160a084015260c088015160c0840152611b9d60e089015160e0850190611b0d565b61010090818901511690830152610120809701519682015285518094520193019160005b828110611bcf575050505090565b835185529381019392810192600101611bc1565b602080820190808352835180925260408301928160408460051b8301019501936000915b848310611c175750505050505090565b9091929394958480611c35600193603f198682030187528a51611b30565b9801930193019194939290611c07565b6040906003190112611c5b576004359060243590565b600080fd5b6000546001600160a01b03163303611c7457565b60405163118cdaa760e01b8152336004820152602490fd5b610140810190811067ffffffffffffffff821117611ca957604052565b634e487b7160e01b600052604160045260246000fd5b67ffffffffffffffff8111611ca957604052565b6080810190811067ffffffffffffffff821117611ca957604052565b90601f8019910116810190811067ffffffffffffffff821117611ca957604052565b90816020910312611c5b57516001600160a01b0381168103611c5b5790565b15611d3757565b60405162461bcd60e51b815260206004820152600e60248201526d2737ba1036b2b1b41037bbb732b960911b6044820152606490fd5b15611d7457565b60405162461bcd60e51b81526020600482015260166024820152754d65636820616c726561647920696e20626174746c6560501b6044820152606490fd5b80916101809283910312611c5b5760405191820182811067ffffffffffffffff821117611ca957604052805182526020810151602083015260408101516040830152606081015160608301526080810151608083015260a081015160a083015260c081015160c083015260e081015160e083015261010080820151908301526101208082015190830152610140808201519083015261016080910151908115158203611c5b5782015290565b15611e6557565b60405162461bcd60e51b815260206004820152600e60248201526d135958da081a5cc81cdd185ad95960921b6044820152606490fd5b6000198114611eaa5760010190565b634e487b7160e01b600052601160045260246000fd5b67ffffffffffffffff8111611ca95760051b60200190565b6004821015611b1a5752565b81810292918115918404141715611eaa57565b60ff60025416611f0357565b60405163d93c066560e01b8152600490fd5b600260015414611f26576002600155565b604051633ee5aeb560e01b8152600490fd5b15611f3f57565b60405162461bcd60e51b8152602060048201526011602482015270125b9d985b1a590818985d1d1b19481251607a1b6044820152606490fd5b15611f7f57565b60405162461bcd60e51b8152602060048201526012602482015271426174746c65206e6f742070656e64696e6760701b6044820152606490fd5b91908201809211611eaa57565b91908203918211611eaa57565b3d1561200e573d9067ffffffffffffffff8211611ca95760405191612002601f8201601f191660200184611cef565b82523d6000602084013e565b606090565b6040519061202082611c8c565b606061012083600080825280602083015280604083015280848301528060808301528060a08301528060c08301528060e08301526101008201520152565b9061206882611ec0565b6120756040519182611cef565b8281528092612086601f1991611ec0565b019060005b82811061209757505050565b6020906120a2612013565b8282850101520161208b565b80518210156120c25760209160051b010190565b634e487b7160e01b600052603260045260246000fdfea26469706673582212200399e47ad8b668cbcb63edc27bf66c1f7a0c13f1db6a376b8f9724b751ff4df364736f6c63430008140033","opcodes":"PUSH1 0x80 CALLVALUE PUSH2 0x102 JUMPI PUSH1 0x1F PUSH2 0x222C CODESIZE DUP2 SWAP1 SUB SWAP2 DUP3 ADD PUSH1 0x1F NOT AND DUP4 ADD SWAP2 PUSH1 0x1 PUSH1 0x1 PUSH1 0x40 SHL SUB DUP4 GT DUP5 DUP5 LT OR PUSH2 0x107 JUMPI DUP1 DUP5 SWAP3 PUSH1 0x20 SWAP5 PUSH1 0x40 MSTORE DUP4 CODECOPY DUP2 ADD SUB SLT PUSH2 0x102 JUMPI MLOAD PUSH1 0x1 PUSH1 0x1 PUSH1 0xA0 SHL SUB SWAP1 DUP2 DUP2 AND DUP2 SUB PUSH2 0x102 JUMPI CALLER ISZERO PUSH2 0xE9 JUMPI PUSH1 0x0 SLOAD CALLER PUSH1 0x1 DUP1 PUSH1 0xA0 SHL SUB NOT DUP3 AND OR PUSH1 0x0 SSTORE PUSH1 0x40 MLOAD SWAP3 CALLER SWAP2 AND PUSH32 0x8BE0079C531659141344CD1FD0A4F28419497F9722A3DAAFE3B4186F6B6457E0 PUSH1 0x0 DUP1 LOG3 PUSH1 0x1 DUP1 DUP1 SSTORE PUSH1 0x2 DUP1 SLOAD PUSH6 0x5AF3107A4000 PUSH1 0x9 SSTORE PUSH8 0xDE0B6B3A7640000 PUSH1 0xA SSTORE PUSH1 0x5 PUSH1 0xB SSTORE PUSH1 0x1 PUSH1 0x1 PUSH1 0xA8 SHL SUB NOT AND PUSH1 0x8 SWAP4 SWAP1 SWAP4 SHL PUSH2 0x100 PUSH1 0x1 PUSH1 0xA8 SHL SUB AND SWAP3 SWAP1 SWAP3 OR SWAP1 SWAP2 SSTORE PUSH1 0x3 SSTORE PUSH2 0x210E SWAP1 DUP2 PUSH2 0x11E DUP3 CODECOPY RETURN JUMPDEST PUSH1 0x40 MLOAD PUSH4 0x1E4FBDF7 PUSH1 0xE0 SHL DUP2 MSTORE PUSH1 0x0 PUSH1 0x4 DUP3 ADD MSTORE PUSH1 0x24 SWAP1 REVERT JUMPDEST PUSH1 0x0 DUP1 REVERT JUMPDEST PUSH4 0x4E487B71 PUSH1 0xE0 SHL PUSH1 0x0 MSTORE PUSH1 0x41 PUSH1 0x4 MSTORE PUSH1 0x24 PUSH1 0x0 REVERT INVALID PUSH1 0x80 PUSH1 0x40 MSTORE PUSH1 0x4 CALLDATASIZE LT ISZERO PUSH2 0x1B JUMPI JUMPDEST CALLDATASIZE ISZERO PUSH2 0x19 JUMPI PUSH1 0x0 DUP1 REVERT JUMPDEST STOP JUMPDEST PUSH1 0x0 PUSH1 0xE0 DUP2 CALLDATALOAD DUP2 SHR SWAP1 DUP2 PUSH4 0x68A1E49 EQ PUSH2 0x1A56 JUMPI DUP2 PUSH4 0xAE6605D EQ PUSH2 0xE3E JUMPI DUP2 PUSH4 0x12E8E2C3 EQ PUSH2 0x19F7 JUMPI DUP2 PUSH4 0x16010AE1 EQ PUSH2 0x19CA JUMPI DUP2 PUSH4 0x375B3C0A EQ PUSH2 0x19AC JUMPI DUP2 PUSH4 0x3B6806EB EQ PUSH2 0x1859 JUMPI DUP2 PUSH4 0x3CCFD60B EQ PUSH2 0x17E6 JUMPI DUP2 PUSH4 0x3F4BA83A EQ PUSH2 0x177B JUMPI DUP2 PUSH4 0x41D35582 EQ PUSH2 0x175F JUMPI DUP2 PUSH4 0x4C4C447E EQ PUSH2 0x161B JUMPI DUP2 PUSH4 0x4FD66EAE EQ PUSH2 0x155B JUMPI DUP2 PUSH4 0x5C975ABB EQ PUSH2 0x1538 JUMPI DUP2 PUSH4 0x606D2E96 EQ PUSH2 0x149F JUMPI DUP2 PUSH4 0x6DD0CE7A EQ PUSH2 0x1399 JUMPI DUP2 PUSH4 0x715018A6 EQ PUSH2 0x133F JUMPI DUP2 PUSH4 0x83D62069 EQ PUSH2 0x1302 JUMPI DUP2 PUSH4 0x8456CB59 EQ PUSH2 0x12A7 JUMPI DUP2 PUSH4 0x8B31FB89 EQ PUSH2 0x126A JUMPI DUP2 PUSH4 0x8C639A85 EQ PUSH2 0x124C JUMPI DUP2 PUSH4 0x8C9BD1B5 EQ PUSH2 0x11ED JUMPI DUP2 PUSH4 0x8DA5CB5B EQ PUSH2 0x11C6 JUMPI DUP2 PUSH4 0x94D44F12 EQ PUSH2 0xE68 JUMPI DUP2 PUSH4 0xB647B17B EQ PUSH2 0xE3E JUMPI DUP2 PUSH4 0xCC4BBB27 EQ PUSH2 0xC42 JUMPI POP DUP1 PUSH4 0xE44DBA4F EQ PUSH2 0x2EC JUMPI DUP1 PUSH4 0xEA1B28E0 EQ PUSH2 0x2CE JUMPI DUP1 PUSH4 0xEFD39938 EQ PUSH2 0x279 JUMPI DUP1 PUSH4 0xF2FDE38B EQ PUSH2 0x1E3 JUMPI DUP1 PUSH4 0xFB6B7CAD EQ PUSH2 0x1B7 JUMPI PUSH4 0xFEDB848A EQ PUSH2 0x174 JUMPI POP PUSH2 0xE JUMP JUMPDEST CALLVALUE PUSH2 0x1B4 JUMPI PUSH1 0x20 CALLDATASIZE PUSH1 0x3 NOT ADD SLT PUSH2 0x1B4 JUMPI PUSH1 0x4 CALLDATALOAD PUSH1 0x1 PUSH1 0x1 PUSH1 0xA0 SHL SUB DUP2 AND SWAP1 DUP2 SWAP1 SUB PUSH2 0x1B0 JUMPI DUP2 PUSH1 0x40 SWAP2 PUSH1 0x20 SWAP4 MSTORE PUSH1 0x7 DUP4 MSTORE KECCAK256 SLOAD PUSH1 0x40 MLOAD SWAP1 DUP2 MSTORE RETURN JUMPDEST POP DUP1 REVERT JUMPDEST DUP1 REVERT JUMPDEST POP CALLVALUE PUSH2 0x1B4 JUMPI PUSH1 0x20 CALLDATASIZE PUSH1 0x3 NOT ADD SLT PUSH2 0x1B4 JUMPI PUSH1 0x40 PUSH1 0x20 SWAP2 PUSH1 0x4 CALLDATALOAD DUP2 MSTORE PUSH1 0x5 DUP4 MSTORE KECCAK256 SLOAD ISZERO ISZERO PUSH1 0x40 MLOAD SWAP1 DUP2 MSTORE RETURN JUMPDEST POP CALLVALUE PUSH2 0x1B4 JUMPI PUSH1 0x20 CALLDATASIZE PUSH1 0x3 NOT ADD SLT PUSH2 0x1B4 JUMPI PUSH1 0x4 CALLDATALOAD PUSH1 0x1 PUSH1 0x1 PUSH1 0xA0 SHL SUB DUP2 DUP2 AND SWAP2 DUP3 SWAP1 SUB PUSH2 0x275 JUMPI PUSH2 0x213 PUSH2 0x1C60 JUMP JUMPDEST DUP2 ISZERO PUSH2 0x25C JUMPI PUSH1 0x0 SLOAD DUP3 PUSH12 0xFFFFFFFFFFFFFFFFFFFFFFFF PUSH1 0xA0 SHL DUP3 AND OR PUSH1 0x0 SSTORE AND PUSH32 0x8BE0079C531659141344CD1FD0A4F28419497F9722A3DAAFE3B4186F6B6457E0 PUSH1 0x0 DUP1 LOG3 DUP1 RETURN JUMPDEST PUSH1 0x40 MLOAD PUSH4 0x1E4FBDF7 PUSH1 0xE0 SHL DUP2 MSTORE PUSH1 0x4 DUP2 ADD DUP5 SWAP1 MSTORE PUSH1 0x24 SWAP1 REVERT JUMPDEST DUP3 DUP1 REVERT JUMPDEST POP CALLVALUE PUSH2 0x1B4 JUMPI PUSH1 0x20 CALLDATASIZE PUSH1 0x3 NOT ADD SLT PUSH2 0x1B4 JUMPI PUSH1 0x4 CALLDATALOAD PUSH1 0x1 PUSH1 0x1 PUSH1 0xA0 SHL SUB DUP2 AND DUP2 SUB PUSH2 0x1B0 JUMPI PUSH2 0x2A6 PUSH2 0x1C60 JUMP JUMPDEST PUSH1 0x2 DUP1 SLOAD PUSH2 0x100 PUSH1 0x1 PUSH1 0xA8 SHL SUB NOT AND PUSH1 0x8 SWAP3 SWAP1 SWAP3 SHL PUSH2 0x100 PUSH1 0x1 PUSH1 0xA8 SHL SUB AND SWAP2 SWAP1 SWAP2 OR SWAP1 SSTORE DUP1 RETURN JUMPDEST POP CALLVALUE PUSH2 0x1B4 JUMPI DUP1 PUSH1 0x3 NOT CALLDATASIZE ADD SLT PUSH2 0x1B4 JUMPI PUSH1 0x20 PUSH1 0xA SLOAD PUSH1 0x40 MLOAD SWAP1 DUP2 MSTORE RETURN JUMPDEST POP PUSH2 0x2F6 CALLDATASIZE PUSH2 0x1C45 JUMP JUMPDEST PUSH2 0x2FE PUSH2 0x1F15 JUMP JUMPDEST PUSH2 0x306 PUSH2 0x1EF7 JUMP JUMPDEST DUP2 ISZERO ISZERO DUP1 PUSH2 0xC36 JUMPI JUMPDEST PUSH2 0x318 SWAP1 PUSH2 0x1F38 JUMP JUMPDEST PUSH1 0x2 SLOAD PUSH1 0x40 MLOAD PUSH4 0x31A9108F PUSH1 0xE1 SHL DUP2 MSTORE PUSH1 0x4 DUP2 ADD DUP4 SWAP1 MSTORE PUSH1 0x8 SWAP2 SWAP1 SWAP2 SHR PUSH1 0x1 PUSH1 0x1 PUSH1 0xA0 SHL SUB AND SWAP1 PUSH1 0x20 DUP2 PUSH1 0x24 DUP2 DUP6 GAS STATICCALL DUP1 ISZERO PUSH2 0xC2B JUMPI PUSH2 0x36A SWAP2 DUP7 SWAP2 PUSH2 0xBFC JUMPI JUMPDEST POP PUSH1 0x1 PUSH1 0x1 PUSH1 0xA0 SHL SUB AND CALLER EQ PUSH2 0x1D30 JUMP JUMPDEST DUP2 DUP5 MSTORE PUSH1 0x5 PUSH1 0x20 MSTORE PUSH2 0x380 PUSH1 0x40 DUP6 KECCAK256 SLOAD ISZERO PUSH2 0x1D6D JUMP JUMPDEST DUP3 DUP5 MSTORE PUSH1 0x4 PUSH1 0x20 MSTORE PUSH1 0x40 DUP5 KECCAK256 SWAP1 PUSH1 0x7 DUP3 ADD SLOAD PUSH1 0xFF DUP2 AND PUSH1 0x4 DUP2 LT ISZERO PUSH2 0xBE8 JUMPI PUSH2 0x3A9 SWAP1 ISZERO PUSH2 0x1F78 JUMP JUMPDEST PUSH1 0x1 DUP4 ADD SLOAD PUSH1 0x1 PUSH1 0x1 PUSH1 0xA0 SHL SUB AND CALLER EQ PUSH2 0xBAA JUMPI PUSH1 0x5 DUP4 ADD SLOAD CALLVALUE SUB PUSH2 0xB72 JUMPI PUSH2 0x180 PUSH1 0x24 SWAP3 PUSH1 0x40 MLOAD SWAP4 DUP5 DUP1 SWAP3 PUSH4 0xA86C6D33 PUSH1 0xE0 SHL DUP3 MSTORE DUP9 PUSH1 0x4 DUP4 ADD MSTORE GAS STATICCALL DUP1 ISZERO PUSH2 0xB46 JUMPI PUSH2 0x160 PUSH2 0x407 SWAP2 PUSH1 0x1 SWAP5 DUP10 SWAP2 PUSH2 0xB51 JUMPI JUMPDEST POP ADD MLOAD ISZERO PUSH2 0x1E5E JUMP JUMPDEST PUSH1 0x3 DUP4 ADD CALLER PUSH12 0xFFFFFFFFFFFFFFFFFFFFFFFF PUSH1 0xA0 SHL DUP3 SLOAD AND OR SWAP1 SSTORE DUP4 PUSH1 0x4 DUP5 ADD SSTORE PUSH1 0xFF NOT AND OR PUSH1 0x7 DUP3 ADD SSTORE PUSH1 0x6 TIMESTAMP SWAP2 ADD SSTORE DUP1 DUP4 MSTORE PUSH1 0x5 PUSH1 0x20 MSTORE DUP2 PUSH1 0x40 DUP5 KECCAK256 SSTORE PUSH1 0x40 MLOAD SWAP1 DUP2 MSTORE DUP2 PUSH32 0xA47B02D2D7D744D434C03DB59A4362B0FC7A74D04DF715CC6200D66FD65DF989 PUSH1 0x20 CALLER SWAP4 LOG3 DUP1 DUP3 MSTORE PUSH1 0x4 PUSH1 0x20 DUP2 SWAP1 MSTORE PUSH1 0x40 DUP1 DUP5 KECCAK256 PUSH1 0x2 DUP1 SLOAD SWAP1 DUP3 ADD DUP1 SLOAD SWAP4 MLOAD PUSH4 0xA86C6D33 PUSH1 0xE0 SHL DUP2 MSTORE SWAP5 DUP6 ADD SWAP4 SWAP1 SWAP4 MSTORE PUSH1 0x8 SHR PUSH1 0x1 PUSH1 0x1 PUSH1 0xA0 SHL SUB AND SWAP4 SWAP1 SWAP2 PUSH2 0x180 DUP5 PUSH1 0x24 DUP2 DUP9 GAS STATICCALL SWAP4 DUP5 ISZERO PUSH2 0xB46 JUMPI DUP7 SWAP5 PUSH2 0xB23 JUMPI JUMPDEST POP PUSH1 0x4 DUP4 ADD SWAP4 PUSH2 0x180 DUP6 SLOAD PUSH1 0x24 PUSH1 0x40 MLOAD DUP1 SWAP10 DUP2 SWAP4 PUSH4 0xA86C6D33 PUSH1 0xE0 SHL DUP4 MSTORE PUSH1 0x4 DUP4 ADD MSTORE GAS STATICCALL SWAP6 DUP7 ISZERO PUSH2 0xB18 JUMPI DUP8 SWAP7 PUSH2 0xAE5 JUMPI JUMPDEST POP PUSH1 0xA0 PUSH2 0x51C PUSH2 0x50E DUP4 MLOAD PUSH1 0x20 DUP6 ADD MLOAD SWAP1 PUSH2 0x1FB9 JUMP JUMPDEST PUSH1 0x40 DUP5 ADD MLOAD PUSH1 0x1 SHR SWAP1 PUSH2 0x1FB9 JUMP JUMPDEST SWAP2 ADD MLOAD DUP1 PUSH1 0xA DUP2 MUL DIV PUSH1 0xA EQ DUP2 ISZERO OR ISZERO PUSH2 0xAD1 JUMPI PUSH2 0x57D SWAP2 PUSH1 0xA PUSH2 0x541 SWAP3 MUL SWAP1 PUSH2 0x1FB9 JUMP JUMPDEST PUSH1 0x64 PUSH2 0x576 PUSH1 0xA PUSH1 0x40 MLOAD PUSH1 0x20 DUP2 ADD SWAP1 TIMESTAMP DUP3 MSTORE DUP9 PUSH1 0x40 DUP3 ADD MSTORE DUP13 PUSH1 0x60 DUP3 ADD MSTORE PUSH1 0x60 DUP2 MSTORE PUSH2 0x56C DUP2 PUSH2 0x1CD3 JUMP JUMPDEST MLOAD SWAP1 KECCAK256 MOD DUP4 PUSH2 0x1EE4 JUMP JUMPDEST DIV SWAP1 PUSH2 0x1FB9 JUMP JUMPDEST SWAP5 PUSH1 0xA0 PUSH2 0x593 PUSH2 0x50E DUP4 MLOAD PUSH1 0x20 DUP6 ADD MLOAD SWAP1 PUSH2 0x1FB9 JUMP JUMPDEST SWAP2 ADD MLOAD DUP1 PUSH1 0xA DUP2 MUL DIV PUSH1 0xA EQ DUP2 ISZERO OR ISZERO PUSH2 0xAD1 JUMPI PUSH2 0x5BA DUP9 SWAP8 SWAP3 PUSH1 0xA PUSH2 0x5E6 SWAP4 MUL SWAP1 PUSH2 0x1FB9 JUMP JUMPDEST PUSH1 0x64 PUSH2 0x576 PUSH1 0xA PUSH1 0x40 MLOAD PUSH1 0x20 DUP2 ADD SWAP1 TIMESTAMP DUP3 MSTORE DUP10 PUSH1 0x40 DUP3 ADD MSTORE PUSH1 0x1 PUSH1 0x60 DUP3 ADD MSTORE PUSH1 0x60 DUP2 MSTORE PUSH2 0x56C DUP2 PUSH2 0x1CD3 JUMP JUMPDEST DUP7 SWAP1 DUP8 SWAP3 DUP9 SWAP1 JUMPDEST PUSH1 0x5 DUP3 LT PUSH2 0x97E JUMPI JUMPDEST POP POP POP LT PUSH2 0x955 JUMPI PUSH1 0x1 DUP1 PUSH1 0xA0 SHL SUB PUSH1 0x1 DUP5 ADD SLOAD AND SWAP4 PUSH1 0x1 DUP1 PUSH1 0xA0 SHL SUB PUSH1 0x3 DUP6 ADD SLOAD AND SWAP2 DUP1 SLOAD SWAP5 PUSH1 0x5 DUP4 SLOAD SWAP2 JUMPDEST PUSH1 0x7 DUP2 ADD DUP1 SLOAD PUSH2 0x100 PUSH1 0x1 PUSH1 0xA8 SHL SUB NOT AND PUSH1 0x8 DUP12 SWAP1 SHL PUSH2 0x100 PUSH1 0x1 PUSH1 0xA8 SHL SUB AND OR DUP2 SSTORE PUSH1 0x2 PUSH1 0xFF NOT DUP3 SLOAD AND OR SWAP1 SSTORE ADD SLOAD DUP1 DUP1 PUSH1 0x1 SHL DIV PUSH1 0x2 EQ DUP2 ISZERO OR ISZERO PUSH2 0x941 JUMPI PUSH2 0x683 SWAP1 PUSH1 0x64 PUSH2 0x679 PUSH1 0xB SLOAD DUP4 PUSH1 0x1 SHL PUSH2 0x1EE4 JUMP JUMPDEST DIV SWAP1 PUSH1 0x1 SHL PUSH2 0x1FC6 JUMP JUMPDEST PUSH1 0x1 PUSH1 0x1 PUSH1 0xA0 SHL SUB DUP9 AND DUP10 MSTORE PUSH1 0x6 PUSH1 0x20 MSTORE PUSH1 0x40 DUP10 KECCAK256 DUP1 SLOAD SWAP2 SWAP8 SWAP2 PUSH2 0x6A6 SWAP1 PUSH2 0x1E9B JUMP JUMPDEST SWAP1 SSTORE PUSH1 0x1 PUSH1 0x1 PUSH1 0xA0 SHL SUB DUP6 AND DUP10 MSTORE PUSH1 0x7 PUSH1 0x20 MSTORE PUSH1 0x40 DUP10 KECCAK256 DUP1 SLOAD PUSH2 0x6C8 SWAP1 PUSH2 0x1E9B JUMP JUMPDEST SWAP1 SSTORE PUSH1 0x1 PUSH1 0x1 PUSH1 0xA0 SHL SUB DUP9 AND DUP10 MSTORE PUSH1 0x8 PUSH1 0x20 MSTORE PUSH1 0x40 DUP10 KECCAK256 DUP1 SLOAD PUSH2 0x6EC SWAP1 DUP10 SWAP1 PUSH2 0x1FB9 JUMP JUMPDEST SWAP1 SSTORE PUSH1 0x2 SLOAD DUP10 SWAP1 PUSH1 0x8 SHR PUSH1 0x1 PUSH1 0x1 PUSH1 0xA0 SHL SUB AND DUP1 EXTCODESIZE ISZERO PUSH2 0x1B0 JUMPI DUP2 SWAP1 PUSH1 0x44 PUSH1 0x40 MLOAD DUP1 SWAP5 DUP2 SWAP4 PUSH4 0xA92AE9E7 PUSH1 0xE0 SHL DUP4 MSTORE DUP8 PUSH1 0x4 DUP5 ADD MSTORE PUSH1 0x1 PUSH1 0x24 DUP5 ADD MSTORE GAS CALL DUP1 ISZERO PUSH2 0x936 JUMPI PUSH2 0x921 JUMPI JUMPDEST POP PUSH1 0x2 SLOAD DUP10 SWAP3 SWAP2 SWAP1 PUSH1 0x8 SHR PUSH1 0x1 PUSH1 0x1 PUSH1 0xA0 SHL SUB AND DUP1 EXTCODESIZE ISZERO PUSH2 0x8EA JUMPI DUP4 DUP1 SWAP2 PUSH1 0x44 PUSH1 0x40 MLOAD DUP1 SWAP5 DUP2 SWAP4 PUSH4 0xA92AE9E7 PUSH1 0xE0 SHL DUP4 MSTORE DUP9 PUSH1 0x4 DUP5 ADD MSTORE DUP2 PUSH1 0x24 DUP5 ADD MSTORE GAS CALL SWAP1 DUP2 ISZERO PUSH2 0x902 JUMPI DUP5 SWAP2 PUSH2 0x90D JUMPI JUMPDEST POP POP PUSH1 0x2 SLOAD PUSH1 0x8 SHR PUSH1 0x1 PUSH1 0x1 PUSH1 0xA0 SHL SUB AND DUP1 EXTCODESIZE ISZERO PUSH2 0x8EA JUMPI DUP4 DUP1 SWAP2 PUSH1 0x44 PUSH1 0x40 MLOAD DUP1 SWAP5 DUP2 SWAP4 PUSH4 0x953B6A91 PUSH1 0xE0 SHL SWAP8 DUP9 DUP5 MSTORE PUSH1 0x4 DUP5 ADD MSTORE PUSH1 0x32 PUSH1 0x24 DUP5 ADD MSTORE GAS CALL SWAP1 DUP2 ISZERO PUSH2 0x902 JUMPI DUP5 SWAP2 PUSH2 0x8EE JUMPI JUMPDEST POP POP PUSH1 0x2 SLOAD PUSH1 0x8 SHR PUSH1 0x1 PUSH1 0x1 PUSH1 0xA0 SHL SUB AND SWAP2 DUP3 EXTCODESIZE ISZERO PUSH2 0x8EA JUMPI PUSH1 0x44 DUP5 SWAP3 DUP4 PUSH1 0x40 MLOAD SWAP6 DUP7 SWAP5 DUP6 SWAP4 DUP5 MSTORE PUSH1 0x4 DUP5 ADD MSTORE PUSH1 0x14 PUSH1 0x24 DUP5 ADD MSTORE GAS CALL DUP1 ISZERO PUSH2 0x8DF JUMPI PUSH2 0x8C7 JUMPI JUMPDEST POP POP SLOAD DUP7 MSTORE PUSH1 0x5 PUSH1 0x20 MSTORE PUSH1 0x40 DUP1 DUP8 KECCAK256 DUP8 SWAP1 SSTORE SWAP1 SLOAD DUP7 MSTORE DUP6 KECCAK256 DUP6 SWAP1 SSTORE DUP5 DUP1 DUP1 DUP1 DUP7 PUSH1 0x1 PUSH1 0x1 PUSH1 0xA0 SHL SUB DUP10 AND GAS CALL PUSH2 0x843 PUSH2 0x1FD3 JUMP JUMPDEST POP ISZERO PUSH2 0x88A JUMPI PUSH1 0x40 MLOAD SWAP3 DUP4 MSTORE PUSH1 0x1 PUSH1 0x1 PUSH1 0xA0 SHL SUB SWAP1 DUP2 AND SWAP4 AND SWAP2 PUSH32 0x421BA982635E0DDAF6B2F3153E1338640889B5DAC9C483C7A07456FDB161B303 SWAP1 PUSH1 0x20 SWAP1 LOG4 PUSH1 0x1 DUP1 SSTORE DUP1 RETURN JUMPDEST PUSH1 0x40 MLOAD PUSH3 0x461BCD PUSH1 0xE5 SHL DUP2 MSTORE PUSH1 0x20 PUSH1 0x4 DUP3 ADD MSTORE PUSH1 0x15 PUSH1 0x24 DUP3 ADD MSTORE PUSH21 0x141C9A5E99481D1C985B9CD9995C8819985A5B1959 PUSH1 0x5A SHL PUSH1 0x44 DUP3 ADD MSTORE PUSH1 0x64 SWAP1 REVERT JUMPDEST PUSH2 0x8D0 SWAP1 PUSH2 0x1CBF JUMP JUMPDEST PUSH2 0x8DB JUMPI DUP7 DUP9 PUSH2 0x80F JUMP JUMPDEST DUP7 DUP1 REVERT JUMPDEST PUSH1 0x40 MLOAD RETURNDATASIZE DUP5 DUP3 RETURNDATACOPY RETURNDATASIZE SWAP1 REVERT JUMPDEST DUP4 DUP1 REVERT JUMPDEST PUSH2 0x8F7 SWAP1 PUSH2 0x1CBF JUMP JUMPDEST PUSH2 0x275 JUMPI DUP3 DUP12 PUSH2 0x7CE JUMP JUMPDEST PUSH1 0x40 MLOAD RETURNDATASIZE DUP7 DUP3 RETURNDATACOPY RETURNDATASIZE SWAP1 REVERT JUMPDEST PUSH2 0x916 SWAP1 PUSH2 0x1CBF JUMP JUMPDEST PUSH2 0x275 JUMPI DUP3 DUP12 PUSH2 0x782 JUMP JUMPDEST PUSH2 0x92E SWAP1 SWAP10 SWAP2 SWAP3 SWAP10 PUSH2 0x1CBF JUMP JUMPDEST SWAP8 SWAP1 DUP10 PUSH2 0x735 JUMP JUMPDEST PUSH1 0x40 MLOAD RETURNDATASIZE DUP13 DUP3 RETURNDATACOPY RETURNDATASIZE SWAP1 REVERT JUMPDEST PUSH4 0x4E487B71 PUSH1 0xE0 SHL DUP10 MSTORE PUSH1 0x11 PUSH1 0x4 MSTORE PUSH1 0x24 DUP10 REVERT JUMPDEST PUSH1 0x1 DUP1 PUSH1 0xA0 SHL SUB PUSH1 0x3 DUP5 ADD SLOAD AND SWAP4 PUSH1 0x1 DUP1 PUSH1 0xA0 SHL SUB PUSH1 0x1 DUP6 ADD SLOAD AND SWAP2 DUP2 SLOAD SWAP5 PUSH1 0x5 DUP3 SLOAD SWAP2 PUSH2 0x623 JUMP JUMPDEST SWAP1 SWAP2 SWAP8 SWAP7 SWAP6 SWAP5 SWAP4 SWAP3 PUSH1 0x40 MLOAD TIMESTAMP PUSH1 0x20 DUP3 ADD MSTORE DUP7 PUSH1 0x40 DUP3 ADD MSTORE DUP4 PUSH1 0x60 DUP3 ADD MSTORE PUSH1 0x80 PREVRANDAO DUP2 DUP4 ADD MSTORE DUP2 MSTORE DUP1 PUSH1 0xA0 DUP2 ADD LT PUSH8 0xFFFFFFFFFFFFFFFF PUSH1 0xA0 DUP4 ADD GT OR PUSH2 0xA7B JUMPI PUSH1 0xA0 DUP2 ADD PUSH1 0x40 MSTORE PUSH1 0x20 DUP2 MLOAD SWAP2 ADD KECCAK256 PUSH2 0x9E7 PUSH1 0x32 PUSH2 0x9DC DUP2 DUP5 MOD DUP7 PUSH2 0x1FB9 JUMP JUMPDEST SWAP3 PUSH1 0x40 SHR MOD DUP12 PUSH2 0x1FB9 JUMP JUMPDEST GT PUSH2 0xA8F JUMPI PUSH2 0x9F5 SWAP1 PUSH2 0x1E9B JUMP JUMPDEST SWAP2 PUSH1 0x8 DUP8 ADD SLOAD PUSH1 0x1 PUSH1 0x40 SHL DUP2 LT ISZERO PUSH2 0xA7B JUMPI PUSH1 0x1 DUP2 ADD DUP1 PUSH1 0x8 DUP11 ADD SSTORE DUP2 LT ISZERO PUSH2 0xA67 JUMPI PUSH1 0x1 SWAP1 PUSH1 0x8 DUP10 ADD DUP13 MSTORE PUSH1 0x20 DUP13 KECCAK256 ADD SSTORE JUMPDEST PUSH1 0x3 DUP4 LT DUP1 ISZERO SWAP1 PUSH2 0xA5C JUMPI JUMPDEST PUSH2 0xA4F JUMPI PUSH2 0xA41 SWAP1 PUSH2 0x1E9B JUMP JUMPDEST SWAP1 SWAP8 SWAP2 SWAP3 SWAP4 SWAP5 SWAP6 SWAP7 SWAP8 PUSH2 0x5ED JUMP JUMPDEST DUP3 SWAP4 SWAP5 SWAP6 SWAP7 SWAP8 SWAP9 POP PUSH2 0x5F6 JUMP JUMPDEST POP PUSH1 0x3 DUP5 LT ISZERO PUSH2 0xA34 JUMP JUMPDEST PUSH4 0x4E487B71 PUSH1 0xE0 SHL DUP12 MSTORE PUSH1 0x32 PUSH1 0x4 MSTORE PUSH1 0x24 DUP12 REVERT JUMPDEST PUSH4 0x4E487B71 PUSH1 0xE0 SHL DUP12 MSTORE PUSH1 0x41 PUSH1 0x4 MSTORE PUSH1 0x24 DUP12 REVERT JUMPDEST SWAP2 SWAP3 PUSH2 0xA9A SWAP1 PUSH2 0x1E9B JUMP JUMPDEST SWAP3 PUSH1 0x8 DUP8 ADD SLOAD PUSH1 0x1 PUSH1 0x40 SHL DUP2 LT ISZERO PUSH2 0xA7B JUMPI PUSH1 0x1 DUP2 ADD DUP1 PUSH1 0x8 DUP11 ADD SSTORE DUP2 LT ISZERO PUSH2 0xA67 JUMPI PUSH1 0x2 SWAP1 PUSH1 0x8 DUP10 ADD DUP13 MSTORE PUSH1 0x20 DUP13 KECCAK256 ADD SSTORE PUSH2 0xA28 JUMP JUMPDEST PUSH4 0x4E487B71 PUSH1 0xE0 SHL DUP9 MSTORE PUSH1 0x11 PUSH1 0x4 MSTORE PUSH1 0x24 DUP9 REVERT JUMPDEST PUSH2 0xB0A SWAP2 SWAP7 POP PUSH2 0x180 RETURNDATASIZE PUSH2 0x180 GT PUSH2 0xB11 JUMPI JUMPDEST PUSH2 0xB02 DUP2 DUP4 PUSH2 0x1CEF JUMP JUMPDEST DUP2 ADD SWAP1 PUSH2 0x1DB2 JUMP JUMPDEST SWAP5 CODESIZE PUSH2 0x4F8 JUMP JUMPDEST POP RETURNDATASIZE PUSH2 0xAF8 JUMP JUMPDEST PUSH1 0x40 MLOAD RETURNDATASIZE DUP10 DUP3 RETURNDATACOPY RETURNDATASIZE SWAP1 REVERT JUMPDEST PUSH2 0xB3F SWAP2 SWAP5 POP PUSH2 0x180 RETURNDATASIZE PUSH2 0x180 GT PUSH2 0xB11 JUMPI PUSH2 0xB02 DUP2 DUP4 PUSH2 0x1CEF JUMP JUMPDEST SWAP3 CODESIZE PUSH2 0x4C5 JUMP JUMPDEST PUSH1 0x40 MLOAD RETURNDATASIZE DUP9 DUP3 RETURNDATACOPY RETURNDATASIZE SWAP1 REVERT JUMPDEST PUSH2 0xB6C SWAP2 POP PUSH2 0x180 RETURNDATASIZE PUSH2 0x180 GT PUSH2 0xB11 JUMPI PUSH2 0xB02 DUP2 DUP4 PUSH2 0x1CEF JUMP JUMPDEST CODESIZE PUSH2 0x3FE JUMP JUMPDEST PUSH1 0x40 MLOAD PUSH3 0x461BCD PUSH1 0xE5 SHL DUP2 MSTORE PUSH1 0x20 PUSH1 0x4 DUP3 ADD MSTORE PUSH1 0x10 PUSH1 0x24 DUP3 ADD MSTORE PUSH16 0x4D757374206D61746368207374616B65 PUSH1 0x80 SHL PUSH1 0x44 DUP3 ADD MSTORE PUSH1 0x64 SWAP1 REVERT JUMPDEST PUSH1 0x40 MLOAD PUSH3 0x461BCD PUSH1 0xE5 SHL DUP2 MSTORE PUSH1 0x20 PUSH1 0x4 DUP3 ADD MSTORE PUSH1 0x16 PUSH1 0x24 DUP3 ADD MSTORE PUSH22 0x21B0B73737BA103130BA3A3632903CB7BAB939B2B633 PUSH1 0x51 SHL PUSH1 0x44 DUP3 ADD MSTORE PUSH1 0x64 SWAP1 REVERT JUMPDEST PUSH4 0x4E487B71 PUSH1 0xE0 SHL DUP8 MSTORE PUSH1 0x21 PUSH1 0x4 MSTORE PUSH1 0x24 DUP8 REVERT JUMPDEST PUSH2 0xC1E SWAP2 POP PUSH1 0x20 RETURNDATASIZE PUSH1 0x20 GT PUSH2 0xC24 JUMPI JUMPDEST PUSH2 0xC16 DUP2 DUP4 PUSH2 0x1CEF JUMP JUMPDEST DUP2 ADD SWAP1 PUSH2 0x1D11 JUMP JUMPDEST CODESIZE PUSH2 0x359 JUMP JUMPDEST POP RETURNDATASIZE PUSH2 0xC0C JUMP JUMPDEST PUSH1 0x40 MLOAD RETURNDATASIZE DUP8 DUP3 RETURNDATACOPY RETURNDATASIZE SWAP1 REVERT JUMPDEST POP PUSH1 0x3 SLOAD DUP3 GT ISZERO PUSH2 0x30F JUMP JUMPDEST SWAP1 POP CALLVALUE PUSH2 0x1B0 JUMPI PUSH2 0xC52 CALLDATASIZE PUSH2 0x1C45 JUMP JUMPDEST DUP4 SWAP2 SWAP4 SWAP3 PUSH1 0x1 SWAP4 PUSH1 0x3 SWAP3 DUP4 SLOAD SWAP6 JUMPDEST DUP7 DUP2 LT PUSH2 0xDF9 JUMPI POP DUP2 DUP2 GT ISZERO PUSH2 0xDF1 JUMPI POP SWAP3 JUMPDEST PUSH2 0xC7C DUP5 PUSH2 0x205E JUMP JUMPDEST SWAP4 DUP2 SWAP7 DUP1 ISZERO ISZERO PUSH1 0x0 EQ PUSH2 0xDE9 JUMPI JUMPDEST DUP7 DUP2 LT DUP1 PUSH2 0xDE0 JUMPI JUMPDEST ISZERO PUSH2 0xDCE JUMPI DUP1 DUP4 MSTORE PUSH1 0x20 PUSH1 0x4 DUP2 MSTORE PUSH1 0xFF SWAP1 PUSH1 0x7 SWAP2 DUP1 DUP4 PUSH1 0x40 DUP9 KECCAK256 ADD SLOAD AND PUSH1 0x4 DUP2 LT ISZERO PUSH2 0xBE8 JUMPI ISZERO PUSH2 0xCD0 JUMPI JUMPDEST POP POP POP PUSH2 0xCCB SWAP1 PUSH2 0x1E9B JUMP JUMPDEST PUSH2 0xC8A JUMP JUMPDEST DUP4 DUP7 SWAP12 SWAP5 SWAP12 MSTORE PUSH1 0x4 DUP3 MSTORE PUSH1 0x40 DUP7 KECCAK256 PUSH1 0x40 MLOAD SWAP4 PUSH2 0xCEB DUP6 PUSH2 0x1C8C JUMP JUMPDEST DUP2 SLOAD DUP6 MSTORE PUSH1 0x1 DUP3 ADD SLOAD PUSH1 0x1 PUSH1 0x1 PUSH1 0xA0 SHL SUB SWAP1 DUP2 AND DUP6 DUP8 ADD MSTORE PUSH1 0x2 DUP4 ADD SLOAD PUSH1 0x40 DUP8 ADD MSTORE DUP11 DUP4 ADD SLOAD DUP2 AND PUSH1 0x60 DUP8 ADD MSTORE PUSH1 0x4 DUP4 ADD SLOAD PUSH1 0x80 DUP8 ADD MSTORE PUSH1 0x5 DUP4 ADD SLOAD PUSH1 0xA0 DUP8 ADD MSTORE PUSH1 0x6 DUP4 ADD SLOAD PUSH1 0xC0 DUP8 ADD MSTORE SWAP1 DUP3 ADD SLOAD SWAP3 PUSH2 0xD49 SWAP1 DUP5 AND DUP11 DUP8 ADD PUSH2 0x1ED8 JUMP JUMPDEST PUSH1 0x8 SWAP3 DUP4 SHR AND PUSH2 0x100 DUP6 ADD MSTORE ADD PUSH1 0x40 MLOAD DUP1 SWAP3 DUP1 DUP4 SLOAD SWAP3 DUP4 DUP2 MSTORE ADD SWAP3 DUP9 MSTORE DUP1 DUP9 KECCAK256 SWAP2 DUP9 SWAP2 JUMPDEST DUP2 DUP4 LT PUSH2 0xDB7 JUMPI POP POP POP POP SWAP2 DUP2 PUSH2 0xD8D PUSH2 0xCCB SWAP6 SWAP4 PUSH2 0xDAE SWAP6 SUB DUP3 PUSH2 0x1CEF JUMP JUMPDEST PUSH2 0x120 DUP3 ADD MSTORE PUSH2 0xD9D DUP3 DUP11 PUSH2 0x20AE JUMP JUMPDEST MSTORE PUSH2 0xDA8 DUP2 DUP10 PUSH2 0x20AE JUMP JUMPDEST POP PUSH2 0x1E9B JUMP JUMPDEST SWAP8 SWAP1 CODESIZE DUP1 PUSH2 0xCBF JUMP JUMPDEST DUP4 SLOAD DUP6 MSTORE SWAP4 DUP5 ADD SWAP4 PUSH1 0x1 SWAP4 DUP5 ADD SWAP4 SWAP1 SWAP3 ADD SWAP2 PUSH2 0xD6D JUMP JUMPDEST PUSH1 0x40 MLOAD DUP1 PUSH2 0xDDC DUP9 DUP3 PUSH2 0x1BE3 JUMP JUMPDEST SUB SWAP1 RETURN JUMPDEST POP DUP2 DUP9 LT PUSH2 0xC93 JUMP JUMPDEST POP PUSH1 0x1 PUSH2 0xC8A JUMP JUMPDEST SWAP1 POP SWAP3 PUSH2 0xC73 JUMP JUMPDEST DUP1 DUP7 MSTORE PUSH1 0x4 PUSH1 0x20 MSTORE PUSH1 0xFF PUSH1 0x7 PUSH1 0x40 DUP9 KECCAK256 ADD SLOAD AND PUSH1 0x4 DUP2 LT ISZERO PUSH2 0xBE8 JUMPI ISZERO PUSH2 0xE29 JUMPI JUMPDEST PUSH2 0xE24 SWAP1 PUSH2 0x1E9B JUMP JUMPDEST PUSH2 0xC60 JUMP JUMPDEST SWAP2 PUSH2 0xE36 PUSH2 0xE24 SWAP2 PUSH2 0x1E9B JUMP JUMPDEST SWAP3 SWAP1 POP PUSH2 0xE1B JUMP JUMPDEST DUP3 CALLVALUE PUSH2 0x1B4 JUMPI PUSH1 0x20 CALLDATASIZE PUSH1 0x3 NOT ADD SLT PUSH2 0x1B4 JUMPI PUSH1 0x40 PUSH1 0x20 SWAP2 PUSH1 0x4 CALLDATALOAD DUP2 MSTORE PUSH1 0x5 DUP4 MSTORE KECCAK256 SLOAD PUSH1 0x40 MLOAD SWAP1 DUP2 MSTORE RETURN JUMPDEST SWAP1 POP PUSH1 0x20 CALLDATASIZE PUSH1 0x3 NOT ADD SLT PUSH2 0x1B0 JUMPI PUSH2 0xE7E PUSH2 0x1F15 JUMP JUMPDEST PUSH2 0xE86 PUSH2 0x1EF7 JUMP JUMPDEST PUSH1 0x2 SLOAD PUSH1 0x40 MLOAD PUSH4 0x31A9108F PUSH1 0xE1 SHL DUP2 MSTORE PUSH1 0x4 DUP1 CALLDATALOAD SWAP1 DUP3 ADD MSTORE PUSH1 0x8 SWAP2 SWAP1 SWAP2 SHR PUSH1 0x1 PUSH1 0x1 PUSH1 0xA0 SHL SUB AND SWAP1 PUSH1 0x20 DUP2 PUSH1 0x24 DUP2 DUP6 GAS STATICCALL DUP1 ISZERO PUSH2 0x902 JUMPI PUSH2 0xED8 SWAP2 DUP6 SWAP2 PUSH2 0xBFC JUMPI POP PUSH1 0x1 PUSH1 0x1 PUSH1 0xA0 SHL SUB AND CALLER EQ PUSH2 0x1D30 JUMP JUMPDEST PUSH1 0x4 CALLDATALOAD DUP4 MSTORE PUSH1 0x5 PUSH1 0x20 MSTORE PUSH2 0xEF0 PUSH1 0x40 DUP5 KECCAK256 SLOAD ISZERO PUSH2 0x1D6D JUMP JUMPDEST PUSH1 0x9 SLOAD CALLVALUE LT ISZERO DUP1 PUSH2 0x11BA JUMPI JUMPDEST ISZERO PUSH2 0x117E JUMPI PUSH1 0x40 MLOAD DUP1 SWAP2 PUSH4 0xA86C6D33 PUSH1 0xE0 SHL DUP3 MSTORE PUSH1 0x4 CALLDATALOAD PUSH1 0x4 DUP4 ADD MSTORE DUP2 PUSH1 0x24 PUSH2 0x180 SWAP4 DUP5 SWAP4 GAS STATICCALL DUP1 ISZERO PUSH2 0x902 JUMPI PUSH2 0xF42 SWAP3 PUSH2 0x160 SWAP3 DUP7 SWAP3 PUSH2 0x1161 JUMPI JUMPDEST POP POP ADD MLOAD ISZERO PUSH2 0x1E5E JUMP JUMPDEST PUSH1 0x3 SLOAD SWAP1 PUSH2 0xF4F DUP3 PUSH2 0x1E9B JUMP JUMPDEST PUSH1 0x3 SSTORE PUSH1 0x40 MLOAD SWAP1 PUSH1 0x20 DUP3 ADD DUP3 DUP2 LT PUSH8 0xFFFFFFFFFFFFFFFF DUP3 GT OR PUSH2 0x1139 JUMPI PUSH1 0x40 MSTORE DUP4 DUP3 MSTORE PUSH1 0x40 MLOAD SWAP2 PUSH2 0xF80 DUP4 PUSH2 0x1C8C JUMP JUMPDEST DUP4 DUP4 MSTORE CALLER PUSH1 0x20 DUP1 DUP6 ADD SWAP2 DUP3 MSTORE PUSH1 0x4 DUP1 CALLDATALOAD PUSH1 0x40 DUP1 DUP9 ADD SWAP2 DUP3 MSTORE PUSH1 0x60 DUP9 ADD DUP11 DUP2 MSTORE PUSH1 0x80 DUP10 ADD DUP12 DUP2 MSTORE CALLVALUE PUSH1 0xA0 DUP12 ADD SWAP1 DUP2 MSTORE TIMESTAMP PUSH1 0xC0 DUP13 ADD SWAP1 DUP2 MSTORE SWAP10 DUP12 ADD DUP14 DUP2 MSTORE PUSH2 0x100 DUP13 ADD DUP15 SWAP1 MSTORE PUSH2 0x120 DUP13 ADD SWAP10 SWAP1 SWAP10 MSTORE DUP12 DUP14 MSTORE SWAP6 DUP6 SWAP1 MSTORE SWAP2 DUP12 KECCAK256 DUP10 MLOAD DUP2 SSTORE SWAP6 MLOAD PUSH1 0x1 DUP8 ADD DUP1 SLOAD PUSH1 0x1 PUSH1 0x1 PUSH1 0xA0 SHL SUB NOT SWAP1 DUP2 AND PUSH1 0x1 PUSH1 0x1 PUSH1 0xA0 SHL SUB SWAP4 DUP5 AND OR SWAP1 SWAP2 SSTORE SWAP4 MLOAD PUSH1 0x2 DUP9 ADD SSTORE SWAP1 MLOAD PUSH1 0x3 DUP8 ADD DUP1 SLOAD SWAP1 SWAP5 AND SWAP2 AND OR SWAP1 SWAP2 SSTORE MLOAD DUP4 DUP3 ADD SSTORE SWAP1 MLOAD PUSH1 0x5 DUP4 ADD SSTORE SWAP3 MLOAD PUSH1 0x6 DUP3 ADD SSTORE SWAP1 MLOAD SWAP1 SWAP2 PUSH1 0x7 DUP4 ADD SWAP2 SWAP1 DUP2 LT ISZERO PUSH2 0x114D JUMPI DUP2 SLOAD PUSH2 0x100 DUP6 ADD MLOAD PUSH1 0x1 PUSH1 0x1 PUSH1 0xA8 SHL SUB NOT SWAP1 SWAP2 AND PUSH1 0xFF SWAP1 SWAP3 AND SWAP2 SWAP1 SWAP2 OR PUSH1 0x8 SWAP2 DUP3 SHL PUSH2 0x100 PUSH1 0x1 PUSH1 0xA8 SHL SUB AND OR SWAP1 SWAP2 SSTORE PUSH2 0x120 SWAP2 ADD SWAP2 ADD MLOAD SWAP1 DUP2 MLOAD SWAP2 PUSH8 0xFFFFFFFFFFFFFFFF DUP4 GT PUSH2 0x1139 JUMPI PUSH1 0x1 PUSH1 0x40 SHL DUP4 GT PUSH2 0x1139 JUMPI DUP2 SLOAD DUP4 DUP4 SSTORE DUP1 DUP5 LT PUSH2 0x1113 JUMPI JUMPDEST POP PUSH1 0x20 ADD SWAP1 DUP5 MSTORE PUSH1 0x20 DUP5 KECCAK256 DUP5 JUMPDEST DUP4 DUP2 LT PUSH2 0x10FF JUMPI DUP6 DUP6 PUSH1 0x4 CALLDATALOAD DUP3 MSTORE PUSH1 0x5 PUSH1 0x20 MSTORE DUP1 PUSH1 0x40 DUP4 KECCAK256 SSTORE PUSH1 0x40 MLOAD SWAP1 PUSH1 0x4 CALLDATALOAD DUP3 MSTORE CALLVALUE PUSH1 0x20 DUP4 ADD MSTORE PUSH32 0xAAAF7877A566D2DA8915C533D92EC10980E1CF937137EA20A9873BEF06651C8C PUSH1 0x40 CALLER SWAP4 LOG3 PUSH1 0x1 DUP1 SSTORE DUP1 RETURN JUMPDEST PUSH1 0x1 SWAP1 PUSH1 0x20 DUP5 MLOAD SWAP5 ADD SWAP4 DUP2 DUP5 ADD SSTORE ADD PUSH2 0x10AA JUMP JUMPDEST DUP3 DUP7 MSTORE DUP4 PUSH1 0x20 DUP8 KECCAK256 SWAP2 DUP3 ADD SWAP2 ADD JUMPDEST DUP2 DUP2 LT PUSH2 0x112E JUMPI POP PUSH2 0x109D JUMP JUMPDEST DUP7 DUP2 SSTORE PUSH1 0x1 ADD PUSH2 0x1121 JUMP JUMPDEST PUSH4 0x4E487B71 PUSH1 0xE0 SHL DUP6 MSTORE PUSH1 0x41 PUSH1 0x4 MSTORE PUSH1 0x24 DUP6 REVERT JUMPDEST PUSH4 0x4E487B71 PUSH1 0xE0 SHL DUP7 MSTORE PUSH1 0x21 PUSH1 0x4 MSTORE PUSH1 0x24 DUP7 REVERT JUMPDEST PUSH2 0x1177 SWAP3 POP DUP1 RETURNDATASIZE LT PUSH2 0xB11 JUMPI PUSH2 0xB02 DUP2 DUP4 PUSH2 0x1CEF JUMP JUMPDEST CODESIZE DUP1 PUSH2 0xF38 JUMP JUMPDEST PUSH1 0x40 MLOAD PUSH3 0x461BCD PUSH1 0xE5 SHL DUP2 MSTORE PUSH1 0x20 PUSH1 0x4 DUP3 ADD MSTORE PUSH1 0x14 PUSH1 0x24 DUP3 ADD MSTORE PUSH20 0x125B9D985B1A59081CDD185AD948185B5BDD5B9D PUSH1 0x62 SHL PUSH1 0x44 DUP3 ADD MSTORE PUSH1 0x64 SWAP1 REVERT JUMPDEST POP PUSH1 0xA SLOAD CALLVALUE GT ISZERO PUSH2 0xEFC JUMP JUMPDEST DUP3 CALLVALUE PUSH2 0x1B4 JUMPI DUP1 PUSH1 0x3 NOT CALLDATASIZE ADD SLT PUSH2 0x1B4 JUMPI SLOAD PUSH1 0x40 MLOAD PUSH1 0x1 PUSH1 0x1 PUSH1 0xA0 SHL SUB SWAP1 SWAP2 AND DUP2 MSTORE PUSH1 0x20 SWAP1 RETURN JUMPDEST DUP3 CALLVALUE PUSH2 0x1B4 JUMPI PUSH2 0x11FC CALLDATASIZE PUSH2 0x1C45 JUMP JUMPDEST SWAP1 PUSH2 0x1205 PUSH2 0x1C60 JUMP JUMPDEST DUP2 DUP2 LT ISZERO PUSH2 0x1216 JUMPI PUSH1 0x9 SSTORE PUSH1 0xA SSTORE DUP1 RETURN JUMPDEST PUSH1 0x40 MLOAD PUSH3 0x461BCD PUSH1 0xE5 SHL DUP2 MSTORE PUSH1 0x20 PUSH1 0x4 DUP3 ADD MSTORE PUSH1 0xE PUSH1 0x24 DUP3 ADD MSTORE PUSH14 0x496E76616C6964206C696D697473 PUSH1 0x90 SHL PUSH1 0x44 DUP3 ADD MSTORE PUSH1 0x64 SWAP1 REVERT JUMPDEST DUP3 CALLVALUE PUSH2 0x1B4 JUMPI DUP1 PUSH1 0x3 NOT CALLDATASIZE ADD SLT PUSH2 0x1B4 JUMPI PUSH1 0x20 PUSH1 0xB SLOAD PUSH1 0x40 MLOAD SWAP1 DUP2 MSTORE RETURN JUMPDEST DUP3 CALLVALUE PUSH2 0x1B4 JUMPI PUSH1 0x20 CALLDATASIZE PUSH1 0x3 NOT ADD SLT PUSH2 0x1B4 JUMPI PUSH1 0x4 CALLDATALOAD PUSH1 0x1 PUSH1 0x1 PUSH1 0xA0 SHL SUB DUP2 AND SWAP1 DUP2 SWAP1 SUB PUSH2 0x1B0 JUMPI DUP2 PUSH1 0x40 SWAP2 PUSH1 0x20 SWAP4 MSTORE PUSH1 0x6 DUP4 MSTORE KECCAK256 SLOAD PUSH1 0x40 MLOAD SWAP1 DUP2 MSTORE RETURN JUMPDEST DUP3 CALLVALUE PUSH2 0x1B4 JUMPI DUP1 PUSH1 0x3 NOT CALLDATASIZE ADD SLT PUSH2 0x1B4 JUMPI PUSH2 0x12C0 PUSH2 0x1C60 JUMP JUMPDEST PUSH2 0x12C8 PUSH2 0x1EF7 JUMP JUMPDEST PUSH1 0x1 PUSH1 0xFF NOT PUSH1 0x2 SLOAD AND OR PUSH1 0x2 SSTORE PUSH32 0x62E78CEA01BEE320CD4E420270B5EA74000D11B0C9F74754EBDBFC544B05A258 PUSH1 0x20 PUSH1 0x40 MLOAD CALLER DUP2 MSTORE LOG1 DUP1 RETURN JUMPDEST DUP3 CALLVALUE PUSH2 0x1B4 JUMPI PUSH1 0x20 CALLDATASIZE PUSH1 0x3 NOT ADD SLT PUSH2 0x1B4 JUMPI PUSH1 0x4 CALLDATALOAD PUSH1 0x1 PUSH1 0x1 PUSH1 0xA0 SHL SUB DUP2 AND SWAP1 DUP2 SWAP1 SUB PUSH2 0x1B0 JUMPI DUP2 PUSH1 0x40 SWAP2 PUSH1 0x20 SWAP4 MSTORE PUSH1 0x8 DUP4 MSTORE KECCAK256 SLOAD PUSH1 0x40 MLOAD SWAP1 DUP2 MSTORE RETURN JUMPDEST DUP3 CALLVALUE PUSH2 0x1B4 JUMPI DUP1 PUSH1 0x3 NOT CALLDATASIZE ADD SLT PUSH2 0x1B4 JUMPI PUSH2 0x1358 PUSH2 0x1C60 JUMP JUMPDEST DUP1 SLOAD PUSH1 0x1 PUSH1 0x1 PUSH1 0xA0 SHL SUB NOT DUP2 AND DUP3 SSTORE DUP2 SWAP1 PUSH1 0x1 PUSH1 0x1 PUSH1 0xA0 SHL SUB AND PUSH32 0x8BE0079C531659141344CD1FD0A4F28419497F9722A3DAAFE3B4186F6B6457E0 DUP3 DUP1 LOG3 DUP1 RETURN JUMPDEST DUP3 CALLVALUE PUSH2 0x1B4 JUMPI PUSH1 0x20 SWAP1 DUP2 PUSH1 0x3 NOT CALLDATASIZE ADD SLT PUSH2 0x1B4 JUMPI PUSH2 0x13B5 PUSH2 0x2013 JUMP JUMPDEST POP PUSH1 0x4 CALLDATALOAD DUP2 MSTORE PUSH1 0x4 DUP3 MSTORE PUSH1 0x40 DUP2 KECCAK256 SWAP3 PUSH1 0x8 PUSH1 0x40 MLOAD SWAP5 PUSH2 0x13D3 DUP7 PUSH2 0x1C8C JUMP JUMPDEST DUP1 SLOAD DUP7 MSTORE PUSH1 0x1 DUP1 PUSH1 0xA0 SHL SUB PUSH1 0x1 SWAP4 DUP2 DUP6 DUP5 ADD SLOAD AND DUP8 DUP10 ADD MSTORE PUSH1 0x2 DUP4 ADD SLOAD PUSH1 0x40 DUP10 ADD MSTORE DUP2 PUSH1 0x3 DUP5 ADD SLOAD AND PUSH1 0x60 DUP10 ADD MSTORE PUSH1 0x4 DUP4 ADD SLOAD PUSH1 0x80 DUP10 ADD MSTORE PUSH1 0x5 DUP4 ADD SLOAD PUSH1 0xA0 DUP10 ADD MSTORE PUSH1 0x6 DUP4 ADD SLOAD PUSH1 0xC0 DUP10 ADD MSTORE PUSH2 0x1434 PUSH1 0x7 DUP5 ADD SLOAD SWAP2 PUSH1 0xFF DUP4 AND SWAP1 DUP11 ADD PUSH2 0x1ED8 JUMP JUMPDEST DUP4 SHR AND PUSH2 0x100 DUP8 ADD MSTORE ADD SWAP1 PUSH1 0x40 MLOAD SWAP2 DUP3 SWAP4 DUP5 SWAP3 DUP7 DUP4 SLOAD SWAP6 DUP7 DUP2 MSTORE ADD SWAP3 DUP3 MSTORE DUP7 DUP3 KECCAK256 SWAP2 JUMPDEST DUP8 DUP7 DUP3 LT PUSH2 0x1489 JUMPI POP POP POP POP PUSH2 0x146F SWAP3 POP SUB DUP3 PUSH2 0x1CEF JUMP JUMPDEST PUSH2 0x120 DUP4 ADD MSTORE PUSH2 0xDDC PUSH1 0x40 MLOAD SWAP3 DUP3 DUP5 SWAP4 DUP5 MSTORE DUP4 ADD SWAP1 PUSH2 0x1B30 JUMP JUMPDEST DUP4 SLOAD DUP6 MSTORE DUP8 SWAP6 POP SWAP1 SWAP4 ADD SWAP3 SWAP2 DUP2 ADD SWAP2 DUP2 ADD PUSH2 0x1457 JUMP JUMPDEST SWAP1 POP CALLVALUE PUSH2 0x1B0 JUMPI PUSH1 0x20 CALLDATASIZE PUSH1 0x3 NOT ADD SLT PUSH2 0x1B0 JUMPI PUSH1 0x40 PUSH2 0x120 SWAP3 PUSH1 0x4 CALLDATALOAD DUP2 MSTORE PUSH1 0x4 PUSH1 0x20 MSTORE KECCAK256 SWAP1 DUP2 SLOAD SWAP2 PUSH2 0x152C PUSH1 0x1 DUP1 PUSH1 0xA0 SHL SUB SWAP3 DUP4 PUSH1 0x1 DUP5 ADD SLOAD AND SWAP3 PUSH1 0x2 DUP2 ADD SLOAD DUP6 PUSH1 0x3 DUP4 ADD SLOAD AND PUSH1 0x4 DUP4 ADD SLOAD SWAP1 PUSH1 0x5 DUP5 ADD SLOAD SWAP3 PUSH1 0x7 PUSH1 0x6 DUP7 ADD SLOAD SWAP6 ADD SLOAD SWAP8 PUSH1 0x40 MLOAD SWAP11 DUP12 MSTORE PUSH1 0x20 DUP12 ADD MSTORE PUSH1 0x40 DUP11 ADD MSTORE PUSH1 0x60 DUP10 ADD MSTORE PUSH1 0x80 DUP9 ADD MSTORE PUSH1 0xA0 DUP8 ADD MSTORE PUSH1 0xC0 DUP7 ADD MSTORE DUP5 ADD PUSH1 0xFF DUP4 AND PUSH2 0x1B0D JUMP JUMPDEST PUSH1 0x8 SHR AND PUSH2 0x100 DUP3 ADD MSTORE RETURN JUMPDEST DUP3 CALLVALUE PUSH2 0x1B4 JUMPI DUP1 PUSH1 0x3 NOT CALLDATASIZE ADD SLT PUSH2 0x1B4 JUMPI PUSH1 0x20 PUSH1 0xFF PUSH1 0x2 SLOAD AND PUSH1 0x40 MLOAD SWAP1 ISZERO ISZERO DUP2 MSTORE RETURN JUMPDEST DUP3 CALLVALUE PUSH2 0x1B4 JUMPI PUSH1 0x20 CALLDATASIZE PUSH1 0x3 NOT ADD SLT PUSH2 0x1B4 JUMPI PUSH1 0x4 CALLDATALOAD PUSH1 0x1 PUSH1 0x1 PUSH1 0xA0 SHL SUB DUP2 AND SWAP1 DUP2 SWAP1 SUB PUSH2 0x1B0 JUMPI DUP2 MSTORE PUSH1 0x6 PUSH1 0x20 MSTORE PUSH1 0x40 DUP2 KECCAK256 SLOAD PUSH1 0x7 PUSH1 0x20 MSTORE PUSH1 0x40 DUP3 KECCAK256 SLOAD PUSH1 0x8 PUSH1 0x20 MSTORE PUSH1 0x40 DUP4 KECCAK256 SLOAD PUSH2 0x15AC DUP3 DUP5 PUSH2 0x1FB9 JUMP JUMPDEST DUP1 ISZERO DUP1 PUSH2 0x1610 JUMPI PUSH1 0x64 DUP6 MUL SWAP1 DUP6 DUP3 DIV PUSH1 0x64 EQ DUP7 ISZERO OR ISZERO PUSH2 0x15FC JUMPI PUSH2 0x15E8 JUMPI PUSH1 0x80 SWAP6 POP DIV SWAP2 JUMPDEST PUSH1 0x40 MLOAD SWAP4 DUP5 MSTORE PUSH1 0x20 DUP5 ADD MSTORE PUSH1 0x40 DUP4 ADD MSTORE PUSH1 0x60 DUP3 ADD MSTORE RETURN JUMPDEST PUSH4 0x4E487B71 PUSH1 0xE0 SHL DUP7 MSTORE PUSH1 0x12 PUSH1 0x4 MSTORE PUSH1 0x24 DUP7 REVERT JUMPDEST PUSH4 0x4E487B71 PUSH1 0xE0 SHL DUP8 MSTORE PUSH1 0x11 PUSH1 0x4 MSTORE PUSH1 0x24 DUP8 REVERT JUMPDEST POP POP PUSH1 0x80 SWAP4 SWAP2 PUSH2 0x15D1 JUMP JUMPDEST DUP3 CALLVALUE PUSH2 0x1B4 JUMPI PUSH1 0x20 CALLDATASIZE PUSH1 0x3 NOT ADD SLT PUSH2 0x1B4 JUMPI PUSH1 0x4 CALLDATALOAD PUSH2 0x1638 PUSH2 0x1F15 JUMP JUMPDEST DUP1 ISZERO ISZERO DUP1 PUSH2 0x1753 JUMPI JUMPDEST PUSH2 0x164A SWAP1 PUSH2 0x1F38 JUMP JUMPDEST DUP1 DUP3 MSTORE PUSH1 0x4 PUSH1 0x20 MSTORE PUSH1 0x40 DUP3 KECCAK256 PUSH1 0x1 DUP2 ADD SLOAD PUSH1 0x1 PUSH1 0x1 PUSH1 0xA0 SHL SUB AND CALLER SUB PUSH2 0x171D JUMPI PUSH1 0x7 DUP2 ADD DUP1 SLOAD PUSH1 0xFF DUP2 AND PUSH1 0x4 DUP2 LT ISZERO PUSH2 0x114D JUMPI PUSH1 0x5 DUP7 SWAP5 DUP6 SWAP5 PUSH1 0x3 DUP7 SWAP6 PUSH2 0x1692 DUP8 SWAP7 ISZERO PUSH2 0x1F78 JUMP JUMPDEST PUSH1 0xFF NOT AND OR SWAP1 SSTORE PUSH1 0x2 DUP2 ADD SLOAD DUP4 MSTORE DUP2 PUSH1 0x20 MSTORE DUP3 PUSH1 0x40 DUP2 KECCAK256 SSTORE ADD SLOAD CALLER GAS CALL PUSH2 0x16B7 PUSH2 0x1FD3 JUMP JUMPDEST POP ISZERO PUSH2 0x16E8 JUMPI PUSH32 0xE10FD8C156678D18DF7DAF6DD3E15B95C6D350EE99272630FCAD6DDE9BEF0D0C DUP3 DUP1 LOG2 PUSH1 0x1 DUP1 SSTORE DUP1 RETURN JUMPDEST PUSH1 0x40 MLOAD PUSH3 0x461BCD PUSH1 0xE5 SHL DUP2 MSTORE PUSH1 0x20 PUSH1 0x4 DUP3 ADD MSTORE PUSH1 0xD PUSH1 0x24 DUP3 ADD MSTORE PUSH13 0x1499599D5B990819985A5B1959 PUSH1 0x9A SHL PUSH1 0x44 DUP3 ADD MSTORE PUSH1 0x64 SWAP1 REVERT JUMPDEST PUSH1 0x40 MLOAD PUSH3 0x461BCD PUSH1 0xE5 SHL DUP2 MSTORE PUSH1 0x20 PUSH1 0x4 DUP3 ADD MSTORE PUSH1 0xE PUSH1 0x24 DUP3 ADD MSTORE PUSH14 0x2737BA1031B430B63632B733B2B9 PUSH1 0x91 SHL PUSH1 0x44 DUP3 ADD MSTORE PUSH1 0x64 SWAP1 REVERT JUMPDEST POP PUSH1 0x3 SLOAD DUP2 GT ISZERO PUSH2 0x1641 JUMP JUMPDEST DUP3 CALLVALUE PUSH2 0x1B4 JUMPI DUP1 PUSH1 0x3 NOT CALLDATASIZE ADD SLT PUSH2 0x1B4 JUMPI PUSH1 0x20 PUSH1 0x40 MLOAD PUSH1 0x5 DUP2 MSTORE RETURN JUMPDEST DUP3 CALLVALUE PUSH2 0x1B4 JUMPI DUP1 PUSH1 0x3 NOT CALLDATASIZE ADD SLT PUSH2 0x1B4 JUMPI PUSH2 0x1794 PUSH2 0x1C60 JUMP JUMPDEST PUSH1 0x2 SLOAD PUSH1 0xFF DUP2 AND ISZERO PUSH2 0x17D4 JUMPI PUSH1 0xFF NOT AND PUSH1 0x2 SSTORE PUSH32 0x5DB9EE0A495BF2E6FF9C91A7834C1BA4FDD244A5E8AA4E537BD38AEAE4B073AA PUSH1 0x20 PUSH1 0x40 MLOAD CALLER DUP2 MSTORE LOG1 DUP1 RETURN JUMPDEST PUSH1 0x40 MLOAD PUSH4 0x8DFC202B PUSH1 0xE0 SHL DUP2 MSTORE PUSH1 0x4 SWAP1 REVERT JUMPDEST DUP3 CALLVALUE PUSH2 0x1B4 JUMPI DUP1 PUSH1 0x3 NOT CALLDATASIZE ADD SLT PUSH2 0x1B4 JUMPI PUSH2 0x17FF PUSH2 0x1C60 JUMP JUMPDEST DUP1 DUP1 DUP1 DUP1 PUSH1 0x1 DUP1 PUSH1 0xA0 SHL SUB DUP2 SLOAD AND SELFBALANCE SWAP1 GAS CALL PUSH2 0x1819 PUSH2 0x1FD3 JUMP JUMPDEST POP ISZERO PUSH2 0x1822 JUMPI DUP1 RETURN JUMPDEST PUSH1 0x40 MLOAD PUSH3 0x461BCD PUSH1 0xE5 SHL DUP2 MSTORE PUSH1 0x20 PUSH1 0x4 DUP3 ADD MSTORE PUSH1 0xF PUSH1 0x24 DUP3 ADD MSTORE PUSH15 0x15DA5D1A191C985DC819985A5B1959 PUSH1 0x8A SHL PUSH1 0x44 DUP3 ADD MSTORE PUSH1 0x64 SWAP1 REVERT JUMPDEST SWAP1 POP CALLVALUE PUSH2 0x1B0 JUMPI PUSH1 0x20 DUP1 PUSH1 0x3 NOT CALLDATASIZE ADD SLT PUSH2 0x275 JUMPI PUSH1 0x4 CALLDATALOAD SWAP2 PUSH1 0x3 SWAP2 DUP3 SLOAD SWAP4 PUSH1 0x0 NOT DUP6 ADD SWAP5 DUP6 GT PUSH2 0x1998 JUMPI DUP5 DUP2 GT ISZERO PUSH2 0x1992 JUMPI POP DUP4 SWAP3 JUMPDEST PUSH2 0x1898 DUP5 PUSH2 0x205E JUMP JUMPDEST SWAP5 DUP7 JUMPDEST DUP6 DUP2 LT PUSH2 0x18B0 JUMPI PUSH1 0x40 MLOAD DUP1 PUSH2 0xDDC DUP10 DUP3 PUSH2 0x1BE3 JUMP JUMPDEST DUP1 PUSH2 0x18BC DUP6 SWAP3 DUP5 PUSH2 0x1FC6 JUMP JUMPDEST DUP10 MSTORE PUSH1 0x4 DUP3 MSTORE PUSH1 0x40 DUP10 KECCAK256 PUSH1 0x40 MLOAD SWAP1 PUSH2 0x18D3 DUP3 PUSH2 0x1C8C JUMP JUMPDEST DUP1 SLOAD DUP3 MSTORE PUSH1 0x1 DUP1 DUP3 ADD SLOAD PUSH1 0x1 PUSH1 0x1 PUSH1 0xA0 SHL SUB SWAP1 DUP2 AND DUP7 DUP6 ADD MSTORE PUSH1 0x2 DUP4 ADD SLOAD PUSH1 0x40 DUP6 ADD MSTORE DUP8 DUP4 ADD SLOAD DUP2 AND PUSH1 0x60 DUP6 ADD MSTORE PUSH1 0x4 DUP4 ADD SLOAD PUSH1 0x80 DUP6 ADD MSTORE PUSH1 0x5 DUP4 ADD SLOAD PUSH1 0xA0 DUP6 ADD MSTORE PUSH1 0x6 DUP4 ADD SLOAD PUSH1 0xC0 DUP6 ADD MSTORE PUSH1 0x7 DUP4 ADD SLOAD SWAP2 SWAP3 SWAP1 PUSH2 0x1936 PUSH1 0xFF DUP5 AND DUP13 DUP8 ADD PUSH2 0x1ED8 JUMP JUMPDEST PUSH1 0x8 SWAP3 DUP4 SHR AND PUSH2 0x100 DUP6 ADD MSTORE ADD DUP12 PUSH1 0x40 MLOAD DUP1 SWAP4 DUP8 DUP5 SLOAD SWAP3 DUP4 DUP2 MSTORE ADD SWAP4 DUP4 MSTORE DUP8 DUP4 KECCAK256 SWAP3 SWAP2 JUMPDEST DUP1 DUP4 LT PUSH2 0x197B JUMPI POP POP POP POP PUSH2 0x1976 SWAP5 POP DUP2 PUSH2 0xD8D SWAP2 SUB DUP3 PUSH2 0x1CEF JUMP JUMPDEST PUSH2 0x189B JUMP JUMPDEST DUP4 SLOAD DUP6 MSTORE DUP12 SWAP9 SWAP1 SWAP5 ADD SWAP4 SWAP3 DUP2 ADD SWAP3 SWAP2 DUP2 ADD SWAP2 PUSH2 0x195A JUMP JUMPDEST SWAP3 PUSH2 0x188F JUMP JUMPDEST PUSH4 0x4E487B71 PUSH1 0xE0 SHL DUP7 MSTORE PUSH1 0x11 PUSH1 0x4 MSTORE PUSH1 0x24 DUP7 REVERT JUMPDEST DUP3 CALLVALUE PUSH2 0x1B4 JUMPI DUP1 PUSH1 0x3 NOT CALLDATASIZE ADD SLT PUSH2 0x1B4 JUMPI PUSH1 0x20 PUSH1 0x9 SLOAD PUSH1 0x40 MLOAD SWAP1 DUP2 MSTORE RETURN JUMPDEST DUP3 CALLVALUE PUSH2 0x1B4 JUMPI DUP1 PUSH1 0x3 NOT CALLDATASIZE ADD SLT PUSH2 0x1B4 JUMPI PUSH1 0x2 SLOAD PUSH1 0x40 MLOAD PUSH1 0x8 SWAP2 SWAP1 SWAP2 SHR PUSH1 0x1 PUSH1 0x1 PUSH1 0xA0 SHL SUB AND DUP2 MSTORE PUSH1 0x20 SWAP1 RETURN JUMPDEST DUP3 CALLVALUE PUSH2 0x1B4 JUMPI PUSH1 0x20 CALLDATASIZE PUSH1 0x3 NOT ADD SLT PUSH2 0x1B4 JUMPI PUSH1 0x4 CALLDATALOAD PUSH2 0x1A14 PUSH2 0x1C60 JUMP JUMPDEST PUSH1 0x14 DUP2 GT PUSH2 0x1A22 JUMPI PUSH1 0xB SSTORE DUP1 RETURN JUMPDEST PUSH1 0x40 MLOAD PUSH3 0x461BCD PUSH1 0xE5 SHL DUP2 MSTORE PUSH1 0x20 PUSH1 0x4 DUP3 ADD MSTORE PUSH1 0xC PUSH1 0x24 DUP3 ADD MSTORE PUSH12 0x8CCACA40E8DEDE40D0D2CED PUSH1 0xA3 SHL PUSH1 0x44 DUP3 ADD MSTORE PUSH1 0x64 SWAP1 REVERT JUMPDEST DUP3 CALLVALUE PUSH2 0x1B4 JUMPI DUP1 PUSH1 0x3 NOT CALLDATASIZE ADD SLT PUSH2 0x1B4 JUMPI DUP1 PUSH1 0x1 DUP1 PUSH1 0x3 SLOAD SWAP2 JUMPDEST DUP3 DUP2 LT PUSH2 0x1A82 JUMPI PUSH1 0x20 DUP5 PUSH1 0x40 MLOAD SWAP1 DUP2 MSTORE RETURN JUMPDEST DUP1 DUP6 MSTORE PUSH1 0x20 PUSH1 0x4 DUP2 MSTORE PUSH1 0xFF PUSH1 0x7 DUP2 DUP2 PUSH1 0x40 DUP11 KECCAK256 ADD SLOAD AND PUSH1 0x4 DUP2 LT ISZERO PUSH2 0x1AF9 JUMPI ISZERO SWAP3 DUP4 ISZERO PUSH2 0x1AD5 JUMPI JUMPDEST POP POP POP PUSH2 0x1AC0 JUMPI JUMPDEST PUSH2 0x1ABB SWAP1 PUSH2 0x1E9B JUMP JUMPDEST PUSH2 0x1A70 JUMP JUMPDEST SWAP3 PUSH2 0x1ACD PUSH2 0x1ABB SWAP2 PUSH2 0x1E9B JUMP JUMPDEST SWAP4 SWAP1 POP PUSH2 0x1AB2 JUMP JUMPDEST PUSH1 0x4 SWAP2 SWAP3 SWAP4 POP DUP5 DUP10 MSTORE MSTORE PUSH1 0x40 DUP8 KECCAK256 ADD SLOAD AND PUSH1 0x4 DUP2 LT ISZERO PUSH2 0x114D JUMPI DUP3 EQ DUP7 DUP1 DUP1 PUSH2 0x1AAA JUMP JUMPDEST PUSH4 0x4E487B71 PUSH1 0xE0 SHL DUP10 MSTORE PUSH1 0x21 PUSH1 0x4 MSTORE PUSH1 0x24 DUP10 REVERT JUMPDEST SWAP1 PUSH1 0x4 DUP3 LT ISZERO PUSH2 0x1B1A JUMPI MSTORE JUMP JUMPDEST PUSH4 0x4E487B71 PUSH1 0xE0 SHL PUSH1 0x0 MSTORE PUSH1 0x21 PUSH1 0x4 MSTORE PUSH1 0x24 PUSH1 0x0 REVERT JUMPDEST SWAP1 PUSH2 0x140 SWAP1 DUP2 DUP2 ADD SWAP1 DUP4 MLOAD DUP2 MSTORE PUSH2 0x160 PUSH1 0x1 DUP1 PUSH1 0xA0 SHL SUB SWAP2 PUSH1 0x20 SWAP5 DUP4 DUP7 SWAP5 DUP6 DUP10 ADD MLOAD AND DUP6 DUP5 ADD MSTORE PUSH1 0x40 DUP9 ADD MLOAD PUSH1 0x40 DUP5 ADD MSTORE DUP1 PUSH1 0x60 DUP10 ADD MLOAD AND PUSH1 0x60 DUP5 ADD MSTORE PUSH1 0x80 DUP9 ADD MLOAD PUSH1 0x80 DUP5 ADD MSTORE PUSH1 0xA0 DUP9 ADD MLOAD PUSH1 0xA0 DUP5 ADD MSTORE PUSH1 0xC0 DUP9 ADD MLOAD PUSH1 0xC0 DUP5 ADD MSTORE PUSH2 0x1B9D PUSH1 0xE0 DUP10 ADD MLOAD PUSH1 0xE0 DUP6 ADD SWAP1 PUSH2 0x1B0D JUMP JUMPDEST PUSH2 0x100 SWAP1 DUP2 DUP10 ADD MLOAD AND SWAP1 DUP4 ADD MSTORE PUSH2 0x120 DUP1 SWAP8 ADD MLOAD SWAP7 DUP3 ADD MSTORE DUP6 MLOAD DUP1 SWAP5 MSTORE ADD SWAP4 ADD SWAP2 PUSH1 0x0 JUMPDEST DUP3 DUP2 LT PUSH2 0x1BCF JUMPI POP POP POP POP SWAP1 JUMP JUMPDEST DUP4 MLOAD DUP6 MSTORE SWAP4 DUP2 ADD SWAP4 SWAP3 DUP2 ADD SWAP3 PUSH1 0x1 ADD PUSH2 0x1BC1 JUMP JUMPDEST PUSH1 0x20 DUP1 DUP3 ADD SWAP1 DUP1 DUP4 MSTORE DUP4 MLOAD DUP1 SWAP3 MSTORE PUSH1 0x40 DUP4 ADD SWAP3 DUP2 PUSH1 0x40 DUP5 PUSH1 0x5 SHL DUP4 ADD ADD SWAP6 ADD SWAP4 PUSH1 0x0 SWAP2 JUMPDEST DUP5 DUP4 LT PUSH2 0x1C17 JUMPI POP POP POP POP POP POP SWAP1 JUMP JUMPDEST SWAP1 SWAP2 SWAP3 SWAP4 SWAP5 SWAP6 DUP5 DUP1 PUSH2 0x1C35 PUSH1 0x1 SWAP4 PUSH1 0x3F NOT DUP7 DUP3 SUB ADD DUP8 MSTORE DUP11 MLOAD PUSH2 0x1B30 JUMP JUMPDEST SWAP9 ADD SWAP4 ADD SWAP4 ADD SWAP2 SWAP5 SWAP4 SWAP3 SWAP1 PUSH2 0x1C07 JUMP JUMPDEST PUSH1 0x40 SWAP1 PUSH1 0x3 NOT ADD SLT PUSH2 0x1C5B JUMPI PUSH1 0x4 CALLDATALOAD SWAP1 PUSH1 0x24 CALLDATALOAD SWAP1 JUMP JUMPDEST PUSH1 0x0 DUP1 REVERT JUMPDEST PUSH1 0x0 SLOAD PUSH1 0x1 PUSH1 0x1 PUSH1 0xA0 SHL SUB AND CALLER SUB PUSH2 0x1C74 JUMPI JUMP JUMPDEST PUSH1 0x40 MLOAD PUSH4 0x118CDAA7 PUSH1 0xE0 SHL DUP2 MSTORE CALLER PUSH1 0x4 DUP3 ADD MSTORE PUSH1 0x24 SWAP1 REVERT JUMPDEST PUSH2 0x140 DUP2 ADD SWAP1 DUP2 LT PUSH8 0xFFFFFFFFFFFFFFFF DUP3 GT OR PUSH2 0x1CA9 JUMPI PUSH1 0x40 MSTORE JUMP JUMPDEST PUSH4 0x4E487B71 PUSH1 0xE0 SHL PUSH1 0x0 MSTORE PUSH1 0x41 PUSH1 0x4 MSTORE PUSH1 0x24 PUSH1 0x0 REVERT JUMPDEST PUSH8 0xFFFFFFFFFFFFFFFF DUP2 GT PUSH2 0x1CA9 JUMPI PUSH1 0x40 MSTORE JUMP JUMPDEST PUSH1 0x80 DUP2 ADD SWAP1 DUP2 LT PUSH8 0xFFFFFFFFFFFFFFFF DUP3 GT OR PUSH2 0x1CA9 JUMPI PUSH1 0x40 MSTORE JUMP JUMPDEST SWAP1 PUSH1 0x1F DUP1 NOT SWAP2 ADD AND DUP2 ADD SWAP1 DUP2 LT PUSH8 0xFFFFFFFFFFFFFFFF DUP3 GT OR PUSH2 0x1CA9 JUMPI PUSH1 0x40 MSTORE JUMP JUMPDEST SWAP1 DUP2 PUSH1 0x20 SWAP2 SUB SLT PUSH2 0x1C5B JUMPI MLOAD PUSH1 0x1 PUSH1 0x1 PUSH1 0xA0 SHL SUB DUP2 AND DUP2 SUB PUSH2 0x1C5B JUMPI SWAP1 JUMP JUMPDEST ISZERO PUSH2 0x1D37 JUMPI JUMP JUMPDEST PUSH1 0x40 MLOAD PUSH3 0x461BCD PUSH1 0xE5 SHL DUP2 MSTORE PUSH1 0x20 PUSH1 0x4 DUP3 ADD MSTORE PUSH1 0xE PUSH1 0x24 DUP3 ADD MSTORE PUSH14 0x2737BA1036B2B1B41037BBB732B9 PUSH1 0x91 SHL PUSH1 0x44 DUP3 ADD MSTORE PUSH1 0x64 SWAP1 REVERT JUMPDEST ISZERO PUSH2 0x1D74 JUMPI JUMP JUMPDEST PUSH1 0x40 MLOAD PUSH3 0x461BCD PUSH1 0xE5 SHL DUP2 MSTORE PUSH1 0x20 PUSH1 0x4 DUP3 ADD MSTORE PUSH1 0x16 PUSH1 0x24 DUP3 ADD MSTORE PUSH22 0x4D65636820616C726561647920696E20626174746C65 PUSH1 0x50 SHL PUSH1 0x44 DUP3 ADD MSTORE PUSH1 0x64 SWAP1 REVERT JUMPDEST DUP1 SWAP2 PUSH2 0x180 SWAP3 DUP4 SWAP2 SUB SLT PUSH2 0x1C5B JUMPI PUSH1 0x40 MLOAD SWAP2 DUP3 ADD DUP3 DUP2 LT PUSH8 0xFFFFFFFFFFFFFFFF DUP3 GT OR PUSH2 0x1CA9 JUMPI PUSH1 0x40 MSTORE DUP1 MLOAD DUP3 MSTORE PUSH1 0x20 DUP2 ADD MLOAD PUSH1 0x20 DUP4 ADD MSTORE PUSH1 0x40 DUP2 ADD MLOAD PUSH1 0x40 DUP4 ADD MSTORE PUSH1 0x60 DUP2 ADD MLOAD PUSH1 0x60 DUP4 ADD MSTORE PUSH1 0x80 DUP2 ADD MLOAD PUSH1 0x80 DUP4 ADD MSTORE PUSH1 0xA0 DUP2 ADD MLOAD PUSH1 0xA0 DUP4 ADD MSTORE PUSH1 0xC0 DUP2 ADD MLOAD PUSH1 0xC0 DUP4 ADD MSTORE PUSH1 0xE0 DUP2 ADD MLOAD PUSH1 0xE0 DUP4 ADD MSTORE PUSH2 0x100 DUP1 DUP3 ADD MLOAD SWAP1 DUP4 ADD MSTORE PUSH2 0x120 DUP1 DUP3 ADD MLOAD SWAP1 DUP4 ADD MSTORE PUSH2 0x140 DUP1 DUP3 ADD MLOAD SWAP1 DUP4 ADD MSTORE PUSH2 0x160 DUP1 SWAP2 ADD MLOAD SWAP1 DUP2 ISZERO ISZERO DUP3 SUB PUSH2 0x1C5B JUMPI DUP3 ADD MSTORE SWAP1 JUMP JUMPDEST ISZERO PUSH2 0x1E65 JUMPI JUMP JUMPDEST PUSH1 0x40 MLOAD PUSH3 0x461BCD PUSH1 0xE5 SHL DUP2 MSTORE PUSH1 0x20 PUSH1 0x4 DUP3 ADD MSTORE PUSH1 0xE PUSH1 0x24 DUP3 ADD MSTORE PUSH14 0x135958DA081A5CC81CDD185AD959 PUSH1 0x92 SHL PUSH1 0x44 DUP3 ADD MSTORE PUSH1 0x64 SWAP1 REVERT JUMPDEST PUSH1 0x0 NOT DUP2 EQ PUSH2 0x1EAA JUMPI PUSH1 0x1 ADD SWAP1 JUMP JUMPDEST PUSH4 0x4E487B71 PUSH1 0xE0 SHL PUSH1 0x0 MSTORE PUSH1 0x11 PUSH1 0x4 MSTORE PUSH1 0x24 PUSH1 0x0 REVERT JUMPDEST PUSH8 0xFFFFFFFFFFFFFFFF DUP2 GT PUSH2 0x1CA9 JUMPI PUSH1 0x5 SHL PUSH1 0x20 ADD SWAP1 JUMP JUMPDEST PUSH1 0x4 DUP3 LT ISZERO PUSH2 0x1B1A JUMPI MSTORE JUMP JUMPDEST DUP2 DUP2 MUL SWAP3 SWAP2 DUP2 ISZERO SWAP2 DUP5 DIV EQ OR ISZERO PUSH2 0x1EAA JUMPI JUMP JUMPDEST PUSH1 0xFF PUSH1 0x2 SLOAD AND PUSH2 0x1F03 JUMPI JUMP JUMPDEST PUSH1 0x40 MLOAD PUSH4 0xD93C0665 PUSH1 0xE0 SHL DUP2 MSTORE PUSH1 0x4 SWAP1 REVERT JUMPDEST PUSH1 0x2 PUSH1 0x1 SLOAD EQ PUSH2 0x1F26 JUMPI PUSH1 0x2 PUSH1 0x1 SSTORE JUMP JUMPDEST PUSH1 0x40 MLOAD PUSH4 0x3EE5AEB5 PUSH1 0xE0 SHL DUP2 MSTORE PUSH1 0x4 SWAP1 REVERT JUMPDEST ISZERO PUSH2 0x1F3F JUMPI JUMP JUMPDEST PUSH1 0x40 MLOAD PUSH3 0x461BCD PUSH1 0xE5 SHL DUP2 MSTORE PUSH1 0x20 PUSH1 0x4 DUP3 ADD MSTORE PUSH1 0x11 PUSH1 0x24 DUP3 ADD MSTORE PUSH17 0x125B9D985B1A590818985D1D1B19481251 PUSH1 0x7A SHL PUSH1 0x44 DUP3 ADD MSTORE PUSH1 0x64 SWAP1 REVERT JUMPDEST ISZERO PUSH2 0x1F7F JUMPI JUMP JUMPDEST PUSH1 0x40 MLOAD PUSH3 0x461BCD PUSH1 0xE5 SHL DUP2 MSTORE PUSH1 0x20 PUSH1 0x4 DUP3 ADD MSTORE PUSH1 0x12 PUSH1 0x24 DUP3 ADD MSTORE PUSH18 0x426174746C65206E6F742070656E64696E67 PUSH1 0x70 SHL PUSH1 0x44 DUP3 ADD MSTORE PUSH1 0x64 SWAP1 REVERT JUMPDEST SWAP2 SWAP1 DUP3 ADD DUP1 SWAP3 GT PUSH2 0x1EAA JUMPI JUMP JUMPDEST SWAP2 SWAP1 DUP3 SUB SWAP2 DUP3 GT PUSH2 0x1EAA JUMPI JUMP JUMPDEST RETURNDATASIZE ISZERO PUSH2 0x200E JUMPI RETURNDATASIZE SWAP1 PUSH8 0xFFFFFFFFFFFFFFFF DUP3 GT PUSH2 0x1CA9 JUMPI PUSH1 0x40 MLOAD SWAP2 PUSH2 0x2002 PUSH1 0x1F DUP3 ADD PUSH1 0x1F NOT AND PUSH1 0x20 ADD DUP5 PUSH2 0x1CEF JUMP JUMPDEST DUP3 MSTORE RETURNDATASIZE PUSH1 0x0 PUSH1 0x20 DUP5 ADD RETURNDATACOPY JUMP JUMPDEST PUSH1 0x60 SWAP1 JUMP JUMPDEST PUSH1 0x40 MLOAD SWAP1 PUSH2 0x2020 DUP3 PUSH2 0x1C8C JUMP JUMPDEST PUSH1 0x60 PUSH2 0x120 DUP4 PUSH1 0x0 DUP1 DUP3 MSTORE DUP1 PUSH1 0x20 DUP4 ADD MSTORE DUP1 PUSH1 0x40 DUP4 ADD MSTORE DUP1 DUP5 DUP4 ADD MSTORE DUP1 PUSH1 0x80 DUP4 ADD MSTORE DUP1 PUSH1 0xA0 DUP4 ADD MSTORE DUP1 PUSH1 0xC0 DUP4 ADD MSTORE DUP1 PUSH1 0xE0 DUP4 ADD MSTORE PUSH2 0x100 DUP3 ADD MSTORE ADD MSTORE JUMP JUMPDEST SWAP1 PUSH2 0x2068 DUP3 PUSH2 0x1EC0 JUMP JUMPDEST PUSH2 0x2075 PUSH1 0x40 MLOAD SWAP2 DUP3 PUSH2 0x1CEF JUMP JUMPDEST DUP3 DUP2 MSTORE DUP1 SWAP3 PUSH2 0x2086 PUSH1 0x1F NOT SWAP2 PUSH2 0x1EC0 JUMP JUMPDEST ADD SWAP1 PUSH1 0x0 JUMPDEST DUP3 DUP2 LT PUSH2 0x2097 JUMPI POP POP POP JUMP JUMPDEST PUSH1 0x20 SWAP1 PUSH2 0x20A2 PUSH2 0x2013 JUMP JUMPDEST DUP3 DUP3 DUP6 ADD ADD MSTORE ADD PUSH2 0x208B JUMP JUMPDEST DUP1 MLOAD DUP3 LT ISZERO PUSH2 0x20C2 JUMPI PUSH1 0x20 SWAP2 PUSH1 0x5 SHL ADD ADD SWAP1 JUMP JUMPDEST PUSH4 0x4E487B71 PUSH1 0xE0 SHL PUSH1 0x0 MSTORE PUSH1 0x32 PUSH1 0x4 MSTORE PUSH1 0x24 PUSH1 0x0 REVERT INVALID LOG2 PUSH5 0x6970667358 0x22 SLT KECCAK256 SUB SWAP10 0xE4 PUSH27 0xD8B668CBCB63EDC27BF66C1F7A0C13F1DB6A376B8F9724B751FF4D RETURN PUSH5 0x736F6C6343 STOP ADDMOD EQ STOP CALLER "},"methodIdentifiers":{"MAX_ROUNDS()":"41d35582","battles(uint256)":"606d2e96","cancelBattle(uint256)":"4c4c447e","createBattle(uint256)":"94d44f12","getActiveBattlesCount()":"068a1e49","getBattle(uint256)":"6dd0ce7a","getBattleForMech(uint256)":"0ae6605d","getPendingBattles(uint256,uint256)":"cc4bbb27","getPlayerStats(address)":"4fd66eae","getRecentBattles(uint256)":"3b6806eb","isMechInBattle(uint256)":"fb6b7cad","joinBattle(uint256,uint256)":"e44dba4f","maxStake()":"ea1b28e0","mechNFT()":"16010ae1","mechToBattle(uint256)":"b647b17b","minStake()":"375b3c0a","owner()":"8da5cb5b","pause()":"8456cb59","paused()":"5c975abb","platformFeePercent()":"8c639a85","playerLosses(address)":"fedb848a","playerTotalEarnings(address)":"83d62069","playerWins(address)":"8b31fb89","renounceOwnership()":"715018a6","setMechNFT(address)":"efd39938","setPlatformFee(uint256)":"12e8e2c3","setStakeLimits(uint256,uint256)":"8c9bd1b5","transferOwnership(address)":"f2fde38b","unpause()":"3f4ba83a","withdraw()":"3ccfd60b"}}}}}