{
  "_format": "hh-sol-artifact-1",
  "contractName": "MechNFT",
  "sourceName": "contracts/MechNFT.sol",
  "abi": [
    {
      "inputs": [
        {
          "internalType": "string",
          "name": "baseURI",
          "type": "string"
        }
      ],
      "stateMutability": "nonpayable",
      "type": "constructor"
    },
    {
      "inputs": [],
      "name": "ERC721EnumerableForbiddenBatchMint",
      "type": "error"
    },
    {
      "inputs": [
        {
          "internalType": "address",
          "name": "sender",
          "type": "address"
        },
        {
          "internalType": "uint256",
          "name": "tokenId",
          "type": "uint256"
        },
        {
          "internalType": "address",
          "name": "owner",
          "type": "address"
        }
      ],
      "name": "ERC721IncorrectOwner",
      "type": "error"
    },
    {
      "inputs": [
        {
          "internalType": "address",
          "name": "operator",
          "type": "address"
        },
        {
          "internalType": "uint256",
          "name": "tokenId",
          "type": "uint256"
        }
      ],
      "name": "ERC721InsufficientApproval",
      "type": "error"
    },
    {
      "inputs": [
        {
          "internalType": "address",
          "name": "approver",
          "type": "address"
        }
      ],
      "name": "ERC721InvalidApprover",
      "type": "error"
    },
    {
      "inputs": [
        {
          "internalType": "address",
          "name": "operator",
          "type": "address"
        }
      ],
      "name": "ERC721InvalidOperator",
      "type": "error"
    },
    {
      "inputs": [
        {
          "internalType": "address",
          "name": "owner",
          "type": "address"
        }
      ],
      "name": "ERC721InvalidOwner",
      "type": "error"
    },
    {
      "inputs": [
        {
          "internalType": "address",
          "name": "receiver",
          "type": "address"
        }
      ],
      "name": "ERC721InvalidReceiver",
      "type": "error"
    },
    {
      "inputs": [
        {
          "internalType": "address",
          "name": "sender",
          "type": "address"
        }
      ],
      "name": "ERC721InvalidSender",
      "type": "error"
    },
    {
      "inputs": [
        {
          "internalType": "uint256",
          "name": "tokenId",
          "type": "uint256"
        }
      ],
      "name": "ERC721NonexistentToken",
      "type": "error"
    },
    {
      "inputs": [
        {
          "internalType": "address",
          "name": "owner",
          "type": "address"
        },
        {
          "internalType": "uint256",
          "name": "index",
          "type": "uint256"
        }
      ],
      "name": "ERC721OutOfBoundsIndex",
      "type": "error"
    },
    {
      "inputs": [],
      "name": "EnforcedPause",
      "type": "error"
    },
    {
      "inputs": [],
      "name": "ExpectedPause",
      "type": "error"
    },
    {
      "inputs": [
        {
          "internalType": "address",
          "name": "owner",
          "type": "address"
        }
      ],
      "name": "OwnableInvalidOwner",
      "type": "error"
    },
    {
      "inputs": [
        {
          "internalType": "address",
          "name": "account",
          "type": "address"
        }
      ],
      "name": "OwnableUnauthorizedAccount",
      "type": "error"
    },
    {
      "inputs": [],
      "name": "ReentrancyGuardReentrantCall",
      "type": "error"
    },
    {
      "anonymous": false,
      "inputs": [
        {
          "indexed": true,
          "internalType": "address",
          "name": "owner",
          "type": "address"
        },
        {
          "indexed": true,
          "internalType": "address",
          "name": "approved",
          "type": "address"
        },
        {
          "indexed": true,
          "internalType": "uint256",
          "name": "tokenId",
          "type": "uint256"
        }
      ],
      "name": "Approval",
      "type": "event"
    },
    {
      "anonymous": false,
      "inputs": [
        {
          "indexed": true,
          "internalType": "address",
          "name": "owner",
          "type": "address"
        },
        {
          "indexed": true,
          "internalType": "address",
          "name": "operator",
          "type": "address"
        },
        {
          "indexed": false,
          "internalType": "bool",
          "name": "approved",
          "type": "bool"
        }
      ],
      "name": "ApprovalForAll",
      "type": "event"
    },
    {
      "anonymous": false,
      "inputs": [
        {
          "indexed": false,
          "internalType": "uint256",
          "name": "_fromTokenId",
          "type": "uint256"
        },
        {
          "indexed": false,
          "internalType": "uint256",
          "name": "_toTokenId",
          "type": "uint256"
        }
      ],
      "name": "BatchMetadataUpdate",
      "type": "event"
    },
    {
      "anonymous": false,
      "inputs": [
        {
          "indexed": true,
          "internalType": "uint256",
          "name": "tokenId",
          "type": "uint256"
        },
        {
          "indexed": false,
          "internalType": "uint256",
          "name": "amount",
          "type": "uint256"
        }
      ],
      "name": "ExperienceGained",
      "type": "event"
    },
    {
      "anonymous": false,
      "inputs": [
        {
          "indexed": true,
          "internalType": "uint256",
          "name": "tokenId",
          "type": "uint256"
        },
        {
          "indexed": false,
          "internalType": "uint256",
          "name": "newLevel",
          "type": "uint256"
        }
      ],
      "name": "MechLeveledUp",
      "type": "event"
    },
    {
      "anonymous": false,
      "inputs": [
        {
          "indexed": true,
          "internalType": "address",
          "name": "owner",
          "type": "address"
        },
        {
          "indexed": true,
          "internalType": "uint256",
          "name": "tokenId",
          "type": "uint256"
        },
        {
          "indexed": false,
          "internalType": "uint256",
          "name": "mechType",
          "type": "uint256"
        },
        {
          "indexed": false,
          "internalType": "uint256",
          "name": "rarity",
          "type": "uint256"
        }
      ],
      "name": "MechMinted",
      "type": "event"
    },
    {
      "anonymous": false,
      "inputs": [
        {
          "indexed": false,
          "internalType": "uint256",
          "name": "_tokenId",
          "type": "uint256"
        }
      ],
      "name": "MetadataUpdate",
      "type": "event"
    },
    {
      "anonymous": false,
      "inputs": [
        {
          "indexed": true,
          "internalType": "address",
          "name": "minter",
          "type": "address"
        }
      ],
      "name": "MinterAuthorized",
      "type": "event"
    },
    {
      "anonymous": false,
      "inputs": [
        {
          "indexed": true,
          "internalType": "address",
          "name": "minter",
          "type": "address"
        }
      ],
      "name": "MinterRevoked",
      "type": "event"
    },
    {
      "anonymous": false,
      "inputs": [
        {
          "indexed": true,
          "internalType": "address",
          "name": "previousOwner",
          "type": "address"
        },
        {
          "indexed": true,
          "internalType": "address",
          "name": "newOwner",
          "type": "address"
        }
      ],
      "name": "OwnershipTransferred",
      "type": "event"
    },
    {
      "anonymous": false,
      "inputs": [
        {
          "indexed": false,
          "internalType": "address",
          "name": "account",
          "type": "address"
        }
      ],
      "name": "Paused",
      "type": "event"
    },
    {
      "anonymous": false,
      "inputs": [
        {
          "indexed": true,
          "internalType": "uint256",
          "name": "tokenId",
          "type": "uint256"
        }
      ],
      "name": "StatsUpdated",
      "type": "event"
    },
    {
      "anonymous": false,
      "inputs": [
        {
          "indexed": true,
          "internalType": "address",
          "name": "from",
          "type": "address"
        },
        {
          "indexed": true,
          "internalType": "address",
          "name": "to",
          "type": "address"
        },
        {
          "indexed": true,
          "internalType": "uint256",
          "name": "tokenId",
          "type": "uint256"
        }
      ],
      "name": "Transfer",
      "type": "event"
    },
    {
      "anonymous": false,
      "inputs": [
        {
          "indexed": false,
          "internalType": "address",
          "name": "account",
          "type": "address"
        }
      ],
      "name": "Unpaused",
      "type": "event"
    },
    {
      "inputs": [],
      "name": "MAX_MINT_PER_TX",
      "outputs": [
        {
          "internalType": "uint256",
          "name": "",
          "type": "uint256"
        }
      ],
      "stateMutability": "view",
      "type": "function"
    },
    {
      "inputs": [],
      "name": "MAX_SUPPLY",
      "outputs": [
        {
          "internalType": "uint256",
          "name": "",
          "type": "uint256"
        }
      ],
      "stateMutability": "view",
      "type": "function"
    },
    {
      "inputs": [],
      "name": "MINT_PRICE",
      "outputs": [
        {
          "internalType": "uint256",
          "name": "",
          "type": "uint256"
        }
      ],
      "stateMutability": "view",
      "type": "function"
    },
    {
      "inputs": [
        {
          "internalType": "address",
          "name": "to",
          "type": "address"
        }
      ],
      "name": "adminMint",
      "outputs": [],
      "stateMutability": "nonpayable",
      "type": "function"
    },
    {
      "inputs": [
        {
          "internalType": "address",
          "name": "to",
          "type": "address"
        },
        {
          "internalType": "uint256",
          "name": "tokenId",
          "type": "uint256"
        }
      ],
      "name": "approve",
      "outputs": [],
      "stateMutability": "nonpayable",
      "type": "function"
    },
    {
      "inputs": [
        {
          "internalType": "address",
          "name": "minter",
          "type": "address"
        }
      ],
      "name": "authorizeMinter",
      "outputs": [],
      "stateMutability": "nonpayable",
      "type": "function"
    },
    {
      "inputs": [
        {
          "internalType": "address",
          "name": "",
          "type": "address"
        }
      ],
      "name": "authorizedMinters",
      "outputs": [
        {
          "internalType": "bool",
          "name": "",
          "type": "bool"
        }
      ],
      "stateMutability": "view",
      "type": "function"
    },
    {
      "inputs": [
        {
          "internalType": "address",
          "name": "owner",
          "type": "address"
        }
      ],
      "name": "balanceOf",
      "outputs": [
        {
          "internalType": "uint256",
          "name": "",
          "type": "uint256"
        }
      ],
      "stateMutability": "view",
      "type": "function"
    },
    {
      "inputs": [
        {
          "internalType": "uint256",
          "name": "tokenId",
          "type": "uint256"
        },
        {
          "internalType": "uint256",
          "name": "exp",
          "type": "uint256"
        }
      ],
      "name": "gainExperience",
      "outputs": [],
      "stateMutability": "nonpayable",
      "type": "function"
    },
    {
      "inputs": [
        {
          "internalType": "uint256",
          "name": "tokenId",
          "type": "uint256"
        }
      ],
      "name": "getApproved",
      "outputs": [
        {
          "internalType": "address",
          "name": "",
          "type": "address"
        }
      ],
      "stateMutability": "view",
      "type": "function"
    },
    {
      "inputs": [
        {
          "internalType": "uint256",
          "name": "tokenId",
          "type": "uint256"
        }
      ],
      "name": "getMechStats",
      "outputs": [
        {
          "components": [
            {
              "internalType": "uint256",
              "name": "attack",
              "type": "uint256"
            },
            {
              "internalType": "uint256",
              "name": "defense",
              "type": "uint256"
            },
            {
              "internalType": "uint256",
              "name": "speed",
              "type": "uint256"
            },
            {
              "internalType": "uint256",
              "name": "health",
              "type": "uint256"
            },
            {
              "internalType": "uint256",
              "name": "energy",
              "type": "uint256"
            },
            {
              "internalType": "uint256",
              "name": "level",
              "type": "uint256"
            },
            {
              "internalType": "uint256",
              "name": "experience",
              "type": "uint256"
            },
            {
              "internalType": "uint256",
              "name": "battlesWon",
              "type": "uint256"
            },
            {
              "internalType": "uint256",
              "name": "battlesLost",
              "type": "uint256"
            },
            {
              "internalType": "uint256",
              "name": "mechType",
              "type": "uint256"
            },
            {
              "internalType": "uint256",
              "name": "rarity",
              "type": "uint256"
            },
            {
              "internalType": "bool",
              "name": "staked",
              "type": "bool"
            }
          ],
          "internalType": "struct MechNFT.MechStats",
          "name": "",
          "type": "tuple"
        }
      ],
      "stateMutability": "view",
      "type": "function"
    },
    {
      "inputs": [
        {
          "internalType": "address",
          "name": "owner",
          "type": "address"
        }
      ],
      "name": "getMechsByOwner",
      "outputs": [
        {
          "internalType": "uint256[]",
          "name": "",
          "type": "uint256[]"
        }
      ],
      "stateMutability": "view",
      "type": "function"
    },
    {
      "inputs": [
        {
          "internalType": "address",
          "name": "owner",
          "type": "address"
        },
        {
          "internalType": "address",
          "name": "operator",
          "type": "address"
        }
      ],
      "name": "isApprovedForAll",
      "outputs": [
        {
          "internalType": "bool",
          "name": "",
          "type": "bool"
        }
      ],
      "stateMutability": "view",
      "type": "function"
    },
    {
      "inputs": [
        {
          "internalType": "uint256",
          "name": "",
          "type": "uint256"
        }
      ],
      "name": "mechStats",
      "outputs": [
        {
          "internalType": "uint256",
          "name": "attack",
          "type": "uint256"
        },
        {
          "internalType": "uint256",
          "name": "defense",
          "type": "uint256"
        },
        {
          "internalType": "uint256",
          "name": "speed",
          "type": "uint256"
        },
        {
          "internalType": "uint256",
          "name": "health",
          "type": "uint256"
        },
        {
          "internalType": "uint256",
          "name": "energy",
          "type": "uint256"
        },
        {
          "internalType": "uint256",
          "name": "level",
          "type": "uint256"
        },
        {
          "internalType": "uint256",
          "name": "experience",
          "type": "uint256"
        },
        {
          "internalType": "uint256",
          "name": "battlesWon",
          "type": "uint256"
        },
        {
          "internalType": "uint256",
          "name": "battlesLost",
          "type": "uint256"
        },
        {
          "internalType": "uint256",
          "name": "mechType",
          "type": "uint256"
        },
        {
          "internalType": "uint256",
          "name": "rarity",
          "type": "uint256"
        },
        {
          "internalType": "bool",
          "name": "staked",
          "type": "bool"
        }
      ],
      "stateMutability": "view",
      "type": "function"
    },
    {
      "inputs": [
        {
          "internalType": "uint256",
          "name": "quantity",
          "type": "uint256"
        }
      ],
      "name": "mint",
      "outputs": [],
      "stateMutability": "payable",
      "type": "function"
    },
    {
      "inputs": [],
      "name": "name",
      "outputs": [
        {
          "internalType": "string",
          "name": "",
          "type": "string"
        }
      ],
      "stateMutability": "view",
      "type": "function"
    },
    {
      "inputs": [],
      "name": "owner",
      "outputs": [
        {
          "internalType": "address",
          "name": "",
          "type": "address"
        }
      ],
      "stateMutability": "view",
      "type": "function"
    },
    {
      "inputs": [
        {
          "internalType": "uint256",
          "name": "tokenId",
          "type": "uint256"
        }
      ],
      "name": "ownerOf",
      "outputs": [
        {
          "internalType": "address",
          "name": "",
          "type": "address"
        }
      ],
      "stateMutability": "view",
      "type": "function"
    },
    {
      "inputs": [],
      "name": "pause",
      "outputs": [],
      "stateMutability": "nonpayable",
      "type": "function"
    },
    {
      "inputs": [],
      "name": "paused",
      "outputs": [
        {
          "internalType": "bool",
          "name": "",
          "type": "bool"
        }
      ],
      "stateMutability": "view",
      "type": "function"
    },
    {
      "inputs": [],
      "name": "renounceOwnership",
      "outputs": [],
      "stateMutability": "nonpayable",
      "type": "function"
    },
    {
      "inputs": [
        {
          "internalType": "address",
          "name": "minter",
          "type": "address"
        }
      ],
      "name": "revokeMinter",
      "outputs": [],
      "stateMutability": "nonpayable",
      "type": "function"
    },
    {
      "inputs": [
        {
          "internalType": "address",
          "name": "from",
          "type": "address"
        },
        {
          "internalType": "address",
          "name": "to",
          "type": "address"
        },
        {
          "internalType": "uint256",
          "name": "tokenId",
          "type": "uint256"
        }
      ],
      "name": "safeTransferFrom",
      "outputs": [],
      "stateMutability": "nonpayable",
      "type": "function"
    },
    {
      "inputs": [
        {
          "internalType": "address",
          "name": "from",
          "type": "address"
        },
        {
          "internalType": "address",
          "name": "to",
          "type": "address"
        },
        {
          "internalType": "uint256",
          "name": "tokenId",
          "type": "uint256"
        },
        {
          "internalType": "bytes",
          "name": "data",
          "type": "bytes"
        }
      ],
      "name": "safeTransferFrom",
      "outputs": [],
      "stateMutability": "nonpayable",
      "type": "function"
    },
    {
      "inputs": [
        {
          "internalType": "address",
          "name": "operator",
          "type": "address"
        },
        {
          "internalType": "bool",
          "name": "approved",
          "type": "bool"
        }
      ],
      "name": "setApprovalForAll",
      "outputs": [],
      "stateMutability": "nonpayable",
      "type": "function"
    },
    {
      "inputs": [
        {
          "internalType": "string",
          "name": "baseURI",
          "type": "string"
        }
      ],
      "name": "setBaseURI",
      "outputs": [],
      "stateMutability": "nonpayable",
      "type": "function"
    },
    {
      "inputs": [
        {
          "internalType": "uint256",
          "name": "tokenId",
          "type": "uint256"
        },
        {
          "internalType": "bool",
          "name": "staked",
          "type": "bool"
        }
      ],
      "name": "setStaked",
      "outputs": [],
      "stateMutability": "nonpayable",
      "type": "function"
    },
    {
      "inputs": [
        {
          "internalType": "bytes4",
          "name": "interfaceId",
          "type": "bytes4"
        }
      ],
      "name": "supportsInterface",
      "outputs": [
        {
          "internalType": "bool",
          "name": "",
          "type": "bool"
        }
      ],
      "stateMutability": "view",
      "type": "function"
    },
    {
      "inputs": [],
      "name": "symbol",
      "outputs": [
        {
          "internalType": "string",
          "name": "",
          "type": "string"
        }
      ],
      "stateMutability": "view",
      "type": "function"
    },
    {
      "inputs": [
        {
          "internalType": "uint256",
          "name": "index",
          "type": "uint256"
        }
      ],
      "name": "tokenByIndex",
      "outputs": [
        {
          "internalType": "uint256",
          "name": "",
          "type": "uint256"
        }
      ],
      "stateMutability": "view",
      "type": "function"
    },
    {
      "inputs": [
        {
          "internalType": "address",
          "name": "owner",
          "type": "address"
        },
        {
          "internalType": "uint256",
          "name": "index",
          "type": "uint256"
        }
      ],
      "name": "tokenOfOwnerByIndex",
      "outputs": [
        {
          "internalType": "uint256",
          "name": "",
          "type": "uint256"
        }
      ],
      "stateMutability": "view",
      "type": "function"
    },
    {
      "inputs": [
        {
          "internalType": "uint256",
          "name": "tokenId",
          "type": "uint256"
        }
      ],
      "name": "tokenURI",
      "outputs": [
        {
          "internalType": "string",
          "name": "",
          "type": "string"
        }
      ],
      "stateMutability": "view",
      "type": "function"
    },
    {
      "inputs": [],
      "name": "totalSupply",
      "outputs": [
        {
          "internalType": "uint256",
          "name": "",
          "type": "uint256"
        }
      ],
      "stateMutability": "view",
      "type": "function"
    },
    {
      "inputs": [
        {
          "internalType": "address",
          "name": "from",
          "type": "address"
        },
        {
          "internalType": "address",
          "name": "to",
          "type": "address"
        },
        {
          "internalType": "uint256",
          "name": "tokenId",
          "type": "uint256"
        }
      ],
      "name": "transferFrom",
      "outputs": [],
      "stateMutability": "nonpayable",
      "type": "function"
    },
    {
      "inputs": [
        {
          "internalType": "address",
          "name": "newOwner",
          "type": "address"
        }
      ],
      "name": "transferOwnership",
      "outputs": [],
      "stateMutability": "nonpayable",
      "type": "function"
    },
    {
      "inputs": [],
      "name": "unpause",
      "outputs": [],
      "stateMutability": "nonpayable",
      "type": "function"
    },
    {
      "inputs": [
        {
          "internalType": "uint256",
          "name": "tokenId",
          "type": "uint256"
        },
        {
          "internalType": "bool",
          "name": "won",
          "type": "bool"
        }
      ],
      "name": "updateBattleRecord",
      "outputs": [],
      "stateMutability": "nonpayable",
      "type": "function"
    },
    {
      "inputs": [],
      "name": "withdraw",
      "outputs": [],
      "stateMutability": "nonpayable",
      "type": "function"
    },
    {
      "stateMutability": "payable",
      "type": "receive"
    }
  ],
  "bytecode": "0x6080604052346200055d57620038e9803803806200001d8162000598565b92833981019060209081818403126200055d5780516001600160401b03918282116200055d570191601f908482850112156200055d5783518381116200056257601f1994620000728285018716840162000598565b968288528383830101116200055d57829060005b8381106200054857505060009187010152620000a162000578565b9360098552684d656368466f72676560b81b82860152620000c162000578565b6004908181526309a8a86960e31b8482015286518681116200044c57600054976001988981811c911680156200053d575b878210146200052857908188849311620004d2575b5086908883116001146200046d5760009262000461575b5050600019600383901b1c191690881b176000555b8051908682116200044c5787548881811c9116801562000441575b868210146200042c57908187849311620003d6575b508590878311600114620003725760009262000366575b5050600019600383901b1c191690871b1786555b33156200034e57600b8054336001600160a01b0319821681179092556001600160a01b03167f8be0079c531659141344cd1fd0a4f28419497f9722a3daafe3b4186f6b6457e0600080a385600c5560ff19600d5416600d5586519485116200033957600f54908682811c921680156200032e575b84831014620003195750838111620002cd575b50819284116001146200026457505081929360009262000258575b5050600019600383901b1c191690821b17600f555b600e5560405161332a9081620005bf8239f35b01519050388062000230565b839291921694600f60005282600020926000905b878210620002b5575050838596106200029b575b505050811b01600f5562000245565b015160001960f88460031b161c191690553880806200028c565b80878596829496860151815501950193019062000278565b600f600052826000208480870160051c8201928588106200030f575b0160051c019086905b8281106200030257505062000215565b60008155018690620002f2565b92508192620002e9565b602290634e487b7160e01b6000525260246000fd5b91607f169162000202565b604190634e487b7160e01b6000525260246000fd5b602490600060405191631e4fbdf760e01b8352820152fd5b0151905038806200017a565b90858a94169184600052876000209260005b89828210620003bf5750508411620003a5575b505050811b0186556200018e565b015160001960f88460031b161c1916905538808062000397565b8385015186558d9790950194938401930162000384565b90915088600052856000208780850160051c82019288861062000422575b918b91869594930160051c01915b8281106200041257505062000163565b600081558594508b910162000402565b92508192620003f4565b602284634e487b7160e01b6000525260246000fd5b90607f16906200014e565b604183634e487b7160e01b6000525260246000fd5b0151905038806200011e565b90868b94169160008052886000209260005b8a828210620004bb5750508411620004a1575b505050811b0160005562000133565b015160001960f88460031b161c1916905538808062000492565b8385015186558e979095019493840193016200047f565b90915060008052866000208880850160051c8201928986106200051e575b918c91869594930160051c01915b8281106200050e57505062000107565b600081558594508c9101620004fe565b92508192620004f0565b602285634e487b7160e01b6000525260246000fd5b90607f1690620000f2565b81810183015189820184015284920162000086565b600080fd5b634e487b7160e01b600052604160045260246000fd5b60408051919082016001600160401b038111838210176200056257604052565b6040519190601f01601f191682016001600160401b03811183821017620005625760405256fe6080604052600436101561001b575b361561001957600080fd5b005b60003560e01c806301ffc9a71461027b57806306fdde0314610276578063081812fc14610271578063095ea7b31461026c5780630c9848321461026757806318160ddd1461026257806323b872dd1461025d5780632f745c591461025857806332cb6b0c146102535780633ccfd60b1461024e5780633f4ba83a1461024957806342842e0e146102445780634f6ccce71461023f578063539027151461023a57806355f804b3146102355780635c975abb146102305780636352211e1461022b5780636e0b73641461022657806370a0823114610221578063715018a61461021c5780638456cb59146102175780638da5cb5b146102125780638ecad7211461020d578063953b6a911461020857806395d89b41146102035780639769dc0e146101fe578063a0712d68146101f9578063a22cb465146101f4578063a86c6d33146101ef578063a92ae9e7146101ea578063aa2fe91b146101e5578063b88d4fde146101e0578063c002d23d146101db578063c87b56dd146101d6578063cfbd4885146101d1578063da40642e146101cc578063e985e9c5146101c75763f2fde38b0361000e5761177b565b61171e565b611685565b6115e2565b6115af565b61158d565b611527565b6114e8565b611439565b61134f565b61120c565b6110cc565b610fc1565b610f1c565b610d7e565b610d62565b610d39565b610cdf565b610c81565b610c5e565b610b9c565b610b6c565b610b49565b610a2f565b610891565b610812565b6107df565b610775565b610700565b6106e3565b6106b4565b61069d565b61064a565b6105df565b6104e2565b610478565b610395565b610297565b6001600160e01b031981160361029257565b600080fd5b346102925760203660031901126102925760206004356102b681610280565b63ffffffff60e01b16632483248360e11b81149081156102dc575b506040519015158152f35b63780e9d6360e01b8114915081156102f6575b50386102d1565b6380ac58cd60e01b811491508115610328575b8115610317575b50386102ef565b6301ffc9a760e01b14905038610310565b635b5e139f60e01b81149150610309565b60005b83811061034c5750506000910152565b818101518382015260200161033c565b9060209161037581518092818552858086019101610339565b601f01601f1916010190565b90602061039292818152019061035c565b90565b346102925760008060031936011261047557604051908080546103b78161186e565b8085529160019180831690811561044b57506001146103f1575b6103ed856103e181870382610999565b60405191829182610381565b0390f35b80809450527f290decd9548b62a8d60345a988386fc84ba6bc95484008f6362f93160ef3e5635b8284106104335750505081016020016103e1826103ed6103d1565b80546020858701810191909152909301928101610418565b8695506103ed969350602092506103e194915060ff191682840152151560051b82010192936103d1565b80fd5b346102925760203660031901126102925760043561049581611afb565b506000526004602052602060018060a01b0360406000205416604051908152f35b600435906001600160a01b038216820361029257565b602435906001600160a01b038216820361029257565b34610292576040366003190112610292576104fb6104b6565b6024359061050882611afb565b331515806105cc575b8061059e575b61058657610019926105679181906001600160a01b0385811691167f8c5be1e5ebec7d5bd14f71427d1e84f3dd0314c0f7b2291e5b200ac8c7c3b925600080a46000526004602052604060002090565b80546001600160a01b0319166001600160a01b03909216919091179055565b60405163a9fbf51f60e01b8152336004820152602490fd5b506001600160a01b038116600090815260056020908152604080832033845290915290205460ff1615610517565b506001600160a01b038116331415610511565b34610292576020366003190112610292576105f86104b6565b610600611809565b6001600160a01b03166000818152601160205260408120805460ff19166001179055907f83b05b6735acd4b85e3bded8e72c851d1a87718f81e3c8e6f0c9d9a2baa88e468280a280f35b34610292576000366003190112610292576020600854604051908152f35b6060906003190112610292576001600160a01b0390600435828116810361029257916024359081168103610292579060443590565b34610292576100196106ae36610668565b91611952565b346102925760403660031901126102925760206106db6106d26104b6565b60243590611d59565b604051908152f35b346102925760003660031901126102925760206040516127108152f35b34610292576000806003193601126104755761071a611809565b8080808060018060a01b03600b541647905af1610735611ba7565b501561073e5780f35b60405162461bcd60e51b815260206004820152600f60248201526e151c985b9cd9995c8819985a5b1959608a1b6044820152606490fd5b346102925760003660031901126102925761078e611809565b600d5460ff8116156107cd5760ff1916600d557f5db9ee0a495bf2e6ff9c91a7834c1ba4fdd244a5e8aa4e537bd38aeae4b073aa6020604051338152a1005b604051638dfc202b60e01b8152600490fd5b34610292576100196107f036610668565b90604051926107fe84610961565b6000845261080d838383611952565b611cc3565b34610292576020366003190112610292576004356008548110156108635760209060086000527ff3f7a9fe364faab93b216da50a3214154f22a0a2b415b23a84c8169e8b636ee30154604051908152f35b6044906040519063295f44f760e21b8252600060048301526024820152fd5b60243590811515820361029257565b34610292576040366003190112610292576004356109136108b0610882565b600092338452601160205260ff6040852054168015610916575b6108d390612ce3565b808452600260205260408420546108f4906001600160a01b03161515612d20565b83526010602052600b60408420019060ff801983541691151516179055565b80f35b50600b546001600160a01b031633146108ca565b634e487b7160e01b600052604160045260246000fd5b60c0810190811067ffffffffffffffff82111761095c57604052565b61092a565b6020810190811067ffffffffffffffff82111761095c57604052565b6040810190811067ffffffffffffffff82111761095c57604052565b90601f8019910116810190811067ffffffffffffffff82111761095c57604052565b60405190610180820182811067ffffffffffffffff82111761095c57604052565b67ffffffffffffffff811161095c57601f01601f191660200190565b929192610a04826109dc565b91610a126040519384610999565b829481845281830111610292578281602093846000960137010152565b34610292576020806003193601126102925767ffffffffffffffff600435818111610292573660238201121561029257610a739036906024816004013591016109f8565b91610a7c611809565b825191821161095c57610a9982610a94600f5461186e565b6121a2565b80601f8311600114610ad457508192600092610ac9575b5050600019600383901b1c191660019190911b17600f55005b015190503880610ab0565b90601f19831693610af5600f6000526000805160206132d583398151915290565b926000905b868210610b315750508360019510610b18575b505050811b01600f55005b015160001960f88460031b161c19169055388080610b0d565b80600185968294968601518155019501930190610afa565b3461029257600036600319011261029257602060ff600d54166040519015158152f35b34610292576020366003190112610292576020610b8a600435611afb565b6040516001600160a01b039091168152f35b34610292576020366003190112610292576004356000526010602052604060002080546103ed600183015492600281015490600381015460048201546005830154600684015460078501549160088601549360098701549560ff600b600a8a015499015416986040519c8d9c8d9a979491926101609a9794919d9c9996936101808d019e8d5260208d015260408c015260608b015260808a015260a089015260c088015260e08701526101008601526101208501526101408401521515910152565b346102925760203660031901126102925760206106db610c7c6104b6565b611835565b346102925760008060031936011261047557610c9b611809565b600b80546001600160a01b0319811690915581906001600160a01b03167f8be0079c531659141344cd1fd0a4f28419497f9722a3daafe3b4186f6b6457e08280a380f35b3461029257600036600319011261029257610cf8611809565b610d0061239a565b600160ff19600d541617600d557f62e78cea01bee320cd4e420270b5ea74000d11b0c9f74754ebdbfc544b05a2586020604051338152a1005b3461029257600036600319011261029257600b546040516001600160a01b039091168152602090f35b3461029257600036600319011261029257602060405160058152f35b346102925760408060031936011261029257600435906024359033600052601160205260ff8160002054168015610f08575b610db990612ce3565b600083815260026020526040902054610ddc906001600160a01b03161515612d20565b610df0836000526010602052604060002090565b6006810190610e00848354611e99565b82556005810191600191828101600282019160038101938560048301965b610e52575b88518a81528b907f187629ed10c63608fdbe3ae566e392f60bfa2a349ba31cd2ccb14f116c7be85b90602090a2005b8a8254895490610e6182611ef2565b8110610f0057610ea982610ea2610ef793610e9c7ffcc9feb9950abbc5d8dc2d684aab773b62cd579705023d0c17ef4a4aa2faf6d396611ef2565b90612ac4565b8755611fa6565b808c55610eb68754611e24565b8755610ec28854611e24565b8855610ece8954611e37565b8955610eda8a54611e45565b8a55610ee68b54611e24565b8b558c519081529081906020820190565b0390a280610e1e565b505050610e23565b50600b546001600160a01b03163314610db0565b34610292576000806003193601126104755760405190806001805491610f418361186e565b8086529282811690811561044b5750600114610f67576103ed856103e181870382610999565b92508083527fb10e2d527612073b26eecdfd717e6a320cf44b4afac2b0732d9fcbe2b7fa0cf65b828410610fa95750505081016020016103e1826103ed6103d1565b80546020858701810191909152909301928101610f8e565b3461029257602036600319011261029257610fda6104b6565b610fe2611809565b600e549061271082101561109257611001610ffc83611fa6565b600e55565b7ffa5431eb96f95e308583176983e341b2d231cf5733f0fd05c081fa77e3afcbef61102b83612424565b9161104983611044866000526010602052604060002090565b611fb5565b6110538482612046565b61106661106084866125b9565b85612255565b610120830151610140909301516040805194855260208501919091526001600160a01b039190911692a3005b60405162461bcd60e51b815260206004820152601260248201527113585e081cdd5c1c1b1e481c995858da195960721b6044820152606490fd5b6020366003190112610292576004356002600c54146111fa576002600c556110f261239a565b801515806111ef575b61110490611dcf565b600e9061111f612710611118838554611e99565b1115611ea6565b61113361112b82611f08565b341015611f63565b60005b818110611147576100196001600c55565b6111ea908354611159610ffc82611fa6565b61116281612424565b61117a81611044846000526010602052604060002090565b6111848233612046565b61119761119182846125b9565b83612255565b7ffa5431eb96f95e308583176983e341b2d231cf5733f0fd05c081fa77e3afcbef6111e261014061012084015193015160405191829133958360209093929193604081019481520152565b0390a3611fa6565b611136565b5060058111156110fb565b604051633ee5aeb560e01b8152600490fd5b34610292576040366003190112610292576112256104b6565b61122d610882565b6001600160a01b0382169182156112ac578161126b61127c9233600052600560205260406000209060018060a01b0316600052602052604060002090565b9060ff801983541691151516179055565b60405190151581527f17307eab39ab6107e8899845ad3d59bd9653f200f220920489ca2b5937696c3160203392a3005b604051630b61174360e31b815260048101849052602490fd5b61134d90929192610180810193805182526020810151602083015260408101516040830152606081015160608301526080810151608083015260a081015160a083015260c081015160c083015260e081015160e08301526101008082015190830152610120808201519083015261014080820151908301526101608091015191019015159052565b565b346102925760203660031901126102925760043561136b6123b8565b5060008181526002602052604090205461138f906001600160a01b03161515612d20565b60005260106020526103ed604060002061142d611423600b6113af6109bb565b938054855260018101546020860152600281015460408601526003810154606086015260048101546080860152600581015460a0860152600681015460c0860152600781015460e086015260088101546101008601526009810154610120860152600a810154610140860152015460ff1690565b1515610160830152565b604051918291826112c5565b3461029257604036600319011261029257600435611455610882565b90600091338352601160205260ff60408420541680156114d4575b61147990612ce3565b8183526002602052604083205461149a906001600160a01b03161515612d20565b156114bc5781526010602052600760408220016114b78154611fa6565b905580f35b81526010602052600860408220016114b78154611fa6565b50600b546001600160a01b03163314611470565b34610292576020366003190112610292576001600160a01b036115096104b6565b166000526011602052602060ff604060002054166040519015158152f35b34610292576080366003190112610292576115406104b6565b6115486104cc565b906044356064359267ffffffffffffffff84116102925736602385011215610292576115816100199436906024816004013591016109f8565b9261080d838383611952565b3461029257600036600319011261029257602060405166038d7ea4c680008152f35b34610292576020366003190112610292576103ed6115ce600435612fd5565b60405191829160208352602083019061035c565b34610292576020366003190112610292576115fb6104b6565b611603611809565b6001600160a01b03166000818152601160205260408120805460ff19169055907f44f4322f8daa225d5f4877ad0f7d3dfba248a774396f3ca99405ed40a044fe818280a280f35b6020908160408183019282815285518094520193019160005b828110611671575050505090565b835185529381019392810192600101611663565b34610292576020806003193601126102925761169f6104b6565b906116a982611835565b906116b382612d62565b926116c16040519485610999565b828452601f196116d084612d62565b01368386013760005b8381106116ee57604051806103ed878261164a565b6116f88183611d59565b9085518110156117195761171491848260051b88010152611fa6565b6116d9565b611db9565b3461029257604036600319011261029257602060ff61176f61173e6104b6565b6117466104cc565b6001600160a01b0391821660009081526005865260408082209290931681526020919091522090565b54166040519015158152f35b34610292576020366003190112610292576117946104b6565b61179c611809565b6001600160a01b039081169081156117f057600b54826bffffffffffffffffffffffff60a01b821617600b55167f8be0079c531659141344cd1fd0a4f28419497f9722a3daafe3b4186f6b6457e0600080a3005b604051631e4fbdf760e01b815260006004820152602490fd5b600b546001600160a01b0316330361181d57565b60405163118cdaa760e01b8152336004820152602490fd5b6001600160a01b0316801561185557600052600360205260406000205490565b6040516322718ad960e21b815260006004820152602490fd5b90600182811c9216801561189e575b602083101461188857565b634e487b7160e01b600052602260045260246000fd5b91607f169161187d565b60405190600082600f54916118bc8361186e565b8083529260019081811690811561193057506001146118e3575b5061134d92500383610999565b600f600090815291506000805160206132d58339815191525b848310611915575061134d9350508101602001386118d6565b81935090816020925483858a010152019101909185926118fc565b90506020925061134d94915060ff191682840152151560051b820101386118d6565b6001600160a01b03828116929091908315611aab5760008581526002602052604090205485906001600160a01b03169433611a9b575b8486169586158015611a6d575b6001600160a01b0385166000908152600360205260409020600181540190556119cc85610567866000526002602052604060002090565b8383897fddf252ad1be2c89b69c2b068fc378daa952ba7f163c4a11628f55a4df523b3ef600080a415611a4d5750611a0382612e9a565b8503611a3d575b50501691828203611a1a57505050565b60649350604051926364283d7b60e01b8452600484015260248301526044820152fd5b611a4691612e53565b3884611a0a565b82828803611a5d575b5050611a03565b611a6691612ef7565b3882611a56565b611a7684611ad7565b6001600160a01b03821660009081526003602052604090208054600019019055611995565b611aa6823388612d7a565b611988565b604051633250574960e11b815260006004820152602490fd5b60405190611ad182610961565b60008252565b611aeb906000526004602052604060002090565b80546001600160a01b0319169055565b6000818152600260205260409020546001600160a01b0316908115611b1e575090565b60249060405190637e27328960e01b82526004820152fd5b90816020910312610292575161039281610280565b610392939260809260018060a01b03168252600060208301526040820152816060820152019061035c565b6001600160a01b0391821681529116602082015260408101919091526080606082018190526103929291019061035c565b3d15611bd2573d90611bb8826109dc565b91611bc66040519384610999565b82523d6000602084013e565b606090565b91823b611be357505050565b6020611c069160405180938192630a85bd0160e11b968784523360048501611b4b565b038160006001600160a01b0388165af160009181611c93575b50611c5e5782611c2d611ba7565b8051919082611c5757604051633250574960e11b81526001600160a01b0383166004820152602490fd5b9050602001fd5b6001600160e01b03191603611c705750565b604051633250574960e11b81526001600160a01b03919091166004820152602490fd5b611cb591925060203d8111611cbc575b611cad8183610999565b810190611b36565b9038611c1f565b503d611ca3565b91929092833b611cd4575b50505050565b611cf9916020916040519384928392630a85bd0160e11b978885523360048601611b76565b038160006001600160a01b0388165af160009181611d39575b50611d205782611c2d611ba7565b6001600160e01b03191603611c70575038808080611cce565b611d5291925060203d8111611cbc57611cad8183610999565b9038611d12565b611d6281611835565b821015611d8e5760018060a01b0316600052600660205260406000209060005260205260406000205490565b60405163295f44f760e21b81526001600160a01b039190911660048201526024810191909152604490fd5b634e487b7160e01b600052603260045260246000fd5b15611dd657565b60405162461bcd60e51b815260206004820152601060248201526f496e76616c6964207175616e7469747960801b6044820152606490fd5b634e487b7160e01b600052601160045260246000fd5b9060058201809211611e3257565b611e0e565b9060038201809211611e3257565b90600a8201809211611e3257565b9060018201809211611e3257565b6032019081603211611e3257565b6064019081606411611e3257565b9060028201809211611e3257565b9060208201809211611e3257565b91908201809211611e3257565b15611ead57565b60405162461bcd60e51b815260206004820152601760248201527f576f756c6420657863656564206d617820737570706c790000000000000000006044820152606490fd5b90606482029180830460641490151715611e3257565b9066038d7ea4c680009180830292830403611e3257565b90600a820291808304600a1490151715611e3257565b908160011b9180830460021490151715611e3257565b600281901b91906001600160fe1b03811603611e3257565b15611f6a57565b60405162461bcd60e51b8152602060048201526014602482015273125b9cdd59999a58da595b9d081c185e5b595b9d60621b6044820152606490fd5b6000198114611e325760010190565b600b61203361016061134d94805185556020810151600186015560408101516002860155606081015160038601556080810151600486015560a0810151600586015560c0810151600686015560e0810151600786015561010081015160088601556101208101516009860155610140810151600a8601550151151590565b91019060ff801983541691151516179055565b91906040519061205582610961565b6000808352936001600160a01b03808216801561218957838752600260205260408720546001600160a01b03169182168015928315938461215b575b6001600160a01b0386166000908152600360205260409020600181540190556120c886610567896000526002602052604060002090565b8684847fddf252ad1be2c89b69c2b068fc378daa952ba7f163c4a11628f55a4df523b3ef8d80a41561213b57506120fe85612e9a565b0361212c575b6121135761134d939450611bd7565b6040516339e3563760e11b815260048101869052602490fd5b6121368383612e53565b612104565b8583830361214b575b50506120fe565b61215491612ef7565b3885612144565b61216487611ad7565b6001600160a01b03821660009081526003602052604090208054600019019055612091565b604051633250574960e11b815260048101889052602490fd5b601f81116121ae575050565b600090600f82526000805160206132d5833981519152906020601f850160051c830194106121f7575b601f0160051c01915b8281106121ec57505050565b8181556001016121e0565b90925082906121d7565b90601f811161220f57505050565b600091825260208220906020601f850160051c8301941061224b575b601f0160051c01915b82811061224057505050565b818155600101612234565b909250829061222b565b919091806000526020600a815260406000209084519067ffffffffffffffff821161095c5761228e82612288855461186e565b85612201565b80601f8311600114612303575090806122f39493927ff8e1a15aba9398e019f0b49df1a4fde98ee17ae345cb5f6b5e2c27f5033e8ce796976000926122f8575b50508160011b916000199060031b1c19161790555b6040519081529081906020820190565b0390a1565b0151905038806122ce565b90601f1983169661231985600052602060002090565b926000905b8982106123825750509183916001936122f39796957ff8e1a15aba9398e019f0b49df1a4fde98ee17ae345cb5f6b5e2c27f5033e8ce7999a10612369575b505050811b0190556122e3565b015160001960f88460031b161c1916905538808061235c565b8060018596829496860151815501950193019061231e565b60ff600d54166123a657565b60405163d93c066560e01b8152600490fd5b60405190610180820182811067ffffffffffffffff82111761095c57604052816101606000918281528260208201528260408201528260608201528260808201528260a08201528260c08201528260e08201528261010082015282610120820152826101408201520152565b61242c6123b8565b50604051612476816124686020820194339042879160549391835260208301526bffffffffffffffffffffffff199060601b1660408201520190565b03601f198101835282610999565b51902060648106603281101561256a575060015b61249960058360081c06611e53565b6124a282611f1f565b6124ba816124b560328760101c06611e61565b611e99565b936124ce826124b560328460181c06611e61565b916125166124e5826124b560328660201c06611e61565b916124b5603261250c6124fd60648860281c06611e6f565b61250685611f35565b90611e99565b9560301c06611e61565b9261251f6109bb565b9687526020870152604086015260608501526080840152600160a0840152600060c0840152600060e08401526000610100840152610120830152610140820152600061016082015290565b604b81101561257b5750600261248a565b605a81101561258c5750600361248a565b6062111561259b57600461248a565b600561248a565b906125b560209282815194859201610339565b0190565b6125c290612ae2565b6101208201516125d190612903565b916101408101516125e1906129f3565b9060a08101516125f090612ae2565b81516125fb90612ae2565b602083015161260990612ae2565b91604084015161261890612ae2565b936060015161262690612ae2565b6040516e7b226e616d65223a224d656368202360881b6020820152978897919691602f8901612654916125a2565b7f222c226465736372697074696f6e223a224120626174746c652d72656164792081527f6d6563682066726f6d204d656368466f726765222c2261747472696275746573602082015262223a5b60e81b60408201526043017f7b2274726169745f74797065223a2254797065222c2276616c7565223a2200008152601e016126db916125a2565b62089f4b60ea1b81526003017f7b2274726169745f74797065223a22526172697479222c2276616c7565223a228152602001612716916125a2565b62089f4b60ea1b81526003017f7b2274726169745f74797065223a224c6576656c222c2276616c7565223a00008152601e01612751916125a2565b611f4b60f21b81526002017f7b2274726169745f74797065223a2241747461636b222c2276616c7565223a008152601f0161278b916125a2565b611f4b60f21b81526002017f7b2274726169745f74797065223a22446566656e7365222c2276616c7565223a81526020016127c5916125a2565b611f4b60f21b81526002017f7b2274726169745f74797065223a225370656564222c2276616c7565223a00008152601e016127ff916125a2565b611f4b60f21b81526002017f7b2274726169745f74797065223a224865616c7468222c2276616c7565223a008152601f01612839916125a2565b627d5d7d60e81b81526003010390601f1991828101825261285a9082610999565b61286390612bf1565b6040517f646174613a6170706c69636174696f6e2f6a736f6e3b6261736536342c000000602082015291908290603d820161289d916125a2565b0390810182526103929082610999565b604051906128ba8261097d565b600682526529b734b832b960d11b6020830152565b604051906128dc8261097d565b600782526614dd5c1c1bdc9d60ca1b6020830152565b9060068110156117195760051b0190565b6129aa90604080519061291582610940565b805161292081610961565b60008152825280516129318161097d565b6007815266105cdcd85d5b1d60ca1b6020820152602083015280516129558161097d565b600481526354616e6b60e01b602082015281830152516129748161097d565b600581526414d8dbdd5d60da1b602082015260608201526129936128ad565b60808201526129a06128cf565b60a08201526128f2565b5190565b604051906129bb8261097d565b60048252634570696360e01b6020830152565b604051906129db8261097d565b60098252684c6567656e6461727960b81b6020830152565b6129aa906040805190612a0582610940565b8051612a1081610961565b6000815282528051612a218161097d565b600681526521b7b6b6b7b760d11b602082015260208301528051612a448161097d565b60088152672ab731b7b6b6b7b760c11b60208201528183015251612a678161097d565b60048152635261726560e01b60208201526060820152612a856129ae565b60808201526129a06129ce565b90612a9c826109dc565b612aa96040519182610999565b8281528092612aba601f19916109dc565b0190602036910137565b91908203918211611e3257565b908151811015611719570160200190565b8015612b63578060008082805b612b4b5750612afd81612a92565b935b612b095750505090565b6000198101908111611e32578092600a9160308383068101809111611e325760f81b6001600160f81b031916841a90612b429087612ad1565b53049182612aff565b9250612b58600a91611fa6565b920480849391612aef565b50604051612b708161097d565b60018152600360fc1b602082015290565b604051906060820182811067ffffffffffffffff82111761095c57604052604082527f6768696a6b6c6d6e6f707172737475767778797a303132333435363738392b2f6040837f4142434445464748494a4b4c4d4e4f505152535455565758595a61626364656660208201520152565b612bf9612b81565b81518015612cd857612c2f612c2a612c25612c20612c1985979697611e7d565b6003900490565b611f4b565b611e8b565b612a92565b9260208401926000915b838310612c7a575050506003900680600114612c6957600214612c5a575090565b603d60f81b6000199091015290565b50613d3d60f01b6001199091015290565b9091936004600391868501516001603f9080828460121c16880101519160ff9283838387600c1c168b01015116906008918585858960061c168d0101511691831b01821b01901b931687010151160160e01b81520194019190612c39565b505050610392611ac4565b15612cea57565b60405162461bcd60e51b815260206004820152600e60248201526d139bdd08185d5d1a1bdc9a5e995960921b6044820152606490fd5b15612d2757565b60405162461bcd60e51b8152602060048201526013602482015272135958da08191bd95cc81b9bdd08195e1a5cdd606a1b6044820152606490fd5b67ffffffffffffffff811161095c5760051b60200190565b6001600160a01b03908282168015159081612de5575b5015612d9c5750505050565b16612dba57604051637e27328960e01b815260048101839052602490fd5b60405163177e802f60e01b81526001600160a01b039190911660048201526024810191909152604490fd5b82841680821492508215612e1d575b508115612e03575b5038612d90565b905084600052600460205282604060002054161438612dfc565b909150600052600560205260ff612e4a8560406000209060018060a01b0316600052602052604060002090565b54169038612df4565b90612e5d82611835565b600019810192908311611e32576001600160a01b031660009081526006602090815260408083208584528252808320849055928252600790522055565b600854816000526009602052806040600020556801000000000000000081101561095c5760018101806008558110156117195760086000527ff3f7a9fe364faab93b216da50a3214154f22a0a2b415b23a84c8169e8b636ee30155565b90612f0182611835565b6000928284526020906007825284612f3260409586832054868103612f4e575b506000526007602052604060002090565b556001600160a01b031684526006815282842091845252812055565b6001600160a01b03851680855260068088528986208987528852898620549186528752888520828652875288852081905560009081526007602052604090205538612f21565b602061134d919392936040519481612fb58793518092868087019101610339565b8201612fc982518093868085019101610339565b01038085520183610999565b612fde81611afb565b5060008181526020600a815260408220604051928391818154906130018261186e565b80865292600192808416908115613098575060011461305b575b5050505061302b92500382610999565b6130336118a8565b80511561305557815161304b575050610392906130bc565b6103929250612f94565b50905090565b815285812095935091905b81831061308057505061302b93508201013880808061301b565b85548784018501529485019486945091830191613066565b935050505061302b94925060ff191682840152151560051b8201013880808061301b565b6130c581611afb565b50604051600f548160006130d88361186e565b8083529260019081811690811561316f5750600114613122575b506130ff92500382610999565b8051156131185761311261039292613191565b90612f94565b5050610392611ac4565b600f600090815291506000805160206132d58339815191525b84831061315457506130ff9350508101602001386130f2565b8193509081602092548385890101520191019091849261313b565b9050602092506130ff94915060ff191682840152151560051b820101386130f2565b806000917a184f03e93ff9f4daa797ed6e38ed64bf6a1f010000000000000000808210156132c6575b506d04ee2d6d415b85acef8100000000808310156132b7575b50662386f26fc10000808310156132a8575b506305f5e10080831015613299575b506127108083101561328a575b50606482101561327a575b600a80921015613270575b600190816021613228828701612a92565b95860101905b61323a575b5050505090565b600019019083906f181899199a1a9b1b9c1cb0b131b232b360811b8282061a83530491821561326b5791908261322e565b613233565b9160010191613217565b919060646002910491019161320c565b60049193920491019138613201565b600891939204910191386131f4565b601091939204910191386131e5565b602091939204910191386131d3565b6040935081049150386131ba56fe8d1108e10bcb7c27dddfc02ed9d693a074039d026cf4ea4240b40f7d581ac802a26469706673582212209e70ac2ff2d3ec320c630392f83486399856d0662d1d3f67d7adbfe27bdbb6bd64736f6c63430008140033",
  "linkReferences": {},
  "deployedLinkReferences": {}
}