{
  "_format": "hh-sol-artifact-1",
  "contractName": "StakingRewards",
  "sourceName": "contracts/StakingRewards.sol",
  "abi": [
    {
      "inputs": [
        {
          "internalType": "address",
          "name": "_mechNFT",
          "type": "address"
        },
        {
          "internalType": "address",
          "name": "_rewardToken",
          "type": "address"
        }
      ],
      "stateMutability": "nonpayable",
      "type": "constructor"
    },
    {
      "inputs": [],
      "name": "EnforcedPause",
      "type": "error"
    },
    {
      "inputs": [],
      "name": "ExpectedPause",
      "type": "error"
    },
    {
      "inputs": [
        {
          "internalType": "address",
          "name": "owner",
          "type": "address"
        }
      ],
      "name": "OwnableInvalidOwner",
      "type": "error"
    },
    {
      "inputs": [
        {
          "internalType": "address",
          "name": "account",
          "type": "address"
        }
      ],
      "name": "OwnableUnauthorizedAccount",
      "type": "error"
    },
    {
      "inputs": [],
      "name": "ReentrancyGuardReentrantCall",
      "type": "error"
    },
    {
      "anonymous": false,
      "inputs": [
        {
          "indexed": true,
          "internalType": "address",
          "name": "previousOwner",
          "type": "address"
        },
        {
          "indexed": true,
          "internalType": "address",
          "name": "newOwner",
          "type": "address"
        }
      ],
      "name": "OwnershipTransferred",
      "type": "event"
    },
    {
      "anonymous": false,
      "inputs": [
        {
          "indexed": false,
          "internalType": "address",
          "name": "account",
          "type": "address"
        }
      ],
      "name": "Paused",
      "type": "event"
    },
    {
      "anonymous": false,
      "inputs": [
        {
          "indexed": false,
          "internalType": "uint256",
          "name": "newRate",
          "type": "uint256"
        }
      ],
      "name": "RewardRateUpdated",
      "type": "event"
    },
    {
      "anonymous": false,
      "inputs": [
        {
          "indexed": true,
          "internalType": "address",
          "name": "user",
          "type": "address"
        },
        {
          "indexed": true,
          "internalType": "uint256",
          "name": "mechId",
          "type": "uint256"
        },
        {
          "indexed": false,
          "internalType": "uint256",
          "name": "amount",
          "type": "uint256"
        }
      ],
      "name": "RewardsClaimed",
      "type": "event"
    },
    {
      "anonymous": false,
      "inputs": [
        {
          "indexed": true,
          "internalType": "address",
          "name": "user",
          "type": "address"
        },
        {
          "indexed": true,
          "internalType": "uint256",
          "name": "mechId",
          "type": "uint256"
        },
        {
          "indexed": false,
          "internalType": "uint256",
          "name": "timestamp",
          "type": "uint256"
        }
      ],
      "name": "Staked",
      "type": "event"
    },
    {
      "anonymous": false,
      "inputs": [
        {
          "indexed": false,
          "internalType": "address",
          "name": "account",
          "type": "address"
        }
      ],
      "name": "Unpaused",
      "type": "event"
    },
    {
      "anonymous": false,
      "inputs": [
        {
          "indexed": true,
          "internalType": "address",
          "name": "user",
          "type": "address"
        },
        {
          "indexed": true,
          "internalType": "uint256",
          "name": "mechId",
          "type": "uint256"
        },
        {
          "indexed": false,
          "internalType": "uint256",
          "name": "timestamp",
          "type": "uint256"
        },
        {
          "indexed": false,
          "internalType": "uint256",
          "name": "rewards",
          "type": "uint256"
        }
      ],
      "name": "Unstaked",
      "type": "event"
    },
    {
      "inputs": [],
      "name": "REWARD_PRECISION",
      "outputs": [
        {
          "internalType": "uint256",
          "name": "",
          "type": "uint256"
        }
      ],
      "stateMutability": "view",
      "type": "function"
    },
    {
      "inputs": [],
      "name": "SECONDS_PER_DAY",
      "outputs": [
        {
          "internalType": "uint256",
          "name": "",
          "type": "uint256"
        }
      ],
      "stateMutability": "view",
      "type": "function"
    },
    {
      "inputs": [],
      "name": "baseRewardRate",
      "outputs": [
        {
          "internalType": "uint256",
          "name": "",
          "type": "uint256"
        }
      ],
      "stateMutability": "view",
      "type": "function"
    },
    {
      "inputs": [
        {
          "internalType": "uint256",
          "name": "mechId",
          "type": "uint256"
        }
      ],
      "name": "calculateMechAPR",
      "outputs": [
        {
          "internalType": "uint256",
          "name": "",
          "type": "uint256"
        }
      ],
      "stateMutability": "view",
      "type": "function"
    },
    {
      "inputs": [
        {
          "internalType": "uint256",
          "name": "mechId",
          "type": "uint256"
        }
      ],
      "name": "calculatePendingRewards",
      "outputs": [
        {
          "internalType": "uint256",
          "name": "",
          "type": "uint256"
        }
      ],
      "stateMutability": "view",
      "type": "function"
    },
    {
      "inputs": [
        {
          "internalType": "address",
          "name": "user",
          "type": "address"
        }
      ],
      "name": "calculateTotalPendingRewards",
      "outputs": [
        {
          "internalType": "uint256",
          "name": "",
          "type": "uint256"
        }
      ],
      "stateMutability": "view",
      "type": "function"
    },
    {
      "inputs": [
        {
          "internalType": "uint256",
          "name": "mechId",
          "type": "uint256"
        }
      ],
      "name": "claimRewards",
      "outputs": [],
      "stateMutability": "nonpayable",
      "type": "function"
    },
    {
      "inputs": [
        {
          "internalType": "uint256[]",
          "name": "mechIds",
          "type": "uint256[]"
        }
      ],
      "name": "claimRewardsBatch",
      "outputs": [],
      "stateMutability": "nonpayable",
      "type": "function"
    },
    {
      "inputs": [
        {
          "internalType": "uint256",
          "name": "amount",
          "type": "uint256"
        }
      ],
      "name": "depositRewards",
      "outputs": [],
      "stateMutability": "nonpayable",
      "type": "function"
    },
    {
      "inputs": [],
      "name": "emergencyUnlock",
      "outputs": [
        {
          "internalType": "bool",
          "name": "",
          "type": "bool"
        }
      ],
      "stateMutability": "view",
      "type": "function"
    },
    {
      "inputs": [
        {
          "internalType": "uint256",
          "name": "mechId",
          "type": "uint256"
        }
      ],
      "name": "emergencyUnstake",
      "outputs": [],
      "stateMutability": "nonpayable",
      "type": "function"
    },
    {
      "inputs": [
        {
          "internalType": "uint256",
          "name": "mechId",
          "type": "uint256"
        }
      ],
      "name": "getStakeInfo",
      "outputs": [
        {
          "components": [
            {
              "internalType": "uint256",
              "name": "mechId",
              "type": "uint256"
            },
            {
              "internalType": "address",
              "name": "owner",
              "type": "address"
            },
            {
              "internalType": "uint256",
              "name": "stakedAt",
              "type": "uint256"
            },
            {
              "internalType": "uint256",
              "name": "lastClaimTime",
              "type": "uint256"
            },
            {
              "internalType": "uint256",
              "name": "accumulatedRewards",
              "type": "uint256"
            },
            {
              "internalType": "bool",
              "name": "active",
              "type": "bool"
            }
          ],
          "internalType": "struct StakingRewards.StakeInfo",
          "name": "",
          "type": "tuple"
        }
      ],
      "stateMutability": "view",
      "type": "function"
    },
    {
      "inputs": [
        {
          "internalType": "address",
          "name": "user",
          "type": "address"
        }
      ],
      "name": "getUserStakes",
      "outputs": [
        {
          "internalType": "uint256[]",
          "name": "",
          "type": "uint256[]"
        }
      ],
      "stateMutability": "view",
      "type": "function"
    },
    {
      "inputs": [
        {
          "internalType": "address",
          "name": "user",
          "type": "address"
        }
      ],
      "name": "getUserStakingDetails",
      "outputs": [
        {
          "internalType": "uint256[]",
          "name": "mechIds",
          "type": "uint256[]"
        },
        {
          "internalType": "uint256[]",
          "name": "pendingRewards",
          "type": "uint256[]"
        },
        {
          "internalType": "uint256[]",
          "name": "stakedTimes",
          "type": "uint256[]"
        }
      ],
      "stateMutability": "view",
      "type": "function"
    },
    {
      "inputs": [
        {
          "internalType": "uint256",
          "name": "mechId",
          "type": "uint256"
        }
      ],
      "name": "isStaked",
      "outputs": [
        {
          "internalType": "bool",
          "name": "",
          "type": "bool"
        }
      ],
      "stateMutability": "view",
      "type": "function"
    },
    {
      "inputs": [],
      "name": "mechNFT",
      "outputs": [
        {
          "internalType": "contract IMechNFT",
          "name": "",
          "type": "address"
        }
      ],
      "stateMutability": "view",
      "type": "function"
    },
    {
      "inputs": [
        {
          "internalType": "uint256",
          "name": "",
          "type": "uint256"
        }
      ],
      "name": "mechStakeIndex",
      "outputs": [
        {
          "internalType": "uint256",
          "name": "",
          "type": "uint256"
        }
      ],
      "stateMutability": "view",
      "type": "function"
    },
    {
      "inputs": [],
      "name": "owner",
      "outputs": [
        {
          "internalType": "address",
          "name": "",
          "type": "address"
        }
      ],
      "stateMutability": "view",
      "type": "function"
    },
    {
      "inputs": [],
      "name": "pause",
      "outputs": [],
      "stateMutability": "nonpayable",
      "type": "function"
    },
    {
      "inputs": [],
      "name": "paused",
      "outputs": [
        {
          "internalType": "bool",
          "name": "",
          "type": "bool"
        }
      ],
      "stateMutability": "view",
      "type": "function"
    },
    {
      "inputs": [
        {
          "internalType": "uint256",
          "name": "",
          "type": "uint256"
        }
      ],
      "name": "rarityMultiplier",
      "outputs": [
        {
          "internalType": "uint256",
          "name": "",
          "type": "uint256"
        }
      ],
      "stateMutability": "view",
      "type": "function"
    },
    {
      "inputs": [],
      "name": "renounceOwnership",
      "outputs": [],
      "stateMutability": "nonpayable",
      "type": "function"
    },
    {
      "inputs": [],
      "name": "rewardToken",
      "outputs": [
        {
          "internalType": "contract IERC20",
          "name": "",
          "type": "address"
        }
      ],
      "stateMutability": "view",
      "type": "function"
    },
    {
      "inputs": [
        {
          "internalType": "uint256",
          "name": "newRate",
          "type": "uint256"
        }
      ],
      "name": "setBaseRewardRate",
      "outputs": [],
      "stateMutability": "nonpayable",
      "type": "function"
    },
    {
      "inputs": [
        {
          "internalType": "bool",
          "name": "enabled",
          "type": "bool"
        }
      ],
      "name": "setEmergencyUnlock",
      "outputs": [],
      "stateMutability": "nonpayable",
      "type": "function"
    },
    {
      "inputs": [
        {
          "internalType": "address",
          "name": "_mechNFT",
          "type": "address"
        }
      ],
      "name": "setMechNFT",
      "outputs": [],
      "stateMutability": "nonpayable",
      "type": "function"
    },
    {
      "inputs": [
        {
          "internalType": "uint256",
          "name": "rarity",
          "type": "uint256"
        },
        {
          "internalType": "uint256",
          "name": "multiplier",
          "type": "uint256"
        }
      ],
      "name": "setRarityMultiplier",
      "outputs": [],
      "stateMutability": "nonpayable",
      "type": "function"
    },
    {
      "inputs": [
        {
          "internalType": "address",
          "name": "_rewardToken",
          "type": "address"
        }
      ],
      "name": "setRewardToken",
      "outputs": [],
      "stateMutability": "nonpayable",
      "type": "function"
    },
    {
      "inputs": [
        {
          "internalType": "uint256",
          "name": "mechId",
          "type": "uint256"
        }
      ],
      "name": "stake",
      "outputs": [],
      "stateMutability": "nonpayable",
      "type": "function"
    },
    {
      "inputs": [
        {
          "internalType": "uint256",
          "name": "",
          "type": "uint256"
        }
      ],
      "name": "stakes",
      "outputs": [
        {
          "internalType": "uint256",
          "name": "mechId",
          "type": "uint256"
        },
        {
          "internalType": "address",
          "name": "owner",
          "type": "address"
        },
        {
          "internalType": "uint256",
          "name": "stakedAt",
          "type": "uint256"
        },
        {
          "internalType": "uint256",
          "name": "lastClaimTime",
          "type": "uint256"
        },
        {
          "internalType": "uint256",
          "name": "accumulatedRewards",
          "type": "uint256"
        },
        {
          "internalType": "bool",
          "name": "active",
          "type": "bool"
        }
      ],
      "stateMutability": "view",
      "type": "function"
    },
    {
      "inputs": [],
      "name": "totalRewardsDistributed",
      "outputs": [
        {
          "internalType": "uint256",
          "name": "",
          "type": "uint256"
        }
      ],
      "stateMutability": "view",
      "type": "function"
    },
    {
      "inputs": [],
      "name": "totalStaked",
      "outputs": [
        {
          "internalType": "uint256",
          "name": "",
          "type": "uint256"
        }
      ],
      "stateMutability": "view",
      "type": "function"
    },
    {
      "inputs": [
        {
          "internalType": "address",
          "name": "newOwner",
          "type": "address"
        }
      ],
      "name": "transferOwnership",
      "outputs": [],
      "stateMutability": "nonpayable",
      "type": "function"
    },
    {
      "inputs": [],
      "name": "unpause",
      "outputs": [],
      "stateMutability": "nonpayable",
      "type": "function"
    },
    {
      "inputs": [
        {
          "internalType": "uint256",
          "name": "mechId",
          "type": "uint256"
        }
      ],
      "name": "unstake",
      "outputs": [],
      "stateMutability": "nonpayable",
      "type": "function"
    },
    {
      "inputs": [
        {
          "internalType": "uint256[]",
          "name": "mechIds",
          "type": "uint256[]"
        }
      ],
      "name": "unstakeBatch",
      "outputs": [],
      "stateMutability": "nonpayable",
      "type": "function"
    },
    {
      "inputs": [
        {
          "internalType": "address",
          "name": "",
          "type": "address"
        },
        {
          "internalType": "uint256",
          "name": "",
          "type": "uint256"
        }
      ],
      "name": "userStakes",
      "outputs": [
        {
          "internalType": "uint256",
          "name": "",
          "type": "uint256"
        }
      ],
      "stateMutability": "view",
      "type": "function"
    },
    {
      "inputs": [
        {
          "internalType": "uint256",
          "name": "amount",
          "type": "uint256"
        }
      ],
      "name": "withdrawRewards",
      "outputs": [],
      "stateMutability": "nonpayable",
      "type": "function"
    },
    {
      "stateMutability": "payable",
      "type": "receive"
    }
  ],
  "bytecode": "0x60803462000144576200205f601f38829003908101601f19168301906001600160401b0382118483101762000149578084916040948594855283398101031262000144576200005c602062000054846200015f565b93016200015f565b33156200012c5760008054336001600160a01b03198083168217845585519661012c969591936001600160a01b03939084167f8be0079c531659141344cd1fd0a4f28419497f9722a3daafe3b4186f6b6457e08780a36001805560025490678ac7230489e80000600755610100600160a81b039060081b169060018060a81b031916176002551690600354161760035560018152600860205260648282205560028152607d82822055600381526096828220556004815260c882822055600581522055611eea9081620001758239f35b8151631e4fbdf760e01b815260006004820152602490fd5b600080fd5b634e487b7160e01b600052604160045260246000fd5b51906001600160a01b0382168203620001445756fe6080604090808252600480361015610022575b505050361561002057600080fd5b005b600091823560e01c908163012ce501146114045750806303237a04146113515780630962ef79146111b957806309813482146110eb57806316010ae1146110be5780632e17de78146110575780632f38e042146110215780633d6aa5e114610ffe5780633f4ba83a14610f935780633fc846de14610f6a5780634303223c14610f495780635c975abb14610f25578063646e6f8b14610d90578063715018a614610d3657806374f0314f14610d18578063817b1cd214610cf9578063842e298114610c735780638456cb5914610c185780638aee812714610bd85780638bdf67f214610b035780638da5cb5b14610adb5780639342c8f4146109f6578063a694fc3a14610718578063afbf3440146106f9578063b5d5b5fa146106a3578063b6ed7d621461067b578063baa51f861461064b578063c42f5760146105cc578063cc85df7e146105a3578063d5a44f861461053a578063e64a21f314610492578063ee17254614610473578063efd3993814610426578063f0a9abe7146103d7578063f2c39992146103b3578063f2fde38b14610326578063f7c618c1146102fd5763f93f3b630361001257346102f9576020806003193601126102f5576001600160a01b036101ef6115ba565b16835260058152838320918451808484829654938481520190875284872092875b868282106102df57505050610227925003846116f6565b825161023281611d34565b9461023c82611d34565b9261024683611d34565b95825b84811061028f576102718961028b8c8b61027e8c8c8451978897606089526060890190611622565b9187830390880152611622565b9184830390850152611622565b0390f35b8061029d6102da9284611d08565b51806102a9838d611d08565b526102b381611b92565b6102bd838a611d08565b52855283885260028b862001546102d4828b611d08565b52611718565b610249565b8554845260019586019589955093019201610210565b8280fd5b5080fd5b8284346102f957816003193601126102f95760035490516001600160a01b039091168152602090f35b508290346102f55760203660031901126102f5576103426115ba565b9061034b611684565b6001600160a01b0391821692831561039d575050600054826001600160601b0360a01b821617600055167f8be0079c531659141344cd1fd0a4f28419497f9722a3daafe3b4186f6b6457e0600080a380f35b51631e4fbdf760e01b8152908101849052602490fd5b8284346102f957816003193601126102f95760209060ff600b541690519015158152f35b508290346102f55760203660031901126102f5577f41d466ebd06fb97e7786086ac8b69b7eb7da798592036251291d34e9791cde0191602091359061041a611684565b8160075551908152a180f35b8234610470576020366003190112610470576104406115ba565b610448611684565b60028054610100600160a81b03191660089290921b610100600160a81b031691909117905580f35b80fd5b8284346102f957816003193601126102f957602090600a549051908152f35b508290346102f5576104a3366115d5565b916104ac61175b565b845b8381106104bd57856001805580f35b806104cc6104f19286866117f5565b35875260208381528360ff6005898b20015416918261050f575b50506104f657611718565b6104ae565b61050a6105048287876117f5565b356118b1565b611718565b90915061051d8388886117f5565b35895252858720600101546001600160a01b0316331483896104e6565b5082346102f55760203660031901126102f5578060c09383358152836020522080549260018060a01b036001830154169260028301549060ff600560038601549486015495015416948151968752602087015285015260608401526080830152151560a0820152f35b508290346102f55760203660031901126102f55760209282913581526006845220549051908152f35b508290346102f557816003193601126102f5578035906105ea611684565b600182101580610640575b1561060c5750825260086020526024359082205580f35b606490602084519162461bcd60e51b8352820152600e60248201526d496e76616c69642072617269747960901b6044820152fd5b5060058211156105f5565b508290346102f55760203660031901126102f5576005826020948360ff9435825286522001541690519015158152f35b50919034610470576020366003190112610470575061069c60209235611b92565b9051908152f35b8284346102f957806003193601126102f9576106bd6115ba565b6001600160a01b0316825260056020528082208054602435939084101561047057506020926106eb91611656565b91905490519160031b1c8152f35b8284346102f957816003193601126102f9576020906007549051908152f35b5082346102f5576020806003193601126109f25782359161073761175b565b61073f61173d565b60025481516331a9108f60e11b81528581018590526001600160a01b0360089290921c82169591602491858184818b5afa9081156109e85789916109ae575b50813391160361097c5785885282855260ff6005858a2001541661094a57863b1561093c57878451635390271560e01b8152878582015281816044818360019d8e8a8401525af18015610940579089939291610923575b509087876005938851936107e8856116da565b838552828501903382528a808701934285528b606089019642885260808a0198838a5260a08b019c8d5283525220955186558d86019151166001600160601b0360a01b8254161790555160028401555160038301555185820155019051151560ff801983541691161790553387526005845282872080549068010000000000000000821015610911576108848288928a61089d95018155611656565b90919082549060031b91821b91600019901b1916179055565b3387526005845282872054600019810192908311610900575050907f1449c6dd7851abc30abf37f57715f492010519147cc2652fbc38202c18a6ee909184875260068452818720556108f0600954611718565b60095551914283523392a3805580f35b634e487b7160e01b88526011905286fd5b634e487b7160e01b8952604184528289fd5b61092f919293506116b0565b61093c578690888a6107d5565b8780fd5b86513d84823e3d90fd5b50606493600e9293519362461bcd60e51b85528401528201526d105b1c9958591e481cdd185ad95960921b6044820152fd5b50606493600e9293519362461bcd60e51b85528401528201526d2737ba1036b2b1b41037bbb732b960911b6044820152fd5b90508581813d83116109e1575b6109c581836116f6565b810103126109dd575181811681036109dd578961077e565b8880fd5b503d6109bb565b85513d8b823e3d90fd5b8380fd5b5082346102f557602090816003193601126109f257610a13611684565b600354815163a9059cbb60e01b815233858201908152853560208201529091849183916001600160a01b03169082908990829060400103925af1908115610ad1578591610a98575b5015610a65578380f35b5162461bcd60e51b815291820152600f60248201526e15da5d1a191c985dc819985a5b1959608a1b604482015260649150fd5b90508281813d8311610aca575b610aaf81836116f6565b81010312610ac657610ac09061185f565b85610a5b565b8480fd5b503d610aa5565b82513d87823e3d90fd5b8284346102f957816003193601126102f957905490516001600160a01b039091168152602090f35b5082346102f557602090816003193601126109f257610b20611684565b60035481516323b872dd60e01b81523385820152306024820152843560448201529083908290606490829089906001600160a01b03165af1908115610ad1578591610ba3575b5015610b70578380f35b5162461bcd60e51b815291820152600f60248201526e151c985b9cd9995c8819985a5b1959608a1b604482015260649150fd5b90508281813d8311610bd1575b610bba81836116f6565b81010312610ac657610bcb9061185f565b85610b66565b503d610bb0565b823461047057602036600319011261047057610bf26115ba565b610bfa611684565b60018060a01b03166001600160601b0360a01b600354161760035580f35b8284346102f957816003193601126102f95760207f62e78cea01bee320cd4e420270b5ea74000d11b0c9f74754ebdbfc544b05a25891610c56611684565b610c5e61173d565b600160ff19600254161760025551338152a180f35b8284346102f957602090816003193601126102f5576001600160a01b03610c986115ba565b16835260058252808320815190819485928583549182815201928252858220915b86828210610ce257859061028b88610cd3848903856116f6565b51928284938452830190611622565b835485528895509093019260019283019201610cb9565b8284346102f957816003193601126102f9576020906009549051908152f35b8284346102f957816003193601126102f95760209051620151808152f35b8234610470578060031936011261047057610d4f611684565b600080546001600160a01b0319811682556001600160a01b03167f8be0079c531659141344cd1fd0a4f28419497f9722a3daafe3b4186f6b6457e08280a380f35b5082346102f557610da0366115d5565b9290610daa61175b565b8493855b818110610e7e5750505082610dc6575b836001805580f35b82602091610dd9610e1695600a54611805565b600a55600354845163a9059cbb60e01b8152339281019283526020830193909352919485926001600160a01b031691839188918391604090910190565b03925af1908115610e7557508290610e3b575b610e33915061186c565b818080610dbe565b506020813d8211610e6d575b81610e54602093836116f6565b810103126102f957610e68610e339161185f565b610e29565b3d9150610e47565b513d84823e3d90fd5b610e898183856117f5565b3580885260209085825286892060ff60058201541680610f0f575b610eba575b505050610eb590611718565b610dae565b610ec382611b92565b908a82610ed2575b5050610ea9565b82610eb596959b83610efc938c600080516020611e75833981519152960155600342910155611805565b9989519283523392a3908880808a610ecb565b5060018101546001600160a01b03163314610ea4565b8284346102f957816003193601126102f95760209060ff6002541690519015158152f35b50919034610470576020366003190112610470575061069c60209235611d66565b508290346102f55760203660031901126102f55760209282913581526008845220549051908152f35b508290346102f557826003193601126102f557610fae611684565b6002549060ff821615610ff0575060ff1916600255513381527f5db9ee0a495bf2e6ff9c91a7834c1ba4fdd244a5e8aa4e537bd38aeae4b073aa90602090a180f35b8251638dfc202b60e01b8152fd5b8284346102f957816003193601126102f95760209051670de0b6b3a76400008152f35b50346102f95760203660031901126102f957358015158091036102f957611046611684565b60ff8019600b5416911617600b5580f35b508290346102f55760203660031901126102f5576110b26110b79282359261107d61175b565b8386528060205261109660ff600584892001541661177e565b8386526020528420600101546001600160a01b031633146117b7565b6118b1565b6001805580f35b8284346102f957816003193601126102f957600254905160089190911c6001600160a01b03168152602090f35b508290346102f55760203660031901126102f557818360c09460a08351611111816116da565b82815282602082015282858201528260608201528260808201520152823581528260205220825191611142836116da565b81549384845260018060a01b0380600185015416906020860191825260028501549183870192835260a060ff600560038901549760608b019889528901549860808b01998a5201541697019615158752835197885251166020870152519085015251606084015251608083015251151560a0820152f35b508290346102f5576020806003193601126109f2578135926111d961175b565b8385528282526111f160ff600583882001541661177e565b838552828252808520600101546001600160a01b03939061121590851633146117b7565b8486528083528186209361122886611b92565b948515611318578285949392828a61128998958a95015560034291015561125183600a54611805565b600a55600354855163a9059cbb60e01b815233938101938452602084019490945292968793919091169183918b918391604090910190565b03925af192831561130e5786936112c2575b506112b4600080516020611e758339815191529361186c565b519283523392a36001805580f35b92508183813d8311611307575b6112d981836116f6565b81010312611303576112b46112fc600080516020611e758339815191529461185f565b935061129b565b8580fd5b503d6112cf565b81513d88823e3d90fd5b835162461bcd60e51b815280840186905260136024820152724e6f207265776172647320746f20636c61696d60681b6044820152606490fd5b50503461047057602090816003193601126104705761136e6115ba565b91819260018060a01b0316825260058152838220918451808484829654938481520190845284842092845b868282106113ee575050506113b0925003846116f6565b925b82518410156113e7576113db6113e1916113d56113cf8787611d08565b51611b92565b90611805565b93611718565b926113b2565b8451908152f35b8554845260019586019589955093019201611399565b91939050346102f557602090816003193601126109f25784359260ff600b541680156115a7575b1561156f575082845284825261144960ff600583872001541661177e565b8284528482528084209160018060a01b0392836001820154169360025460081c16803b1561156b57868660448a8388519586948593635390271560e01b85528401528160248401525af180156115615761154d575b506005908101805460ff19169055838652815281852084865260068252828620548154600019810190811161153a5791611511916114ed600080516020611e9583398151915296959483611656565b90549060031b1c611502816108848486611656565b89526006845284892055611812565b84865260068152600082872055611529600954611852565b60095585825191428352820152a380f35b634e487b7160e01b885260118952602488fd5b9561155a600592976116b0565b959061149e565b84513d89823e3d90fd5b8680fd5b62461bcd60e51b81528581018390526014602482015273456d657267656e6379206e6f742061637469766560601b6044820152606490fd5b5084546001600160a01b0316331461142b565b600435906001600160a01b03821682036115d057565b600080fd5b9060206003198301126115d05760043567ffffffffffffffff928382116115d057806023830112156115d05781600401359384116115d05760248460051b830101116115d0576024019190565b90815180825260208080930193019160005b828110611642575050505090565b835185529381019392810192600101611634565b805482101561166e5760005260206000200190600090565b634e487b7160e01b600052603260045260246000fd5b6000546001600160a01b0316330361169857565b60405163118cdaa760e01b8152336004820152602490fd5b67ffffffffffffffff81116116c457604052565b634e487b7160e01b600052604160045260246000fd5b60c0810190811067ffffffffffffffff8211176116c457604052565b90601f8019910116810190811067ffffffffffffffff8211176116c457604052565b60001981146117275760010190565b634e487b7160e01b600052601160045260246000fd5b60ff6002541661174957565b60405163d93c066560e01b8152600490fd5b60026001541461176c576002600155565b604051633ee5aeb560e01b8152600490fd5b1561178557565b60405162461bcd60e51b815260206004820152600a602482015269139bdd081cdd185ad95960b21b6044820152606490fd5b156117be57565b60405162461bcd60e51b815260206004820152600f60248201526e2737ba1039ba30b5b29037bbb732b960891b6044820152606490fd5b919081101561166e5760051b0190565b9190820180921161172757565b805490811561183c576000199182019161182c8383611656565b909182549160031b1b1916905555565b634e487b7160e01b600052603160045260246000fd5b8015611727576000190190565b519081151582036115d057565b1561187357565b60405162461bcd60e51b815260206004820152601660248201527514995dd85c99081d1c985b9cd9995c8819985a5b195960521b6044820152606490fd5b600081815260209060048252604090818120906118da6118d086611b92565b6004840154611805565b60025490926001600160a01b039160081c8216803b156109f2578380916044885180948193635390271560e01b83528d60048401528160248401525af18015611acb57611ab8575b5033835260058652848320878452600687528584205481546000198101908111611aa4579161197c916119586005959483611656565b90549060031b1c61196d816108848486611656565b875260068a5288872055611812565b878452600687526000868520550160ff19815416905561199d600954611852565b600955826119c7575b505090600080516020611e95833981519152918151934285528401523392a3565b6119d383600a54611805565b600a55600354845163a9059cbb60e01b815233600482015260248101859052918691839160449183918791165af1918215611a99578092611a4c575b505090611a2b600080516020611e95833981519152939261186c565b848251828152600080516020611e75833981519152863392a39091386119a6565b9091508482813d8311611a92575b611a6481836116f6565b81010312610470575090611a2b611a8a600080516020611e95833981519152949361185f565b919293611a0f565b503d611a5a565b8451903d90823e3d90fd5b634e487b7160e01b86526011600452602486fd5b611ac4909391936116b0565b9138611922565b86513d86823e3d90fd5b809161018092839103126115d05760405191820182811067ffffffffffffffff8211176116c457604052805182526020810151602083015260408101516040830152606081015160608301526080810151608083015260a081015160a083015260c081015160c083015260e081015160e0830152610100808201519083015261012080820151908301526101408082015190830152611b7861016080920161185f565b9082015290565b8181029291811591840414171561172757565b906000918083526004602052604090818420918051611bb0816116da565b8354815260018060a01b03928360018601541660208301526002850154838301526003850154916060810192835260ff600560048801549760808401988952015416159060a08215910152611d015760025483519163a86c6d3360e01b835260048301528160248161018097889460081c165afa938415611cf7578794611cc8575b505051804203428111611cb457670de0b6b3a76400009182820291820483149042141715611cb45760a06064611c98611cb19899611ca997968396611c8162015180611ca29804600754611b7f565b049161014089015181526008602052205490611b7f565b0493015183611b7f565b0490611805565b905190611805565b90565b634e487b7160e01b87526011600452602487fd5b611ce8929450803d10611cf0575b611ce081836116f6565b810190611ad5565b913880611c32565b503d611cd6565b83513d89823e3d90fd5b5050505050565b805182101561166e5760209160051b010190565b67ffffffffffffffff81116116c45760051b60200190565b90611d3e82611d1c565b611d4b60405191826116f6565b8281528092611d5c601f1991611d1c565b0190602036910137565b60025460405163a86c6d3360e01b81526004810192909252610180919082908290602490829060081c6001600160a01b03165afa918215611e6857600092611e4b575b5050611dd9600754916064611ca260a082611c986101408601978851600052600860205260406000205490611b7f565b90519066038d7ea4c680009180830292830403611727578115611e445761016d9081810291818304148115171561172757618e9481029180830460641490151715611727576907baab4146b63dd000000290808204670de0b6b3a76400001490151715611727570490565b5050600090565b611e619250803d10611cf057611ce081836116f6565b3880611da9565b6040513d6000823e3d90fdfedacbdde355ba930696a362ea6738feb9f8bd52dfb3d81947558fd3217e23e325204fccf0d92ed8d48f204adb39b2e81e92bad0dedb93f5716ca9478cfb57de00a26469706673582212203958f4aed0add16d60bec826c2379a58f33c72fe5f48a487e6676e728d1a51f964736f6c63430008140033",
  "linkReferences": {},
  "deployedLinkReferences": {}
}